{
  "_format": "hh-sol-artifact-1",
  "contractName": "HAYQStakingUpgradeable",
  "sourceName": "contracts/HAYQStakingUpgradeable.sol",
  "abi": [
    {
      "anonymous": false,
      "inputs": [
        {
          "indexed": false,
          "internalType": "uint8",
          "name": "version",
          "type": "uint8"
        }
      ],
      "name": "Initialized",
      "type": "event"
    },
    {
      "anonymous": false,
      "inputs": [
        {
          "indexed": true,
          "internalType": "address",
          "name": "previousOwner",
          "type": "address"
        },
        {
          "indexed": true,
          "internalType": "address",
          "name": "newOwner",
          "type": "address"
        }
      ],
      "name": "OwnershipTransferred",
      "type": "event"
    },
    {
      "anonymous": false,
      "inputs": [
        {
          "indexed": true,
          "internalType": "address",
          "name": "user",
          "type": "address"
        },
        {
          "indexed": false,
          "internalType": "uint256",
          "name": "amount",
          "type": "uint256"
        }
      ],
      "name": "Staked",
      "type": "event"
    },
    {
      "anonymous": false,
      "inputs": [
        {
          "indexed": true,
          "internalType": "address",
          "name": "user",
          "type": "address"
        },
        {
          "indexed": false,
          "internalType": "uint256",
          "name": "amount",
          "type": "uint256"
        },
        {
          "indexed": false,
          "internalType": "uint256",
          "name": "reward",
          "type": "uint256"
        }
      ],
      "name": "Unstaked",
      "type": "event"
    },
    {
      "inputs": [
        {
          "internalType": "address",
          "name": "user",
          "type": "address"
        }
      ],
      "name": "getPendingReward",
      "outputs": [
        {
          "internalType": "uint256",
          "name": "",
          "type": "uint256"
        }
      ],
      "stateMutability": "view",
      "type": "function"
    },
    {
      "inputs": [],
      "name": "hayqToken",
      "outputs": [
        {
          "internalType": "contract IERC20Upgradeable",
          "name": "",
          "type": "address"
        }
      ],
      "stateMutability": "view",
      "type": "function"
    },
    {
      "inputs": [
        {
          "internalType": "address",
          "name": "_token",
          "type": "address"
        },
        {
          "internalType": "uint256",
          "name": "_rewardRate",
          "type": "uint256"
        }
      ],
      "name": "initialize",
      "outputs": [],
      "stateMutability": "nonpayable",
      "type": "function"
    },
    {
      "inputs": [],
      "name": "owner",
      "outputs": [
        {
          "internalType": "address",
          "name": "",
          "type": "address"
        }
      ],
      "stateMutability": "view",
      "type": "function"
    },
    {
      "inputs": [],
      "name": "renounceOwnership",
      "outputs": [],
      "stateMutability": "nonpayable",
      "type": "function"
    },
    {
      "inputs": [],
      "name": "rewardRate",
      "outputs": [
        {
          "internalType": "uint256",
          "name": "",
          "type": "uint256"
        }
      ],
      "stateMutability": "view",
      "type": "function"
    },
    {
      "inputs": [
        {
          "internalType": "uint256",
          "name": "_amount",
          "type": "uint256"
        }
      ],
      "name": "stake",
      "outputs": [],
      "stateMutability": "nonpayable",
      "type": "function"
    },
    {
      "inputs": [
        {
          "internalType": "address",
          "name": "",
          "type": "address"
        }
      ],
      "name": "stakes",
      "outputs": [
        {
          "internalType": "uint256",
          "name": "amount",
          "type": "uint256"
        },
        {
          "internalType": "uint256",
          "name": "since",
          "type": "uint256"
        }
      ],
      "stateMutability": "view",
      "type": "function"
    },
    {
      "inputs": [
        {
          "internalType": "address",
          "name": "newOwner",
          "type": "address"
        }
      ],
      "name": "transferOwnership",
      "outputs": [],
      "stateMutability": "nonpayable",
      "type": "function"
    },
    {
      "inputs": [],
      "name": "unstake",
      "outputs": [],
      "stateMutability": "nonpayable",
      "type": "function"
    }
  ],
  "bytecode": "0x6080604052348015600f57600080fd5b50610a128061001f6000396000f3fe608060405234801561001057600080fd5b506004361061009e5760003560e01c8063870f466811610066578063870f4668146101205780638da5cb5b1461014b578063a694fc3a1461015c578063cd6dc6871461016f578063f2fde38b1461018257600080fd5b806316934fc4146100a35780632def6620146100e45780634df9d6ba146100ee578063715018a61461010f5780637b0a47ee14610117575b600080fd5b6100ca6100b136600461088f565b6098602052600090815260409020805460019091015482565b604080519283526020830191909152015b60405180910390f35b6100ec610195565b005b6101016100fc36600461088f565b610325565b6040519081526020016100db565b6100ec6103b5565b61010160995481565b609754610133906001600160a01b031681565b6040516001600160a01b0390911681526020016100db565b6033546001600160a01b0316610133565b6100ec61016a3660046108b1565b6103c7565b6100ec61017d3660046108ca565b610501565b6100ec61019036600461088f565b61063c565b61019d6106b2565b33600090815260986020526040902080546101f45760405162461bcd60e51b81526020600482015260126024820152714e6f7468696e6720746f20756e7374616b6560701b60448201526064015b60405180910390fd5b6000816001015442610206919061090a565b9050600063bbf81e008260995485600001546102229190610923565b61022c9190610923565b610236919061093a565b9050600081846000015461024a919061095c565b60975460405163a9059cbb60e01b8152336004820152602481018390529192506001600160a01b03169063a9059cbb906044016020604051808303816000875af115801561029c573d6000803e3d6000fd5b505050506040513d601f19601f820116820180604052508101906102c0919061096f565b508354604080519182526020820184905233917f7fc4727e062e336010f2c282598ef5f14facb3de68cf8195c2f23e1454b2b74e910160405180910390a25050336000908152609860205260408120818155600101555061032390506001606555565b565b6001600160a01b0381166000908152609860209081526040808320815180830190925280548083526001909101549282019290925290820361036a5750600092915050565b600081602001514261037c919061090a565b9050600063bbf81e008260995485600001516103989190610923565b6103a29190610923565b6103ac919061093a565b95945050505050565b6103bd610712565b610323600061076c565b6103cf6106b2565b600081116104145760405162461bcd60e51b81526020600482015260126024820152710416d6f756e74206d757374206265203e20360741b60448201526064016101eb565b6097546040516323b872dd60e01b8152336004820152306024820152604481018390526001600160a01b03909116906323b872dd906064016020604051808303816000875af115801561046b573d6000803e3d6000fd5b505050506040513d601f19601f8201168201806040525081019061048f919061096f565b503360009081526098602052604081208054909183918391906104b390849061095c565b909155505042600182015560405182815233907f9e71bc8eea02a63969f509818f2dafb9254532904319f9dbda79b67bd34a5f3d9060200160405180910390a2506104fe6001606555565b50565b600054610100900460ff16158080156105215750600054600160ff909116105b8061053b5750303b15801561053b575060005460ff166001145b61059e5760405162461bcd60e51b815260206004820152602e60248201527f496e697469616c697a61626c653a20636f6e747261637420697320616c72656160448201526d191e481a5b9a5d1a585b1a5e995960921b60648201526084016101eb565b6000805460ff1916600117905580156105c1576000805461ff0019166101001790555b6105c96107be565b6105d16107ed565b609780546001600160a01b0319166001600160a01b03851617905560998290558015610637576000805461ff0019169055604051600181527f7f26b83ff96e1f2b6a682f133852f6798a09c465da95921460cefb38474024989060200160405180910390a15b505050565b610644610712565b6001600160a01b0381166106a95760405162461bcd60e51b815260206004820152602660248201527f4f776e61626c653a206e6577206f776e657220697320746865207a65726f206160448201526564647265737360d01b60648201526084016101eb565b6104fe8161076c565b6002606554036107045760405162461bcd60e51b815260206004820152601f60248201527f5265656e7472616e637947756172643a207265656e7472616e742063616c6c0060448201526064016101eb565b6002606555565b6001606555565b6033546001600160a01b031633146103235760405162461bcd60e51b815260206004820181905260248201527f4f776e61626c653a2063616c6c6572206973206e6f7420746865206f776e657260448201526064016101eb565b603380546001600160a01b038381166001600160a01b0319831681179093556040519116919082907f8be0079c531659141344cd1fd0a4f28419497f9722a3daafe3b4186f6b6457e090600090a35050565b600054610100900460ff166107e55760405162461bcd60e51b81526004016101eb90610991565b61032361081c565b600054610100900460ff166108145760405162461bcd60e51b81526004016101eb90610991565b61032361084c565b600054610100900460ff166108435760405162461bcd60e51b81526004016101eb90610991565b6103233361076c565b600054610100900460ff1661070b5760405162461bcd60e51b81526004016101eb90610991565b80356001600160a01b038116811461088a57600080fd5b919050565b6000602082840312156108a157600080fd5b6108aa82610873565b9392505050565b6000602082840312156108c357600080fd5b5035919050565b600080604083850312156108dd57600080fd5b6108e683610873565b946020939093013593505050565b634e487b7160e01b600052601160045260246000fd5b8181038181111561091d5761091d6108f4565b92915050565b808202811582820484141761091d5761091d6108f4565b60008261095757634e487b7160e01b600052601260045260246000fd5b500490565b8082018082111561091d5761091d6108f4565b60006020828403121561098157600080fd5b815180151581146108aa57600080fd5b6020808252602b908201527f496e697469616c697a61626c653a20636f6e7472616374206973206e6f74206960408201526a6e697469616c697a696e6760a81b60608201526080019056fea2646970667358221220114a2aea49b5d11d7e79aa593cf403a277b9355ba68da0bc859e5ba851a2b5f864736f6c634300081d0033",
  "linkReferences": {},
  "deployedLinkReferences": {}
}