{
  "_format": "hh-sol-artifact-1",
  "contractName": "EthDividendTrackerUpgradeable",
  "sourceName": "contracts/EthDividendTrackerUpgradeable.sol",
  "abi": [
    {
      "anonymous": false,
      "inputs": [
        {
          "indexed": true,
          "internalType": "address",
          "name": "to",
          "type": "address"
        },
        {
          "indexed": false,
          "internalType": "uint256",
          "name": "weiAmount",
          "type": "uint256"
        }
      ],
      "name": "DividendWithdrawn",
      "type": "event"
    },
    {
      "anonymous": false,
      "inputs": [
        {
          "indexed": true,
          "internalType": "address",
          "name": "from",
          "type": "address"
        },
        {
          "indexed": false,
          "internalType": "uint256",
          "name": "weiAmount",
          "type": "uint256"
        }
      ],
      "name": "DividendsDistributed",
      "type": "event"
    },
    {
      "anonymous": false,
      "inputs": [
        {
          "indexed": false,
          "internalType": "uint8",
          "name": "version",
          "type": "uint8"
        }
      ],
      "name": "Initialized",
      "type": "event"
    },
    {
      "anonymous": false,
      "inputs": [
        {
          "indexed": true,
          "internalType": "address",
          "name": "previousOwner",
          "type": "address"
        },
        {
          "indexed": true,
          "internalType": "address",
          "name": "newOwner",
          "type": "address"
        }
      ],
      "name": "OwnershipTransferred",
      "type": "event"
    },
    {
      "inputs": [],
      "name": "HAYQToken",
      "outputs": [
        {
          "internalType": "contract IERC20MetadataUpgradeable",
          "name": "",
          "type": "address"
        }
      ],
      "stateMutability": "view",
      "type": "function"
    },
    {
      "inputs": [
        {
          "internalType": "address",
          "name": "_owner",
          "type": "address"
        }
      ],
      "name": "accumulativeDividendOf",
      "outputs": [
        {
          "internalType": "uint256",
          "name": "",
          "type": "uint256"
        }
      ],
      "stateMutability": "view",
      "type": "function"
    },
    {
      "inputs": [],
      "name": "distributeDividends",
      "outputs": [],
      "stateMutability": "payable",
      "type": "function"
    },
    {
      "inputs": [
        {
          "internalType": "address",
          "name": "_hayqToken",
          "type": "address"
        }
      ],
      "name": "initialize",
      "outputs": [],
      "stateMutability": "nonpayable",
      "type": "function"
    },
    {
      "inputs": [],
      "name": "magnifiedDividendPerShare",
      "outputs": [
        {
          "internalType": "uint256",
          "name": "",
          "type": "uint256"
        }
      ],
      "stateMutability": "view",
      "type": "function"
    },
    {
      "inputs": [],
      "name": "owner",
      "outputs": [
        {
          "internalType": "address",
          "name": "",
          "type": "address"
        }
      ],
      "stateMutability": "view",
      "type": "function"
    },
    {
      "inputs": [],
      "name": "renounceOwnership",
      "outputs": [],
      "stateMutability": "nonpayable",
      "type": "function"
    },
    {
      "inputs": [],
      "name": "totalDividendsDistributed",
      "outputs": [
        {
          "internalType": "uint256",
          "name": "",
          "type": "uint256"
        }
      ],
      "stateMutability": "view",
      "type": "function"
    },
    {
      "inputs": [
        {
          "internalType": "address",
          "name": "newOwner",
          "type": "address"
        }
      ],
      "name": "transferOwnership",
      "outputs": [],
      "stateMutability": "nonpayable",
      "type": "function"
    },
    {
      "inputs": [],
      "name": "withdrawDividend",
      "outputs": [],
      "stateMutability": "nonpayable",
      "type": "function"
    },
    {
      "inputs": [
        {
          "internalType": "address",
          "name": "_owner",
          "type": "address"
        }
      ],
      "name": "withdrawableDividendOf",
      "outputs": [
        {
          "internalType": "uint256",
          "name": "",
          "type": "uint256"
        }
      ],
      "stateMutability": "view",
      "type": "function"
    },
    {
      "inputs": [
        {
          "internalType": "address",
          "name": "",
          "type": "address"
        }
      ],
      "name": "withdrawnDividends",
      "outputs": [
        {
          "internalType": "uint256",
          "name": "",
          "type": "uint256"
        }
      ],
      "stateMutability": "view",
      "type": "function"
    },
    {
      "stateMutability": "payable",
      "type": "receive"
    }
  ],
  "bytecode": "0x6080604052348015600f57600080fd5b50610a598061001f6000396000f3fe6080604052600436106100ab5760003560e01c80638da5cb5b116100645780638da5cb5b14610150578063936355f514610182578063a8b9d240146101a2578063c4d66de8146101c2578063de3aaf61146101e2578063f2fde38b1461020f57600080fd5b806303c83302146100bf57806327ce0147146100c75780633a7960e0146100fa5780636a47400214610110578063715018a61461012557806385a6b3ae1461013a57600080fd5b366100ba576100b861022f565b005b600080fd5b6100b861022f565b3480156100d357600080fd5b506100e76100e236600461091a565b6103a5565b6040519081526020015b60405180910390f35b34801561010657600080fd5b506100e7609a5481565b34801561011c57600080fd5b506100b8610438565b34801561013157600080fd5b506100b861051f565b34801561014657600080fd5b506100e760995481565b34801561015c57600080fd5b506033546001600160a01b03165b6040516001600160a01b0390911681526020016100f1565b34801561018e57600080fd5b5060975461016a906001600160a01b031681565b3480156101ae57600080fd5b506100e76101bd36600461091a565b610531565b3480156101ce57600080fd5b506100b86101dd36600461091a565b61055d565b3480156101ee57600080fd5b506100e76101fd36600461091a565b60986020526000908152604090205481565b34801561021b57600080fd5b506100b861022a36600461091a565b6106e0565b600034116102725760405162461bcd60e51b815260206004820152600b60248201526a139bc8115512081cd95b9d60aa1b60448201526064015b60405180910390fd5b609754604080516318160ddd60e01b815290516000926001600160a01b0316916318160ddd9160048083019260209291908290030181865afa1580156102bc573d6000803e3d6000fd5b505050506040513d601f19601f820116820180604052508101906102e0919061094a565b9050600081116103255760405162461bcd60e51b815260206004820152601060248201526f139bc81d1bdad95b9cc81b5a5b9d195960821b6044820152606401610269565b80610334600160801b34610979565b61033e9190610990565b609a600082825461034f91906109b2565b92505081905550346099600082825461036891906109b2565b909155505060405134815233907fa493a9229478c3fcd73f66d2cdeb7f94fd0f341da924d1054236d784541165119060200160405180910390a250565b6097546040516370a0823160e01b81526001600160a01b038381166004830152600092600160801b929116906370a0823190602401602060405180830381865afa1580156103f7573d6000803e3d6000fd5b505050506040513d601f19601f8201168201806040525081019061041b919061094a565b609a546104289190610979565b6104329190610990565b92915050565b610440610759565b600061044b33610531565b90506000811161048b5760405162461bcd60e51b815260206004820152600b60248201526a139bc8191a5d9a59195b9960aa1b6044820152606401610269565b33600090815260986020526040812080548392906104aa9084906109b2565b9091555050604051339082156108fc029083906000818181858888f193505050501580156104dc573d6000803e3d6000fd5b5060405181815233907fee503bee2bb6a87e57bc57db795f98137327401a0e7b7ce42e37926cc1a9ca4d9060200160405180910390a25061051d6001606555565b565b6105276107b9565b61051d6000610813565b6001600160a01b038116600090815260986020526040812054610553836103a5565b61043291906109c5565b600054610100900460ff161580801561057d5750600054600160ff909116105b806105975750303b158015610597575060005460ff166001145b6105fa5760405162461bcd60e51b815260206004820152602e60248201527f496e697469616c697a61626c653a20636f6e747261637420697320616c72656160448201526d191e481a5b9a5d1a585b1a5e995960921b6064820152608401610269565b6000805460ff19166001179055801561061d576000805461ff0019166101001790555b610625610865565b61062d610894565b6001600160a01b03821661067b5760405162461bcd60e51b8152602060048201526015602482015274496e76616c696420746f6b656e206164647265737360581b6044820152606401610269565b609780546001600160a01b0319166001600160a01b03841617905580156106dc576000805461ff0019169055604051600181527f7f26b83ff96e1f2b6a682f133852f6798a09c465da95921460cefb38474024989060200160405180910390a15b5050565b6106e86107b9565b6001600160a01b03811661074d5760405162461bcd60e51b815260206004820152602660248201527f4f776e61626c653a206e6577206f776e657220697320746865207a65726f206160448201526564647265737360d01b6064820152608401610269565b61075681610813565b50565b6002606554036107ab5760405162461bcd60e51b815260206004820152601f60248201527f5265656e7472616e637947756172643a207265656e7472616e742063616c6c006044820152606401610269565b6002606555565b6001606555565b6033546001600160a01b0316331461051d5760405162461bcd60e51b815260206004820181905260248201527f4f776e61626c653a2063616c6c6572206973206e6f7420746865206f776e65726044820152606401610269565b603380546001600160a01b038381166001600160a01b0319831681179093556040519116919082907f8be0079c531659141344cd1fd0a4f28419497f9722a3daafe3b4186f6b6457e090600090a35050565b600054610100900460ff1661088c5760405162461bcd60e51b8152600401610269906109d8565b61051d6108c3565b600054610100900460ff166108bb5760405162461bcd60e51b8152600401610269906109d8565b61051d6108f3565b600054610100900460ff166108ea5760405162461bcd60e51b8152600401610269906109d8565b61051d33610813565b600054610100900460ff166107b25760405162461bcd60e51b8152600401610269906109d8565b60006020828403121561092c57600080fd5b81356001600160a01b038116811461094357600080fd5b9392505050565b60006020828403121561095c57600080fd5b5051919050565b634e487b7160e01b600052601160045260246000fd5b808202811582820484141761043257610432610963565b6000826109ad57634e487b7160e01b600052601260045260246000fd5b500490565b8082018082111561043257610432610963565b8181038181111561043257610432610963565b6020808252602b908201527f496e697469616c697a61626c653a20636f6e7472616374206973206e6f74206960408201526a6e697469616c697a696e6760a81b60608201526080019056fea2646970667358221220b2c6676a08088e9b3d265b9ca1e0e2d8eae5762058337b2c1b2dc6e681fc4f2f64736f6c634300081d0033",
  "linkReferences": {},
  "deployedLinkReferences": {}
}