{
  "_format": "hh-sol-artifact-1",
  "contractName": "MultiSigTimelockUpgradeable",
  "sourceName": "contracts/MultiSigTimelockUpgradeable.sol",
  "abi": [
    {
      "inputs": [],
      "stateMutability": "nonpayable",
      "type": "constructor"
    },
    {
      "anonymous": false,
      "inputs": [
        {
          "indexed": true,
          "internalType": "address",
          "name": "owner",
          "type": "address"
        },
        {
          "indexed": true,
          "internalType": "uint256",
          "name": "txId",
          "type": "uint256"
        }
      ],
      "name": "Confirm",
      "type": "event"
    },
    {
      "anonymous": false,
      "inputs": [
        {
          "indexed": true,
          "internalType": "uint256",
          "name": "txId",
          "type": "uint256"
        }
      ],
      "name": "Execute",
      "type": "event"
    },
    {
      "anonymous": false,
      "inputs": [
        {
          "indexed": false,
          "internalType": "uint8",
          "name": "version",
          "type": "uint8"
        }
      ],
      "name": "Initialized",
      "type": "event"
    },
    {
      "anonymous": false,
      "inputs": [
        {
          "indexed": true,
          "internalType": "address",
          "name": "previousOwner",
          "type": "address"
        },
        {
          "indexed": true,
          "internalType": "address",
          "name": "newOwner",
          "type": "address"
        }
      ],
      "name": "OwnershipTransferred",
      "type": "event"
    },
    {
      "anonymous": false,
      "inputs": [
        {
          "indexed": true,
          "internalType": "uint256",
          "name": "txId",
          "type": "uint256"
        },
        {
          "indexed": true,
          "internalType": "address",
          "name": "target",
          "type": "address"
        },
        {
          "indexed": false,
          "internalType": "uint256",
          "name": "value",
          "type": "uint256"
        },
        {
          "indexed": false,
          "internalType": "bytes",
          "name": "data",
          "type": "bytes"
        },
        {
          "indexed": false,
          "internalType": "uint256",
          "name": "eta",
          "type": "uint256"
        }
      ],
      "name": "Submit",
      "type": "event"
    },
    {
      "inputs": [],
      "name": "MIN_DELAY",
      "outputs": [
        {
          "internalType": "uint256",
          "name": "",
          "type": "uint256"
        }
      ],
      "stateMutability": "view",
      "type": "function"
    },
    {
      "inputs": [
        {
          "internalType": "uint256",
          "name": "txId",
          "type": "uint256"
        }
      ],
      "name": "confirm",
      "outputs": [],
      "stateMutability": "nonpayable",
      "type": "function"
    },
    {
      "inputs": [
        {
          "internalType": "uint256",
          "name": "",
          "type": "uint256"
        },
        {
          "internalType": "address",
          "name": "",
          "type": "address"
        }
      ],
      "name": "confirmations",
      "outputs": [
        {
          "internalType": "bool",
          "name": "",
          "type": "bool"
        }
      ],
      "stateMutability": "view",
      "type": "function"
    },
    {
      "inputs": [
        {
          "internalType": "uint256",
          "name": "txId",
          "type": "uint256"
        }
      ],
      "name": "execute",
      "outputs": [],
      "stateMutability": "nonpayable",
      "type": "function"
    },
    {
      "inputs": [
        {
          "internalType": "address[]",
          "name": "_owners",
          "type": "address[]"
        },
        {
          "internalType": "uint256",
          "name": "_required",
          "type": "uint256"
        }
      ],
      "name": "initialize",
      "outputs": [],
      "stateMutability": "nonpayable",
      "type": "function"
    },
    {
      "inputs": [
        {
          "internalType": "address",
          "name": "",
          "type": "address"
        }
      ],
      "name": "isOwner",
      "outputs": [
        {
          "internalType": "bool",
          "name": "",
          "type": "bool"
        }
      ],
      "stateMutability": "view",
      "type": "function"
    },
    {
      "inputs": [],
      "name": "owner",
      "outputs": [
        {
          "internalType": "address",
          "name": "",
          "type": "address"
        }
      ],
      "stateMutability": "view",
      "type": "function"
    },
    {
      "inputs": [
        {
          "internalType": "uint256",
          "name": "",
          "type": "uint256"
        }
      ],
      "name": "owners",
      "outputs": [
        {
          "internalType": "address",
          "name": "",
          "type": "address"
        }
      ],
      "stateMutability": "view",
      "type": "function"
    },
    {
      "inputs": [],
      "name": "renounceOwnership",
      "outputs": [],
      "stateMutability": "nonpayable",
      "type": "function"
    },
    {
      "inputs": [],
      "name": "requiredConfirmations",
      "outputs": [
        {
          "internalType": "uint256",
          "name": "",
          "type": "uint256"
        }
      ],
      "stateMutability": "view",
      "type": "function"
    },
    {
      "inputs": [
        {
          "internalType": "address",
          "name": "target",
          "type": "address"
        },
        {
          "internalType": "uint256",
          "name": "value",
          "type": "uint256"
        },
        {
          "internalType": "bytes",
          "name": "data",
          "type": "bytes"
        }
      ],
      "name": "submit",
      "outputs": [],
      "stateMutability": "nonpayable",
      "type": "function"
    },
    {
      "inputs": [
        {
          "internalType": "uint256",
          "name": "",
          "type": "uint256"
        }
      ],
      "name": "transactions",
      "outputs": [
        {
          "internalType": "address",
          "name": "target",
          "type": "address"
        },
        {
          "internalType": "uint256",
          "name": "value",
          "type": "uint256"
        },
        {
          "internalType": "bytes",
          "name": "data",
          "type": "bytes"
        },
        {
          "internalType": "uint256",
          "name": "eta",
          "type": "uint256"
        },
        {
          "internalType": "uint256",
          "name": "confirmations",
          "type": "uint256"
        },
        {
          "internalType": "bool",
          "name": "executed",
          "type": "bool"
        }
      ],
      "stateMutability": "view",
      "type": "function"
    },
    {
      "inputs": [
        {
          "internalType": "address",
          "name": "newOwner",
          "type": "address"
        }
      ],
      "name": "transferOwnership",
      "outputs": [],
      "stateMutability": "nonpayable",
      "type": "function"
    },
    {
      "stateMutability": "payable",
      "type": "receive"
    }
  ],
  "bytecode": "0x6080604052348015600f57600080fd5b506016601a565b60d7565b600054610100900460ff161560855760405162461bcd60e51b815260206004820152602760248201527f496e697469616c697a61626c653a20636f6e747261637420697320696e697469604482015266616c697a696e6760c81b606482015260840160405180910390fd5b60005460ff9081161460d5576000805460ff191660ff9081179091556040519081527f7f26b83ff96e1f2b6a682f133852f6798a09c465da95921460cefb38474024989060200160405180910390a15b565b611403806100e66000396000f3fe6080604052600436106100c65760003560e01c806382e717f71161007f5780639f81aed7116100595780639f81aed714610255578063ba0179b51461026a578063f2fde38b1461028a578063fe0d94c1146102aa57600080fd5b806382e717f7146101e15780638da5cb5b146102055780639ace38c21461022357600080fd5b8063025e7c27146100d257806314de327f1461010f5780632f54bf6e146101315780633411c81c1461017157806360b5bb3f146101ac578063715018a6146101cc57600080fd5b366100cd57005b600080fd5b3480156100de57600080fd5b506100f26100ed366004610e5b565b6102ca565b6040516001600160a01b0390911681526020015b60405180910390f35b34801561011b57600080fd5b5061012f61012a366004610ed7565b6102f4565b005b34801561013d57600080fd5b5061016161014c366004610f8b565b60996020526000908152604090205460ff1681565b6040519015158152602001610106565b34801561017d57600080fd5b5061016161018c366004610fad565b609b60209081526000928352604080842090915290825290205460ff1681565b3480156101b857600080fd5b5061012f6101c7366004610fd9565b6104a2565b3480156101d857600080fd5b5061012f610750565b3480156101ed57600080fd5b506101f760975481565b604051908152602001610106565b34801561021157600080fd5b506033546001600160a01b03166100f2565b34801561022f57600080fd5b5061024361023e366004610e5b565b610764565b604051610106969594939291906110db565b34801561026157600080fd5b506101f7600081565b34801561027657600080fd5b5061012f610285366004610e5b565b610844565b34801561029657600080fd5b5061012f6102a5366004610f8b565b6109a6565b3480156102b657600080fd5b5061012f6102c5366004610e5b565b610a1f565b609881815481106102da57600080fd5b6000918252602090912001546001600160a01b0316905081565b3360009081526099602052604090205460ff1661032c5760405162461bcd60e51b815260040161032390611122565b60405180910390fd5b6000610338814261115b565b6040805160c0810182526001600160a01b038781168252602082018781529282018681526060830185905260006080840181905260a08401819052609a8054600181018255915283517f44da158ba27f9252712a74ff6a55c5d531f69609f1f6e7f17c4443a8e2089be4600690920291820180546001600160a01b0319169190941617835593517f44da158ba27f9252712a74ff6a55c5d531f69609f1f6e7f17c4443a8e2089be585015551939450909290917f44da158ba27f9252712a74ff6a55c5d531f69609f1f6e7f17c4443a8e2089be6019061041890826111fc565b50606082015160038201556080820151600482015560a0909101516005909101805460ff1916911515919091179055609a546001600160a01b03851690610461906001906112bb565b7ff83ec3140d6d4986218bb869ea5e9882b6146c293b97e09a49e4df6ec67d6344858585604051610494939291906112ce565b60405180910390a350505050565b600054610100900460ff16158080156104c25750600054600160ff909116105b806104dc5750303b1580156104dc575060005460ff166001145b61053f5760405162461bcd60e51b815260206004820152602e60248201527f496e697469616c697a61626c653a20636f6e747261637420697320616c72656160448201526d191e481a5b9a5d1a585b1a5e995960921b6064820152608401610323565b6000805460ff191660011790558015610562576000805461ff0019166101001790555b61056a610c9a565b610572610cc9565b818351101580156105835750600082115b6105bf5760405162461bcd60e51b815260206004820152600d60248201526c0496e76616c696420736574757609c1b6044820152606401610323565b60005b83518110156106ff5760008482815181106105df576105df6112f7565b6020026020010151905060006001600160a01b0316816001600160a01b0316036106385760405162461bcd60e51b815260206004820152600a6024820152692d32b9379037bbb732b960b11b6044820152606401610323565b6001600160a01b03811660009081526099602052604090205460ff16156106935760405162461bcd60e51b815260206004820152600f60248201526e223ab83634b1b0ba329037bbb732b960891b6044820152606401610323565b6001600160a01b03166000818152609960205260408120805460ff1916600190811790915560988054808301825592527f2237a976fa961f5921fd19f2b03c925c725d77b20ce8f790c19709c03de4d81490910180546001600160a01b031916909217909155016105c2565b506097829055801561074b576000805461ff0019169055604051600181527f7f26b83ff96e1f2b6a682f133852f6798a09c465da95921460cefb38474024989060200160405180910390a15b505050565b610758610cf8565b6107626000610d52565b565b609a818154811061077457600080fd5b60009182526020909120600690910201805460018201546002830180546001600160a01b0390931694509092916107aa90611174565b80601f01602080910402602001604051908101604052809291908181526020018280546107d690611174565b80156108235780601f106107f857610100808354040283529160200191610823565b820191906000526020600020905b81548152906001019060200180831161080657829003601f168201915b50505050600383015460048401546005909401549293909290915060ff1686565b3360009081526099602052604090205460ff166108735760405162461bcd60e51b815260040161032390611122565b609a5481106108b85760405162461bcd60e51b8152602060048201526011602482015270151e08191bd95cc81b9bdd08195e1a5cdd607a1b6044820152606401610323565b6000818152609b6020908152604080832033845290915290205460ff16156109165760405162461bcd60e51b8152602060048201526011602482015270105b1c9958591e4818dbdb999a5c9b5959607a1b6044820152606401610323565b6000818152609b602090815260408083203384529091529020805460ff19166001908117909155609a805483908110610951576109516112f7565b90600052602060002090600602016004016000828254610971919061115b565b9091555050604051819033907fbde73c39e691e6143456e01935275fd9f654dacca25911f03ab0d587644377eb90600090a350565b6109ae610cf8565b6001600160a01b038116610a135760405162461bcd60e51b815260206004820152602660248201527f4f776e61626c653a206e6577206f776e657220697320746865207a65726f206160448201526564647265737360d01b6064820152608401610323565b610a1c81610d52565b50565b610a27610da4565b3360009081526099602052604090205460ff16610a565760405162461bcd60e51b815260040161032390611122565b609a548110610a9b5760405162461bcd60e51b8152602060048201526011602482015270151e08191bd95cc81b9bdd08195e1a5cdd607a1b6044820152606401610323565b6000609a8281548110610ab057610ab06112f7565b906000526020600020906006020190508060030154421015610b0a5760405162461bcd60e51b8152602060048201526013602482015272151a5b595b1bd8dac81b9bdd081c185cdcd959606a1b6044820152606401610323565b600581015460ff1615610b525760405162461bcd60e51b815260206004820152601060248201526f105b1c9958591e48195e1958dd5d195960821b6044820152606401610323565b60975481600401541015610ba85760405162461bcd60e51b815260206004820152601860248201527f4e6f7420656e6f75676820636f6e6669726d6174696f6e7300000000000000006044820152606401610323565b805460018201546040516000926001600160a01b03169190610bce90600286019061130d565b60006040518083038185875af1925050503d8060008114610c0b576040519150601f19603f3d011682016040523d82523d6000602084013e610c10565b606091505b5050905080610c545760405162461bcd60e51b815260206004820152601060248201526f115e1958dd5d1a5bdb8819985a5b195960821b6044820152606401610323565b60058201805460ff1916600117905560405183907fddb556f1d2c1ec821e910b019d3685b229db152a0ecd517ca7e24b8bd713928990600090a25050610a1c6001606555565b600054610100900460ff16610cc15760405162461bcd60e51b815260040161032390611382565b610762610e04565b600054610100900460ff16610cf05760405162461bcd60e51b815260040161032390611382565b610762610e34565b6033546001600160a01b031633146107625760405162461bcd60e51b815260206004820181905260248201527f4f776e61626c653a2063616c6c6572206973206e6f7420746865206f776e65726044820152606401610323565b603380546001600160a01b038381166001600160a01b0319831681179093556040519116919082907f8be0079c531659141344cd1fd0a4f28419497f9722a3daafe3b4186f6b6457e090600090a35050565b600260655403610df65760405162461bcd60e51b815260206004820152601f60248201527f5265656e7472616e637947756172643a207265656e7472616e742063616c6c006044820152606401610323565b6002606555565b6001606555565b600054610100900460ff16610e2b5760405162461bcd60e51b815260040161032390611382565b61076233610d52565b600054610100900460ff16610dfd5760405162461bcd60e51b815260040161032390611382565b600060208284031215610e6d57600080fd5b5035919050565b80356001600160a01b0381168114610e8b57600080fd5b919050565b634e487b7160e01b600052604160045260246000fd5b604051601f8201601f1916810167ffffffffffffffff81118282101715610ecf57610ecf610e90565b604052919050565b600080600060608486031215610eec57600080fd5b610ef584610e74565b925060208401359150604084013567ffffffffffffffff811115610f1857600080fd5b8401601f81018613610f2957600080fd5b803567ffffffffffffffff811115610f4357610f43610e90565b610f56601f8201601f1916602001610ea6565b818152876020838501011115610f6b57600080fd5b816020840160208301376000602083830101528093505050509250925092565b600060208284031215610f9d57600080fd5b610fa682610e74565b9392505050565b60008060408385031215610fc057600080fd5b82359150610fd060208401610e74565b90509250929050565b60008060408385031215610fec57600080fd5b823567ffffffffffffffff81111561100357600080fd5b8301601f8101851361101457600080fd5b803567ffffffffffffffff81111561102e5761102e610e90565b8060051b61103e60208201610ea6565b9182526020818401810192908101908884111561105a57600080fd5b6020850194505b838510156110835761107285610e74565b825260209485019490910190611061565b98602097909701359750505050505050565b6000815180845260005b818110156110bb5760208185018101518683018201520161109f565b506000602082860101526020601f19601f83011685010191505092915050565b60018060a01b038716815285602082015260c06040820152600061110260c0830187611095565b6060830195909552506080810192909252151560a0909101529392505050565b6020808252600990820152682737ba1037bbb732b960b91b604082015260600190565b634e487b7160e01b600052601160045260246000fd5b8082018082111561116e5761116e611145565b92915050565b600181811c9082168061118857607f821691505b6020821081036111a857634e487b7160e01b600052602260045260246000fd5b50919050565b601f82111561074b57806000526020600020601f840160051c810160208510156111d55750805b601f840160051c820191505b818110156111f557600081556001016111e1565b5050505050565b815167ffffffffffffffff81111561121657611216610e90565b61122a816112248454611174565b846111ae565b6020601f82116001811461125e57600083156112465750848201515b600019600385901b1c1916600184901b1784556111f5565b600084815260208120601f198516915b8281101561128e578785015182556020948501946001909201910161126e565b50848210156112ac5786840151600019600387901b60f8161c191681555b50505050600190811b01905550565b8181038181111561116e5761116e611145565b8381526060602082015260006112e76060830185611095565b9050826040830152949350505050565b634e487b7160e01b600052603260045260246000fd5b600080835461131b81611174565b600182168015611332576001811461134757611377565b60ff1983168652811515820286019350611377565b86600052602060002060005b8381101561136f57815488820152600190910190602001611353565b505081860193505b509195945050505050565b6020808252602b908201527f496e697469616c697a61626c653a20636f6e7472616374206973206e6f74206960408201526a6e697469616c697a696e6760a81b60608201526080019056fea2646970667358221220d0f2b5a4de2b432a98650147c38244d315c79e8e0713402c0029c80cb1f4438d64736f6c634300081d0033",
  "linkReferences": {},
  "deployedLinkReferences": {}
}