{
  "_format": "hh-sol-artifact-1",
  "contractName": "MockRouter",
  "sourceName": "contracts/MockRouter.sol",
  "abi": [
    {
      "anonymous": false,
      "inputs": [
        {
          "indexed": true,
          "internalType": "address",
          "name": "fromToken",
          "type": "address"
        },
        {
          "indexed": true,
          "internalType": "address",
          "name": "toToken",
          "type": "address"
        },
        {
          "indexed": false,
          "internalType": "uint256",
          "name": "amountIn",
          "type": "uint256"
        },
        {
          "indexed": false,
          "internalType": "uint256",
          "name": "amountOutMin",
          "type": "uint256"
        },
        {
          "indexed": false,
          "internalType": "address",
          "name": "to",
          "type": "address"
        }
      ],
      "name": "SwapExecuted",
      "type": "event"
    },
    {
      "inputs": [
        {
          "internalType": "uint256",
          "name": "amountIn",
          "type": "uint256"
        },
        {
          "internalType": "uint256",
          "name": "amountOutMin",
          "type": "uint256"
        },
        {
          "internalType": "address[]",
          "name": "path",
          "type": "address[]"
        },
        {
          "internalType": "address",
          "name": "to",
          "type": "address"
        },
        {
          "internalType": "uint256",
          "name": "deadline",
          "type": "uint256"
        }
      ],
      "name": "swapExactTokensForTokensSupportingFeeOnTransferTokens",
      "outputs": [],
      "stateMutability": "nonpayable",
      "type": "function"
    }
  ],
  "bytecode": "0x6080604052348015600f57600080fd5b506104828061001f6000396000f3fe608060405234801561001057600080fd5b506004361061002b5760003560e01c80635c11d79514610030575b600080fd5b61004361003e36600461034c565b610045565b005b804211156100905760405162461bcd60e51b8152602060048201526013602482015272135bd8dad49bdd5d195c8e8811561412549151606a1b60448201526064015b60405180910390fd5b60028310156100e15760405162461bcd60e51b815260206004820152601860248201527f4d6f636b526f757465723a20494e56414c49445f5041544800000000000000006044820152606401610087565b6001600160a01b0382166101305760405162461bcd60e51b81526020600482015260166024820152754d6f636b526f757465723a20494e56414c49445f544f60501b6044820152606401610087565b600084846000818110610145576101456103f2565b905060200201602081019061015a9190610408565b9050600085856001818110610171576101716103f2565b90506020020160208101906101869190610408565b905087878110156101e85760405162461bcd60e51b815260206004820152602660248201527f4d6f636b526f757465723a20494e53554646494349454e545f4f55545055545f604482015265105353d5539560d21b6064820152608401610087565b6040516323b872dd60e01b8152336004820152306024820152604481018a90526001600160a01b038416906323b872dd906064016020604051808303816000875af115801561023b573d6000803e3d6000fd5b505050506040513d601f19601f8201168201806040525081019061025f919061042a565b5060405163a9059cbb60e01b81526001600160a01b0386811660048301526024820183905283169063a9059cbb906044016020604051808303816000875af11580156102af573d6000803e3d6000fd5b505050506040513d601f19601f820116820180604052508101906102d3919061042a565b50604080518a8152602081018a90526001600160a01b03878116828401529151848316928616917fee4825a7988c5519a874be79f2a84d13d02cfe5f74cad97cda2d5b55d2b13bfa919081900360600190a3505050505050505050565b80356001600160a01b038116811461034757600080fd5b919050565b60008060008060008060a0878903121561036557600080fd5b8635955060208701359450604087013567ffffffffffffffff81111561038a57600080fd5b8701601f8101891361039b57600080fd5b803567ffffffffffffffff8111156103b257600080fd5b8960208260051b84010111156103c757600080fd5b602091909101945092506103dd60608801610330565b95989497509295919493608090920135925050565b634e487b7160e01b600052603260045260246000fd5b60006020828403121561041a57600080fd5b61042382610330565b9392505050565b60006020828403121561043c57600080fd5b8151801515811461042357600080fdfea26469706673582212209b5ae28a191c1afd730bd929f1d6eb6ae7a270f37d584c2f477f776754ba6f9564736f6c634300081d0033",
  "linkReferences": {},
  "deployedLinkReferences": {}
}