{
  "_format": "hh-sol-artifact-1",
  "contractName": "Erc20DividendTrackerUpgradeable",
  "sourceName": "contracts/Erc20DividendTrackerUpgradeable.sol",
  "abi": [
    {
      "anonymous": false,
      "inputs": [
        {
          "indexed": true,
          "internalType": "address",
          "name": "to",
          "type": "address"
        },
        {
          "indexed": false,
          "internalType": "uint256",
          "name": "tokens",
          "type": "uint256"
        }
      ],
      "name": "DividendWithdrawn",
      "type": "event"
    },
    {
      "anonymous": false,
      "inputs": [
        {
          "indexed": true,
          "internalType": "address",
          "name": "from",
          "type": "address"
        },
        {
          "indexed": false,
          "internalType": "uint256",
          "name": "tokens",
          "type": "uint256"
        }
      ],
      "name": "DividendsDistributed",
      "type": "event"
    },
    {
      "anonymous": false,
      "inputs": [
        {
          "indexed": false,
          "internalType": "uint8",
          "name": "version",
          "type": "uint8"
        }
      ],
      "name": "Initialized",
      "type": "event"
    },
    {
      "anonymous": false,
      "inputs": [
        {
          "indexed": true,
          "internalType": "address",
          "name": "previousOwner",
          "type": "address"
        },
        {
          "indexed": true,
          "internalType": "address",
          "name": "newOwner",
          "type": "address"
        }
      ],
      "name": "OwnershipTransferred",
      "type": "event"
    },
    {
      "inputs": [],
      "name": "HAYQToken",
      "outputs": [
        {
          "internalType": "contract IERC20MetadataUpgradeable",
          "name": "",
          "type": "address"
        }
      ],
      "stateMutability": "view",
      "type": "function"
    },
    {
      "inputs": [
        {
          "internalType": "address",
          "name": "_owner",
          "type": "address"
        }
      ],
      "name": "accumulativeDividendOf",
      "outputs": [
        {
          "internalType": "uint256",
          "name": "",
          "type": "uint256"
        }
      ],
      "stateMutability": "view",
      "type": "function"
    },
    {
      "inputs": [
        {
          "internalType": "uint256",
          "name": "amount",
          "type": "uint256"
        }
      ],
      "name": "distributeDividends",
      "outputs": [],
      "stateMutability": "nonpayable",
      "type": "function"
    },
    {
      "inputs": [
        {
          "internalType": "address",
          "name": "_rewardToken",
          "type": "address"
        },
        {
          "internalType": "address",
          "name": "_hayqToken",
          "type": "address"
        }
      ],
      "name": "initialize",
      "outputs": [],
      "stateMutability": "nonpayable",
      "type": "function"
    },
    {
      "inputs": [],
      "name": "magnifiedDividendPerShare",
      "outputs": [
        {
          "internalType": "uint256",
          "name": "",
          "type": "uint256"
        }
      ],
      "stateMutability": "view",
      "type": "function"
    },
    {
      "inputs": [],
      "name": "owner",
      "outputs": [
        {
          "internalType": "address",
          "name": "",
          "type": "address"
        }
      ],
      "stateMutability": "view",
      "type": "function"
    },
    {
      "inputs": [],
      "name": "renounceOwnership",
      "outputs": [],
      "stateMutability": "nonpayable",
      "type": "function"
    },
    {
      "inputs": [],
      "name": "rewardToken",
      "outputs": [
        {
          "internalType": "contract IERC20Upgradeable",
          "name": "",
          "type": "address"
        }
      ],
      "stateMutability": "view",
      "type": "function"
    },
    {
      "inputs": [],
      "name": "totalDividendsDistributed",
      "outputs": [
        {
          "internalType": "uint256",
          "name": "",
          "type": "uint256"
        }
      ],
      "stateMutability": "view",
      "type": "function"
    },
    {
      "inputs": [
        {
          "internalType": "address",
          "name": "newOwner",
          "type": "address"
        }
      ],
      "name": "transferOwnership",
      "outputs": [],
      "stateMutability": "nonpayable",
      "type": "function"
    },
    {
      "inputs": [],
      "name": "withdrawDividend",
      "outputs": [],
      "stateMutability": "nonpayable",
      "type": "function"
    },
    {
      "inputs": [
        {
          "internalType": "address",
          "name": "_owner",
          "type": "address"
        }
      ],
      "name": "withdrawableDividendOf",
      "outputs": [
        {
          "internalType": "uint256",
          "name": "",
          "type": "uint256"
        }
      ],
      "stateMutability": "view",
      "type": "function"
    },
    {
      "inputs": [
        {
          "internalType": "address",
          "name": "",
          "type": "address"
        }
      ],
      "name": "withdrawnDividends",
      "outputs": [
        {
          "internalType": "uint256",
          "name": "",
          "type": "uint256"
        }
      ],
      "stateMutability": "view",
      "type": "function"
    }
  ],
  "bytecode": "0x6080604052348015600f57600080fd5b50610be18061001f6000396000f3fe608060405234801561001057600080fd5b50600436106100cf5760003560e01c806385a6b3ae1161008c578063a8b9d24011610066578063a8b9d2401461017c578063de3aaf611461018f578063f2fde38b146101af578063f7c618c1146101c257600080fd5b806385a6b3ae1461013b5780638da5cb5b14610144578063936355f51461016957600080fd5b806327ce0147146100d45780633243c791146100fa5780633a7960e01461010f578063485cc955146101185780636a4740021461012b578063715018a614610133575b600080fd5b6100e76100e2366004610a42565b6101d5565b6040519081526020015b60405180910390f35b61010d610108366004610a64565b610268565b005b6100e7609b5481565b61010d610126366004610a7d565b610499565b61010d610642565b61010d6107ae565b6100e7609a5481565b6033546001600160a01b03165b6040516001600160a01b0390911681526020016100f1565b609754610151906001600160a01b031681565b6100e761018a366004610a42565b6107c0565b6100e761019d366004610a42565b60996020526000908152604090205481565b61010d6101bd366004610a42565b6107ec565b609854610151906001600160a01b031681565b6097546040516370a0823160e01b81526001600160a01b038381166004830152600092600160801b929116906370a0823190602401602060405180830381865afa158015610227573d6000803e3d6000fd5b505050506040513d601f19601f8201168201806040525081019061024b9190610ab0565b609b546102589190610adf565b6102629190610af6565b92915050565b600081116102ae5760405162461bcd60e51b815260206004820152600e60248201526d139bc81d1bdad95b9cc81cd95b9d60921b60448201526064015b60405180910390fd5b6098546040516323b872dd60e01b8152336004820152306024820152604481018390526001600160a01b03909116906323b872dd906064016020604051808303816000875af1158015610305573d6000803e3d6000fd5b505050506040513d601f19601f820116820180604052508101906103299190610b18565b6103675760405162461bcd60e51b815260206004820152600f60248201526e151c985b9cd9995c8819985a5b1959608a1b60448201526064016102a5565b609754604080516318160ddd60e01b815290516000926001600160a01b0316916318160ddd9160048083019260209291908290030181865afa1580156103b1573d6000803e3d6000fd5b505050506040513d601f19601f820116820180604052508101906103d59190610ab0565b9050600081116104185760405162461bcd60e51b815260206004820152600e60248201526d139bc812105654481b5a5b9d195960921b60448201526064016102a5565b80610427600160801b84610adf565b6104319190610af6565b609b60008282546104429190610b3a565b9250508190555081609a600082825461045b9190610b3a565b909155505060405182815233907fa493a9229478c3fcd73f66d2cdeb7f94fd0f341da924d1054236d784541165119060200160405180910390a25050565b600054610100900460ff16158080156104b95750600054600160ff909116105b806104d35750303b1580156104d3575060005460ff166001145b6105365760405162461bcd60e51b815260206004820152602e60248201527f496e697469616c697a61626c653a20636f6e747261637420697320616c72656160448201526d191e481a5b9a5d1a585b1a5e995960921b60648201526084016102a5565b6000805460ff191660011790558015610559576000805461ff0019166101001790555b610561610865565b610569610894565b6001600160a01b0383161580159061058957506001600160a01b03821615155b6105c75760405162461bcd60e51b815260206004820152600f60248201526e496e76616c6964206164647265737360881b60448201526064016102a5565b609880546001600160a01b038086166001600160a01b0319928316179092556097805492851692909116919091179055801561063d576000805461ff0019169055604051600181527f7f26b83ff96e1f2b6a682f133852f6798a09c465da95921460cefb38474024989060200160405180910390a15b505050565b61064a6108c3565b6000610655336107c0565b9050600081116106955760405162461bcd60e51b815260206004820152600b60248201526a139bc8191a5d9a59195b9960aa1b60448201526064016102a5565b33600090815260996020526040812080548392906106b4908490610b3a565b909155505060985460405163a9059cbb60e01b8152336004820152602481018390526001600160a01b039091169063a9059cbb906044016020604051808303816000875af115801561070a573d6000803e3d6000fd5b505050506040513d601f19601f8201168201806040525081019061072e9190610b18565b61076c5760405162461bcd60e51b815260206004820152600f60248201526e151c985b9cd9995c8819985a5b1959608a1b60448201526064016102a5565b60405181815233907fee503bee2bb6a87e57bc57db795f98137327401a0e7b7ce42e37926cc1a9ca4d9060200160405180910390a2506107ac6001606555565b565b6107b6610923565b6107ac600061097d565b6001600160a01b0381166000908152609960205260408120546107e2836101d5565b6102629190610b4d565b6107f4610923565b6001600160a01b0381166108595760405162461bcd60e51b815260206004820152602660248201527f4f776e61626c653a206e6577206f776e657220697320746865207a65726f206160448201526564647265737360d01b60648201526084016102a5565b6108628161097d565b50565b600054610100900460ff1661088c5760405162461bcd60e51b81526004016102a590610b60565b6107ac6109cf565b600054610100900460ff166108bb5760405162461bcd60e51b81526004016102a590610b60565b6107ac6109ff565b6002606554036109155760405162461bcd60e51b815260206004820152601f60248201527f5265656e7472616e637947756172643a207265656e7472616e742063616c6c0060448201526064016102a5565b6002606555565b6001606555565b6033546001600160a01b031633146107ac5760405162461bcd60e51b815260206004820181905260248201527f4f776e61626c653a2063616c6c6572206973206e6f7420746865206f776e657260448201526064016102a5565b603380546001600160a01b038381166001600160a01b0319831681179093556040519116919082907f8be0079c531659141344cd1fd0a4f28419497f9722a3daafe3b4186f6b6457e090600090a35050565b600054610100900460ff166109f65760405162461bcd60e51b81526004016102a590610b60565b6107ac3361097d565b600054610100900460ff1661091c5760405162461bcd60e51b81526004016102a590610b60565b80356001600160a01b0381168114610a3d57600080fd5b919050565b600060208284031215610a5457600080fd5b610a5d82610a26565b9392505050565b600060208284031215610a7657600080fd5b5035919050565b60008060408385031215610a9057600080fd5b610a9983610a26565b9150610aa760208401610a26565b90509250929050565b600060208284031215610ac257600080fd5b5051919050565b634e487b7160e01b600052601160045260246000fd5b808202811582820484141761026257610262610ac9565b600082610b1357634e487b7160e01b600052601260045260246000fd5b500490565b600060208284031215610b2a57600080fd5b81518015158114610a5d57600080fd5b8082018082111561026257610262610ac9565b8181038181111561026257610262610ac9565b6020808252602b908201527f496e697469616c697a61626c653a20636f6e7472616374206973206e6f74206960408201526a6e697469616c697a696e6760a81b60608201526080019056fea26469706673582212200b87d5132bf84eb52fef0352c0b2f17d3da0148fd6e43ce0de0156cc9d09349f64736f6c634300081d0033",
  "linkReferences": {},
  "deployedLinkReferences": {}
}