{
  "_format": "hh-sol-artifact-1",
  "contractName": "RegistryUpgradeable",
  "sourceName": "contracts/RegistryUpgradeable.sol",
  "abi": [
    {
      "anonymous": false,
      "inputs": [
        {
          "indexed": false,
          "internalType": "uint8",
          "name": "version",
          "type": "uint8"
        }
      ],
      "name": "Initialized",
      "type": "event"
    },
    {
      "anonymous": false,
      "inputs": [
        {
          "indexed": true,
          "internalType": "bytes32",
          "name": "key",
          "type": "bytes32"
        },
        {
          "indexed": true,
          "internalType": "address",
          "name": "module",
          "type": "address"
        }
      ],
      "name": "ModuleRegistered",
      "type": "event"
    },
    {
      "anonymous": false,
      "inputs": [
        {
          "indexed": true,
          "internalType": "bytes32",
          "name": "key",
          "type": "bytes32"
        },
        {
          "indexed": true,
          "internalType": "address",
          "name": "oldModule",
          "type": "address"
        },
        {
          "indexed": true,
          "internalType": "address",
          "name": "newModule",
          "type": "address"
        }
      ],
      "name": "ModuleUpdated",
      "type": "event"
    },
    {
      "anonymous": false,
      "inputs": [
        {
          "indexed": true,
          "internalType": "address",
          "name": "previousOwner",
          "type": "address"
        },
        {
          "indexed": true,
          "internalType": "address",
          "name": "newOwner",
          "type": "address"
        }
      ],
      "name": "OwnershipTransferred",
      "type": "event"
    },
    {
      "inputs": [],
      "name": "getAllModules",
      "outputs": [
        {
          "internalType": "bytes32[]",
          "name": "keys",
          "type": "bytes32[]"
        },
        {
          "internalType": "address[]",
          "name": "addrs",
          "type": "address[]"
        }
      ],
      "stateMutability": "view",
      "type": "function"
    },
    {
      "inputs": [
        {
          "internalType": "bytes32",
          "name": "key",
          "type": "bytes32"
        }
      ],
      "name": "getModule",
      "outputs": [
        {
          "internalType": "address",
          "name": "",
          "type": "address"
        }
      ],
      "stateMutability": "view",
      "type": "function"
    },
    {
      "inputs": [],
      "name": "initialize",
      "outputs": [],
      "stateMutability": "nonpayable",
      "type": "function"
    },
    {
      "inputs": [
        {
          "internalType": "uint256",
          "name": "",
          "type": "uint256"
        }
      ],
      "name": "moduleKeys",
      "outputs": [
        {
          "internalType": "bytes32",
          "name": "",
          "type": "bytes32"
        }
      ],
      "stateMutability": "view",
      "type": "function"
    },
    {
      "inputs": [],
      "name": "owner",
      "outputs": [
        {
          "internalType": "address",
          "name": "",
          "type": "address"
        }
      ],
      "stateMutability": "view",
      "type": "function"
    },
    {
      "inputs": [
        {
          "internalType": "bytes32",
          "name": "key",
          "type": "bytes32"
        },
        {
          "internalType": "address",
          "name": "module",
          "type": "address"
        }
      ],
      "name": "registerModule",
      "outputs": [],
      "stateMutability": "nonpayable",
      "type": "function"
    },
    {
      "inputs": [],
      "name": "renounceOwnership",
      "outputs": [],
      "stateMutability": "nonpayable",
      "type": "function"
    },
    {
      "inputs": [
        {
          "internalType": "address",
          "name": "newOwner",
          "type": "address"
        }
      ],
      "name": "transferOwnership",
      "outputs": [],
      "stateMutability": "nonpayable",
      "type": "function"
    },
    {
      "inputs": [
        {
          "internalType": "bytes32",
          "name": "key",
          "type": "bytes32"
        },
        {
          "internalType": "address",
          "name": "newModule",
          "type": "address"
        }
      ],
      "name": "updateModule",
      "outputs": [],
      "stateMutability": "nonpayable",
      "type": "function"
    }
  ],
  "bytecode": "0x6080604052348015600f57600080fd5b5061096e8061001f6000396000f3fe608060405234801561001057600080fd5b50600436106100935760003560e01c8063a78e922b11610066578063a78e922b14610101578063c097b1fb14610114578063c139813714610127578063d93194f11461013d578063f2fde38b1461015e57600080fd5b8063715018a6146100985780638129fc1c146100a257806385acd641146100aa5780638da5cb5b146100f0575b600080fd5b6100a0610171565b005b6100a0610185565b6100d36100b83660046107b3565b6000908152606560205260409020546001600160a01b031690565b6040516001600160a01b0390911681526020015b60405180910390f35b6033546001600160a01b03166100d3565b6100a061010f3660046107e8565b61029b565b6100a06101223660046107e8565b6103e2565b61012f6104ef565b6040516100e7929190610814565b61015061014b3660046107b3565b610616565b6040519081526020016100e7565b6100a061016c36600461089f565b610637565b6101796106ad565b6101836000610707565b565b600054610100900460ff16158080156101a55750600054600160ff909116105b806101bf5750303b1580156101bf575060005460ff166001145b6102275760405162461bcd60e51b815260206004820152602e60248201527f496e697469616c697a61626c653a20636f6e747261637420697320616c72656160448201526d191e481a5b9a5d1a585b1a5e995960921b60648201526084015b60405180910390fd5b6000805460ff19166001179055801561024a576000805461ff0019166101001790555b610252610759565b8015610298576000805461ff0019169055604051600181527f7f26b83ff96e1f2b6a682f133852f6798a09c465da95921460cefb38474024989060200160405180910390a15b50565b6102a36106ad565b6001600160a01b0381166102f25760405162461bcd60e51b8152602060048201526016602482015275496e76616c6964206d6f64756c65206164647265737360501b604482015260640161021e565b6000828152606560205260409020546001600160a01b0316156103575760405162461bcd60e51b815260206004820152601960248201527f4d6f64756c6520616c7265616479207265676973746572656400000000000000604482015260640161021e565b60008281526065602052604080822080546001600160a01b0319166001600160a01b038516908117909155606680546001810182559084527f46501879b8ca8525e8c2fd519e2fbfcfa2ebea26501294aa02cbfcfb12e94354018590559051909184917fd63be02155b46636309fb0a4a79647c60971aecaad53cbc83aad90cd75fd9d549190a35050565b6103ea6106ad565b6001600160a01b0381166104395760405162461bcd60e51b8152602060048201526016602482015275496e76616c6964206d6f64756c65206164647265737360501b604482015260640161021e565b6000828152606560205260409020546001600160a01b0316806104915760405162461bcd60e51b815260206004820152601060248201526f135bd91d5b19481b9bdd08199bdd5b9960821b604482015260640161021e565b60008381526065602052604080822080546001600160a01b0319166001600160a01b03868116918217909255915191929084169186917fbe59b1ad7b24549601b98854029a8be9cd632ee55e4472692aa2542e668496e091a4505050565b606080606680548060200260200160405190810160405280929190818152602001828054801561053e57602002820191906000526020600020905b81548152602001906001019080831161052a575b5050606654939550505067ffffffffffffffff8211159050610562576105626108c1565b60405190808252806020026020018201604052801561058b578160200160208202803683370190505b50905060005b6066548110156106115760656000606683815481106105b2576105b26108d7565b9060005260206000200154815260200190815260200160002060009054906101000a90046001600160a01b03168282815181106105f1576105f16108d7565b6001600160a01b0390921660209283029190910190910152600101610591565b509091565b6066818154811061062657600080fd5b600091825260209091200154905081565b61063f6106ad565b6001600160a01b0381166106a45760405162461bcd60e51b815260206004820152602660248201527f4f776e61626c653a206e6577206f776e657220697320746865207a65726f206160448201526564647265737360d01b606482015260840161021e565b61029881610707565b6033546001600160a01b031633146101835760405162461bcd60e51b815260206004820181905260248201527f4f776e61626c653a2063616c6c6572206973206e6f7420746865206f776e6572604482015260640161021e565b603380546001600160a01b038381166001600160a01b0319831681179093556040519116919082907f8be0079c531659141344cd1fd0a4f28419497f9722a3daafe3b4186f6b6457e090600090a35050565b600054610100900460ff166107805760405162461bcd60e51b815260040161021e906108ed565b610183600054610100900460ff166107aa5760405162461bcd60e51b815260040161021e906108ed565b61018333610707565b6000602082840312156107c557600080fd5b5035919050565b80356001600160a01b03811681146107e357600080fd5b919050565b600080604083850312156107fb57600080fd5b8235915061080b602084016107cc565b90509250929050565b6040808252835190820181905260009060208501906060840190835b8181101561084e578351835260209384019390920191600101610830565b50508381036020808601919091528551808352918101925085019060005b818110156108935782516001600160a01b031684526020938401939092019160010161086c565b50919695505050505050565b6000602082840312156108b157600080fd5b6108ba826107cc565b9392505050565b634e487b7160e01b600052604160045260246000fd5b634e487b7160e01b600052603260045260246000fd5b6020808252602b908201527f496e697469616c697a61626c653a20636f6e7472616374206973206e6f74206960408201526a6e697469616c697a696e6760a81b60608201526080019056fea2646970667358221220c947989739f3672260b147be62f179f1d854d01aa22185af9d2076c3226f09b364736f6c634300081d0033",
  "linkReferences": {},
  "deployedLinkReferences": {}
}