{
  "_format": "hh-sol-artifact-1",
  "contractName": "MockOracleV2",
  "sourceName": "contracts/MockOracleV2.sol",
  "abi": [
    {
      "anonymous": false,
      "inputs": [
        {
          "indexed": false,
          "internalType": "uint8",
          "name": "version",
          "type": "uint8"
        }
      ],
      "name": "Initialized",
      "type": "event"
    },
    {
      "anonymous": false,
      "inputs": [
        {
          "indexed": true,
          "internalType": "address",
          "name": "previousOwner",
          "type": "address"
        },
        {
          "indexed": true,
          "internalType": "address",
          "name": "newOwner",
          "type": "address"
        }
      ],
      "name": "OwnershipTransferred",
      "type": "event"
    },
    {
      "anonymous": false,
      "inputs": [
        {
          "indexed": true,
          "internalType": "string",
          "name": "symbol",
          "type": "string"
        },
        {
          "indexed": false,
          "internalType": "int256",
          "name": "oldPrice",
          "type": "int256"
        },
        {
          "indexed": false,
          "internalType": "int256",
          "name": "newPrice",
          "type": "int256"
        }
      ],
      "name": "PriceUpdated",
      "type": "event"
    },
    {
      "inputs": [
        {
          "internalType": "string",
          "name": "symbol",
          "type": "string"
        }
      ],
      "name": "getPrice",
      "outputs": [
        {
          "internalType": "int256",
          "name": "",
          "type": "int256"
        }
      ],
      "stateMutability": "view",
      "type": "function"
    },
    {
      "inputs": [],
      "name": "initialize",
      "outputs": [],
      "stateMutability": "nonpayable",
      "type": "function"
    },
    {
      "inputs": [],
      "name": "owner",
      "outputs": [
        {
          "internalType": "address",
          "name": "",
          "type": "address"
        }
      ],
      "stateMutability": "view",
      "type": "function"
    },
    {
      "inputs": [],
      "name": "renounceOwnership",
      "outputs": [],
      "stateMutability": "nonpayable",
      "type": "function"
    },
    {
      "inputs": [
        {
          "internalType": "string",
          "name": "symbol",
          "type": "string"
        },
        {
          "internalType": "int256",
          "name": "_price",
          "type": "int256"
        }
      ],
      "name": "setPrice",
      "outputs": [],
      "stateMutability": "nonpayable",
      "type": "function"
    },
    {
      "inputs": [
        {
          "internalType": "address",
          "name": "newOwner",
          "type": "address"
        }
      ],
      "name": "transferOwnership",
      "outputs": [],
      "stateMutability": "nonpayable",
      "type": "function"
    },
    {
      "inputs": [],
      "name": "version",
      "outputs": [
        {
          "internalType": "string",
          "name": "",
          "type": "string"
        }
      ],
      "stateMutability": "pure",
      "type": "function"
    }
  ],
  "bytecode": "0x6080604052348015600f57600080fd5b506106d78061001f6000396000f3fe608060405234801561001057600080fd5b506004361061007d5760003560e01c80638129fc1c1161005b5780638129fc1c146100d65780638da5cb5b146100de578063da6fdf82146100f9578063f2fde38b1461010c57600080fd5b8063524f38891461008257806354fd4d50146100a8578063715018a6146100cc575b600080fd5b610095610090366004610531565b61011f565b6040519081526020015b60405180910390f35b60408051808201825260028152612b1960f11b6020820152905161009f9190610592565b6100d4610147565b005b6100d461015b565b6033546040516001600160a01b03909116815260200161009f565b6100d46101073660046105c5565b610271565b6100d461011a36600461060a565b610310565b6000606582604051610131919061063a565b9081526020016040518091039020549050919050565b61014f610386565b61015960006103e0565b565b600054610100900460ff161580801561017b5750600054600160ff909116105b806101955750303b158015610195575060005460ff166001145b6101fd5760405162461bcd60e51b815260206004820152602e60248201527f496e697469616c697a61626c653a20636f6e747261637420697320616c72656160448201526d191e481a5b9a5d1a585b1a5e995960921b60648201526084015b60405180910390fd5b6000805460ff191660011790558015610220576000805461ff0019166101001790555b610228610432565b801561026e576000805461ff0019169055604051600181527f7f26b83ff96e1f2b6a682f133852f6798a09c465da95921460cefb38474024989060200160405180910390a15b50565b610279610386565b600060658360405161028b919061063a565b9081526020016040518091039020549050816065846040516102ad919061063a565b908152604051908190036020018120919091556102cb90849061063a565b6040805191829003822083835260208301859052917f185bd0b4f4f322d3f4b6c4c1682b942aa9fc855dba7f09fad267a10afa91f138910160405180910390a2505050565b610318610386565b6001600160a01b03811661037d5760405162461bcd60e51b815260206004820152602660248201527f4f776e61626c653a206e6577206f776e657220697320746865207a65726f206160448201526564647265737360d01b60648201526084016101f4565b61026e816103e0565b6033546001600160a01b031633146101595760405162461bcd60e51b815260206004820181905260248201527f4f776e61626c653a2063616c6c6572206973206e6f7420746865206f776e657260448201526064016101f4565b603380546001600160a01b038381166001600160a01b0319831681179093556040519116919082907f8be0079c531659141344cd1fd0a4f28419497f9722a3daafe3b4186f6b6457e090600090a35050565b600054610100900460ff166104595760405162461bcd60e51b81526004016101f490610656565b610159600054610100900460ff166104835760405162461bcd60e51b81526004016101f490610656565b610159336103e0565b634e487b7160e01b600052604160045260246000fd5b600082601f8301126104b357600080fd5b813567ffffffffffffffff8111156104cd576104cd61048c565b604051601f8201601f19908116603f0116810167ffffffffffffffff811182821017156104fc576104fc61048c565b60405281815283820160200185101561051457600080fd5b816020850160208301376000918101602001919091529392505050565b60006020828403121561054357600080fd5b813567ffffffffffffffff81111561055a57600080fd5b610566848285016104a2565b949350505050565b60005b83811015610589578181015183820152602001610571565b50506000910152565b60208152600082518060208401526105b181604085016020870161056e565b601f01601f19169190910160400192915050565b600080604083850312156105d857600080fd5b823567ffffffffffffffff8111156105ef57600080fd5b6105fb858286016104a2565b95602094909401359450505050565b60006020828403121561061c57600080fd5b81356001600160a01b038116811461063357600080fd5b9392505050565b6000825161064c81846020870161056e565b9190910192915050565b6020808252602b908201527f496e697469616c697a61626c653a20636f6e7472616374206973206e6f74206960408201526a6e697469616c697a696e6760a81b60608201526080019056fea26469706673582212207aa0809ba6c04331030d8dd23279423194cd45e4058c2a52dfe000666041f03a64736f6c634300081d0033",
  "linkReferences": {},
  "deployedLinkReferences": {}
}