{"contracts/VestingVaultUpgradeable.sol":{"VestingVaultUpgradeable":{"abi":[{"anonymous":false,"inputs":[{"indexed":true,"internalType":"address","name":"account","type":"address"},{"indexed":false,"internalType":"bool","name":"status","type":"bool"}],"name":"AuthorizedUpdated","type":"event"},{"anonymous":false,"inputs":[{"indexed":false,"internalType":"uint8","name":"version","type":"uint8"}],"name":"Initialized","type":"event"},{"anonymous":false,"inputs":[{"indexed":true,"internalType":"address","name":"previousOwner","type":"address"},{"indexed":true,"internalType":"address","name":"newOwner","type":"address"}],"name":"OwnershipTransferred","type":"event"},{"anonymous":false,"inputs":[{"indexed":true,"internalType":"address","name":"beneficiary","type":"address"},{"indexed":false,"internalType":"uint256","name":"amount","type":"uint256"}],"name":"TokensReleased","type":"event"},{"anonymous":false,"inputs":[{"indexed":true,"internalType":"address","name":"beneficiary","type":"address"},{"indexed":false,"internalType":"uint256","name":"amount","type":"uint256"},{"indexed":false,"internalType":"uint64","name":"start","type":"uint64"},{"indexed":false,"internalType":"uint64","name":"duration","type":"uint64"}],"name":"VestingCreated","type":"event"},{"inputs":[],"name":"HAYQ","outputs":[{"internalType":"address","name":"","type":"address"}],"stateMutability":"view","type":"function"},{"inputs":[{"internalType":"address","name":"","type":"address"}],"name":"authorized","outputs":[{"internalType":"bool","name":"","type":"bool"}],"stateMutability":"view","type":"function"},{"inputs":[{"internalType":"address[]","name":"beneficiaries","type":"address[]"},{"internalType":"uint256[]","name":"amounts","type":"uint256[]"},{"internalType":"uint64","name":"start","type":"uint64"},{"internalType":"uint64","name":"duration","type":"uint64"}],"name":"batchCreateVesting","outputs":[],"stateMutability":"nonpayable","type":"function"},{"inputs":[{"internalType":"address","name":"beneficiary","type":"address"},{"internalType":"uint256","name":"amount","type":"uint256"},{"internalType":"uint64","name":"start","type":"uint64"},{"internalType":"uint64","name":"duration","type":"uint64"}],"name":"createVesting","outputs":[],"stateMutability":"nonpayable","type":"function"},{"inputs":[{"internalType":"address","name":"beneficiary","type":"address"}],"name":"getVestingInfo","outputs":[{"internalType":"uint256","name":"totalAmount","type":"uint256"},{"internalType":"uint256","name":"released","type":"uint256"},{"internalType":"uint256","name":"start","type":"uint256"},{"internalType":"uint256","name":"duration","type":"uint256"},{"internalType":"uint256","name":"vested","type":"uint256"}],"stateMutability":"view","type":"function"},{"inputs":[{"internalType":"contract IERC20Upgradeable","name":"_token","type":"address"},{"internalType":"address","name":"_hayq","type":"address"}],"name":"initialize","outputs":[],"stateMutability":"nonpayable","type":"function"},{"inputs":[],"name":"owner","outputs":[{"internalType":"address","name":"","type":"address"}],"stateMutability":"view","type":"function"},{"inputs":[],"name":"release","outputs":[],"stateMutability":"nonpayable","type":"function"},{"inputs":[],"name":"renounceOwnership","outputs":[],"stateMutability":"nonpayable","type":"function"},{"inputs":[{"internalType":"address","name":"account","type":"address"},{"internalType":"bool","name":"status","type":"bool"}],"name":"setAuthorized","outputs":[],"stateMutability":"nonpayable","type":"function"},{"inputs":[],"name":"token","outputs":[{"internalType":"contract IERC20Upgradeable","name":"","type":"address"}],"stateMutability":"view","type":"function"},{"inputs":[{"internalType":"address","name":"newOwner","type":"address"}],"name":"transferOwnership","outputs":[],"stateMutability":"nonpayable","type":"function"},{"inputs":[{"internalType":"address","name":"","type":"address"}],"name":"vestings","outputs":[{"internalType":"uint256","name":"totalAmount","type":"uint256"},{"internalType":"uint256","name":"released","type":"uint256"},{"internalType":"uint64","name":"start","type":"uint64"},{"internalType":"uint64","name":"duration","type":"uint64"}],"stateMutability":"view","type":"function"}],"evm":{"bytecode":{"linkReferences":{},"object":"6080604052348015600f57600080fd5b506114388061001f6000396000f3fe608060405234801561001057600080fd5b50600436106100cf5760003560e01c8063941e828e1161008c578063daf4986311610066578063daf49863146101a6578063f2fde38b14610218578063fb897ce41461022b578063fc0c546a1461026657600080fd5b8063941e828e1461014d578063a66a1af514610160578063b91816111461017357600080fd5b80631b554242146100d4578063485cc95514610104578063711bf9b214610119578063715018a61461012c57806386d1a69f146101345780638da5cb5b1461013c575b600080fd5b6098546100e7906001600160a01b031681565b6040516001600160a01b0390911681526020015b60405180910390f35b6101176101123660046110f5565b610279565b005b61011761012736600461113c565b61045c565b6101176104c3565b6101176104d7565b6033546001600160a01b03166100e7565b61011761015b366004611186565b6106e2565b61011761016e366004611220565b61099e565b6101966101813660046112b3565b609a6020526000908152604090205460ff1681565b60405190151581526020016100fb565b6101e96101b43660046112b3565b6099602052600090815260409020805460018201546002909201549091906001600160401b0380821691600160401b90041684565b6040805194855260208501939093526001600160401b03918216928401929092521660608201526080016100fb565b6101176102263660046112b3565b610da6565b61023e6102393660046112b3565b610e1f565b604080519586526020860194909452928401919091526060830152608082015260a0016100fb565b6097546100e7906001600160a01b031681565b600054610100900460ff16158080156102995750600054600160ff909116105b806102b35750303b1580156102b3575060005460ff166001145b61031b5760405162461bcd60e51b815260206004820152602e60248201527f496e697469616c697a61626c653a20636f6e747261637420697320616c72656160448201526d191e481a5b9a5d1a585b1a5e995960921b60648201526084015b60405180910390fd5b6000805460ff19166001179055801561033e576000805461ff0019166101001790555b610346610e95565b61034e610ec4565b6001600160a01b0383166103945760405162461bcd60e51b815260206004820152600d60248201526c24b73b30b634b2103a37b5b2b760991b6044820152606401610312565b6001600160a01b0382166103e15760405162461bcd60e51b8152602060048201526014602482015273496e76616c69642048415951206164647265737360601b6044820152606401610312565b609780546001600160a01b038086166001600160a01b03199283161790925560988054928516929091169190911790558015610457576000805461ff0019169055604051600181527f7f26b83ff96e1f2b6a682f133852f6798a09c465da95921460cefb38474024989060200160405180910390a15b505050565b610464610ef3565b6001600160a01b0382166000818152609a6020908152604091829020805460ff191685151590811790915591519182527f4baf71ac1b8b1858d7ab3d2f65eceedce776ac368d0e05e8f9e9f0bf7ea64e4f910160405180910390a25050565b6104cb610ef3565b6104d56000610f4d565b565b6104df610f9f565b33600090815260996020526040902080546105295760405162461bcd60e51b815260206004820152600a6024820152694e6f2076657374696e6760b01b6044820152606401610312565b60408051608081018252825481526001830154602082015260028301546001600160401b0380821693830193909352600160401b9004909116606082015260009061057390610ff8565b9050600082600101548261058791906112ed565b9050600081116105ce5760405162461bcd60e51b81526020600482015260126024820152714e6f7468696e6720746f2072656c6561736560701b6044820152606401610312565b808360010160008282546105e29190611300565b909155505060975460405163a9059cbb60e01b8152336004820152602481018390526001600160a01b039091169063a9059cbb906044016020604051808303816000875af1158015610638573d6000803e3d6000fd5b505050506040513d601f19601f8201168201806040525081019061065c9190611313565b6106a05760405162461bcd60e51b8152602060048201526015602482015274151bdad95b881d1c985b9cd9995c8819985a5b1959605a1b6044820152606401610312565b60405181815233907fc7798891864187665ac6dd119286e44ec13f014527aeeb2b8eb3fd413df931799060200160405180910390a25050506104d56001606555565b6098546001600160a01b031633148061070557506033546001600160a01b031633145b8061071f5750336000908152609a602052604090205460ff165b61075c5760405162461bcd60e51b815260206004820152600e60248201526d139bdd08185d5d1a1bdc9a5e995960921b6044820152606401610312565b6001600160a01b038416600090815260996020526040902054156107b35760405162461bcd60e51b815260206004820152600e60248201526d105b1c9958591e481d995cdd195960921b6044820152606401610312565b6000816001600160401b0316116108035760405162461bcd60e51b815260206004820152601460248201527304475726174696f6e206d757374206265203e20360641b6044820152606401610312565b60408051608081018252848152600060208083018281526001600160401b03878116858701908152878216606087019081526001600160a01b038c81168752609990955294879020955186559151600186015590516002909401805493518216600160401b026001600160801b031990941694909116939093179190911790915560975491516370a0823160e01b81523060048201528592909116906370a0823190602401602060405180830381865afa1580156108c5573d6000803e3d6000fd5b505050506040513d601f19601f820116820180604052508101906108e99190611330565b10156109435760405162461bcd60e51b815260206004820152602360248201527f496e73756666696369656e7420746f6b656e2062616c616e636520696e2056616044820152621d5b1d60ea1b6064820152608401610312565b604080518481526001600160401b03848116602083015283168183015290516001600160a01b038616917f41cfd41ba70c64774e585019623afc350e9f7407134786177b1ebc6918470b4a919081900360600190a250505050565b6098546001600160a01b03163314806109c157506033546001600160a01b031633145b806109db5750336000908152609a602052604090205460ff165b610a185760405162461bcd60e51b815260206004820152600e60248201526d139bdd08185d5d1a1bdc9a5e995960921b6044820152606401610312565b848314610a5f5760405162461bcd60e51b8152602060048201526015602482015274082e4e4c2f240d8cadccee8d040dad2e6dac2e8c6d605b1b6044820152606401610312565b6000816001600160401b031611610aaf5760405162461bcd60e51b815260206004820152601460248201527304475726174696f6e206d757374206265203e20360641b6044820152606401610312565b6000805b86811015610ce25760996000898984818110610ad157610ad1611349565b9050602002016020810190610ae691906112b3565b6001600160a01b0316815260208101919091526040016000205415610b3e5760405162461bcd60e51b815260206004820152600e60248201526d105b1c9958591e481d995cdd195960921b6044820152606401610312565b6040518060800160405280878784818110610b5b57610b5b611349565b90506020020135815260200160008152602001856001600160401b03168152602001846001600160401b0316815250609960008a8a85818110610ba057610ba0611349565b9050602002016020810190610bb591906112b3565b6001600160a01b03168152602080820192909252604090810160002083518155918301516001830155820151600290910180546060909301516001600160401b03908116600160401b026001600160801b0319909416921691909117919091179055878782818110610c2957610c29611349565b9050602002016020810190610c3e91906112b3565b6001600160a01b03167f41cfd41ba70c64774e585019623afc350e9f7407134786177b1ebc6918470b4a878784818110610c7a57610c7a611349565b905060200201358686604051610cac939291909283526001600160401b03918216602084015216604082015260600190565b60405180910390a2858582818110610cc657610cc6611349565b9050602002013582610cd89190611300565b9150600101610ab3565b506097546040516370a0823160e01b815230600482015282916001600160a01b0316906370a0823190602401602060405180830381865afa158015610d2b573d6000803e3d6000fd5b505050506040513d601f19601f82011682018060405250810190610d4f9190611330565b1015610d9d5760405162461bcd60e51b815260206004820152601a60248201527f496e73756666696369656e74205661756c742062616c616e63650000000000006044820152606401610312565b50505050505050565b610dae610ef3565b6001600160a01b038116610e135760405162461bcd60e51b815260206004820152602660248201527f4f776e61626c653a206e6577206f776e657220697320746865207a65726f206160448201526564647265737360d01b6064820152608401610312565b610e1c81610f4d565b50565b6001600160a01b038116600090815260996020908152604080832080546001820154600283015484516080810186528381529586018290526001600160401b03808216958701869052600160401b90910416606086018190529195909491929091610e8990610ff8565b91505091939590929450565b600054610100900460ff16610ebc5760405162461bcd60e51b81526004016103129061135f565b6104d5611089565b600054610100900460ff16610eeb5760405162461bcd60e51b81526004016103129061135f565b6104d56110b9565b6033546001600160a01b031633146104d55760405162461bcd60e51b815260206004820181905260248201527f4f776e61626c653a2063616c6c6572206973206e6f7420746865206f776e65726044820152606401610312565b603380546001600160a01b038381166001600160a01b0319831681179093556040519116919082907f8be0079c531659141344cd1fd0a4f28419497f9722a3daafe3b4186f6b6457e090600090a35050565b600260655403610ff15760405162461bcd60e51b815260206004820152601f60248201527f5265656e7472616e637947756172643a207265656e7472616e742063616c6c006044820152606401610312565b6002606555565b600081604001516001600160401b031642101561101757506000919050565b8160600151826040015161102b91906113aa565b6001600160401b0316421061103f57505190565b81606001516001600160401b031682604001516001600160401b03164261106691906112ed565b835161107291906113c9565b61107c91906113e0565b92915050565b6001606555565b600054610100900460ff166110b05760405162461bcd60e51b81526004016103129061135f565b6104d533610f4d565b600054610100900460ff166110825760405162461bcd60e51b81526004016103129061135f565b6001600160a01b0381168114610e1c57600080fd5b6000806040838503121561110857600080fd5b8235611113816110e0565b91506020830135611123816110e0565b809150509250929050565b8015158114610e1c57600080fd5b6000806040838503121561114f57600080fd5b823561115a816110e0565b915060208301356111238161112e565b80356001600160401b038116811461118157600080fd5b919050565b6000806000806080858703121561119c57600080fd5b84356111a7816110e0565b9350602085013592506111bc6040860161116a565b91506111ca6060860161116a565b905092959194509250565b60008083601f8401126111e757600080fd5b5081356001600160401b038111156111fe57600080fd5b6020830191508360208260051b850101111561121957600080fd5b9250929050565b6000806000806000806080878903121561123957600080fd5b86356001600160401b0381111561124f57600080fd5b61125b89828a016111d5565b90975095505060208701356001600160401b0381111561127a57600080fd5b61128689828a016111d5565b909550935061129990506040880161116a565b91506112a76060880161116a565b90509295509295509295565b6000602082840312156112c557600080fd5b81356112d0816110e0565b9392505050565b634e487b7160e01b600052601160045260246000fd5b8181038181111561107c5761107c6112d7565b8082018082111561107c5761107c6112d7565b60006020828403121561132557600080fd5b81516112d08161112e565b60006020828403121561134257600080fd5b5051919050565b634e487b7160e01b600052603260045260246000fd5b6020808252602b908201527f496e697469616c697a61626c653a20636f6e7472616374206973206e6f74206960408201526a6e697469616c697a696e6760a81b606082015260800190565b6001600160401b03818116838216019081111561107c5761107c6112d7565b808202811582820484141761107c5761107c6112d7565b6000826113fd57634e487b7160e01b600052601260045260246000fd5b50049056fea2646970667358221220df1029a47985c43afb55970de10cee433e3d032226a43df4d5ab43612b03c79f64736f6c634300081d0033","opcodes":"PUSH1 0x80 PUSH1 0x40 MSTORE CALLVALUE DUP1 ISZERO PUSH1 0xF JUMPI PUSH1 0x0 DUP1 REVERT JUMPDEST POP PUSH2 0x1438 DUP1 PUSH2 0x1F PUSH1 0x0 CODECOPY PUSH1 0x0 RETURN INVALID PUSH1 0x80 PUSH1 0x40 MSTORE CALLVALUE DUP1 ISZERO PUSH2 0x10 JUMPI PUSH1 0x0 DUP1 REVERT JUMPDEST POP PUSH1 0x4 CALLDATASIZE LT PUSH2 0xCF JUMPI PUSH1 0x0 CALLDATALOAD PUSH1 0xE0 SHR DUP1 PUSH4 0x941E828E GT PUSH2 0x8C JUMPI DUP1 PUSH4 0xDAF49863 GT PUSH2 0x66 JUMPI DUP1 PUSH4 0xDAF49863 EQ PUSH2 0x1A6 JUMPI DUP1 PUSH4 0xF2FDE38B EQ PUSH2 0x218 JUMPI DUP1 PUSH4 0xFB897CE4 EQ PUSH2 0x22B JUMPI DUP1 PUSH4 0xFC0C546A EQ PUSH2 0x266 JUMPI PUSH1 0x0 DUP1 REVERT JUMPDEST DUP1 PUSH4 0x941E828E EQ PUSH2 0x14D JUMPI DUP1 PUSH4 0xA66A1AF5 EQ PUSH2 0x160 JUMPI DUP1 PUSH4 0xB9181611 EQ PUSH2 0x173 JUMPI PUSH1 0x0 DUP1 REVERT JUMPDEST DUP1 PUSH4 0x1B554242 EQ PUSH2 0xD4 JUMPI DUP1 PUSH4 0x485CC955 EQ PUSH2 0x104 JUMPI DUP1 PUSH4 0x711BF9B2 EQ PUSH2 0x119 JUMPI DUP1 PUSH4 0x715018A6 EQ PUSH2 0x12C JUMPI DUP1 PUSH4 0x86D1A69F EQ PUSH2 0x134 JUMPI DUP1 PUSH4 0x8DA5CB5B EQ PUSH2 0x13C JUMPI JUMPDEST PUSH1 0x0 DUP1 REVERT JUMPDEST PUSH1 0x98 SLOAD PUSH2 0xE7 SWAP1 PUSH1 0x1 PUSH1 0x1 PUSH1 0xA0 SHL SUB AND DUP2 JUMP JUMPDEST PUSH1 0x40 MLOAD PUSH1 0x1 PUSH1 0x1 PUSH1 0xA0 SHL SUB SWAP1 SWAP2 AND DUP2 MSTORE PUSH1 0x20 ADD JUMPDEST PUSH1 0x40 MLOAD DUP1 SWAP2 SUB SWAP1 RETURN JUMPDEST PUSH2 0x117 PUSH2 0x112 CALLDATASIZE PUSH1 0x4 PUSH2 0x10F5 JUMP JUMPDEST PUSH2 0x279 JUMP JUMPDEST STOP JUMPDEST PUSH2 0x117 PUSH2 0x127 CALLDATASIZE PUSH1 0x4 PUSH2 0x113C JUMP JUMPDEST PUSH2 0x45C JUMP JUMPDEST PUSH2 0x117 PUSH2 0x4C3 JUMP JUMPDEST PUSH2 0x117 PUSH2 0x4D7 JUMP JUMPDEST PUSH1 0x33 SLOAD PUSH1 0x1 PUSH1 0x1 PUSH1 0xA0 SHL SUB AND PUSH2 0xE7 JUMP JUMPDEST PUSH2 0x117 PUSH2 0x15B CALLDATASIZE PUSH1 0x4 PUSH2 0x1186 JUMP JUMPDEST PUSH2 0x6E2 JUMP JUMPDEST PUSH2 0x117 PUSH2 0x16E CALLDATASIZE PUSH1 0x4 PUSH2 0x1220 JUMP JUMPDEST PUSH2 0x99E JUMP JUMPDEST PUSH2 0x196 PUSH2 0x181 CALLDATASIZE PUSH1 0x4 PUSH2 0x12B3 JUMP JUMPDEST PUSH1 0x9A PUSH1 0x20 MSTORE PUSH1 0x0 SWAP1 DUP2 MSTORE PUSH1 0x40 SWAP1 KECCAK256 SLOAD PUSH1 0xFF AND DUP2 JUMP JUMPDEST PUSH1 0x40 MLOAD SWAP1 ISZERO ISZERO DUP2 MSTORE PUSH1 0x20 ADD PUSH2 0xFB JUMP JUMPDEST PUSH2 0x1E9 PUSH2 0x1B4 CALLDATASIZE PUSH1 0x4 PUSH2 0x12B3 JUMP JUMPDEST PUSH1 0x99 PUSH1 0x20 MSTORE PUSH1 0x0 SWAP1 DUP2 MSTORE PUSH1 0x40 SWAP1 KECCAK256 DUP1 SLOAD PUSH1 0x1 DUP3 ADD SLOAD PUSH1 0x2 SWAP1 SWAP3 ADD SLOAD SWAP1 SWAP2 SWAP1 PUSH1 0x1 PUSH1 0x1 PUSH1 0x40 SHL SUB DUP1 DUP3 AND SWAP2 PUSH1 0x1 PUSH1 0x40 SHL SWAP1 DIV AND DUP5 JUMP JUMPDEST PUSH1 0x40 DUP1 MLOAD SWAP5 DUP6 MSTORE PUSH1 0x20 DUP6 ADD SWAP4 SWAP1 SWAP4 MSTORE PUSH1 0x1 PUSH1 0x1 PUSH1 0x40 SHL SUB SWAP2 DUP3 AND SWAP3 DUP5 ADD SWAP3 SWAP1 SWAP3 MSTORE AND PUSH1 0x60 DUP3 ADD MSTORE PUSH1 0x80 ADD PUSH2 0xFB JUMP JUMPDEST PUSH2 0x117 PUSH2 0x226 CALLDATASIZE PUSH1 0x4 PUSH2 0x12B3 JUMP JUMPDEST PUSH2 0xDA6 JUMP JUMPDEST PUSH2 0x23E PUSH2 0x239 CALLDATASIZE PUSH1 0x4 PUSH2 0x12B3 JUMP JUMPDEST PUSH2 0xE1F JUMP JUMPDEST PUSH1 0x40 DUP1 MLOAD SWAP6 DUP7 MSTORE PUSH1 0x20 DUP7 ADD SWAP5 SWAP1 SWAP5 MSTORE SWAP3 DUP5 ADD SWAP2 SWAP1 SWAP2 MSTORE PUSH1 0x60 DUP4 ADD MSTORE PUSH1 0x80 DUP3 ADD MSTORE PUSH1 0xA0 ADD PUSH2 0xFB JUMP JUMPDEST PUSH1 0x97 SLOAD PUSH2 0xE7 SWAP1 PUSH1 0x1 PUSH1 0x1 PUSH1 0xA0 SHL SUB AND DUP2 JUMP JUMPDEST PUSH1 0x0 SLOAD PUSH2 0x100 SWAP1 DIV PUSH1 0xFF AND ISZERO DUP1 DUP1 ISZERO PUSH2 0x299 JUMPI POP PUSH1 0x0 SLOAD PUSH1 0x1 PUSH1 0xFF SWAP1 SWAP2 AND LT JUMPDEST DUP1 PUSH2 0x2B3 JUMPI POP ADDRESS EXTCODESIZE ISZERO DUP1 ISZERO PUSH2 0x2B3 JUMPI POP PUSH1 0x0 SLOAD PUSH1 0xFF AND PUSH1 0x1 EQ JUMPDEST PUSH2 0x31B JUMPI PUSH1 0x40 MLOAD PUSH3 0x461BCD PUSH1 0xE5 SHL DUP2 MSTORE PUSH1 0x20 PUSH1 0x4 DUP3 ADD MSTORE PUSH1 0x2E PUSH1 0x24 DUP3 ADD MSTORE PUSH32 0x496E697469616C697A61626C653A20636F6E747261637420697320616C726561 PUSH1 0x44 DUP3 ADD MSTORE PUSH14 0x191E481A5B9A5D1A585B1A5E9959 PUSH1 0x92 SHL PUSH1 0x64 DUP3 ADD MSTORE PUSH1 0x84 ADD JUMPDEST PUSH1 0x40 MLOAD DUP1 SWAP2 SUB SWAP1 REVERT JUMPDEST PUSH1 0x0 DUP1 SLOAD PUSH1 0xFF NOT AND PUSH1 0x1 OR SWAP1 SSTORE DUP1 ISZERO PUSH2 0x33E JUMPI PUSH1 0x0 DUP1 SLOAD PUSH2 0xFF00 NOT AND PUSH2 0x100 OR SWAP1 SSTORE JUMPDEST PUSH2 0x346 PUSH2 0xE95 JUMP JUMPDEST PUSH2 0x34E PUSH2 0xEC4 JUMP JUMPDEST PUSH1 0x1 PUSH1 0x1 PUSH1 0xA0 SHL SUB DUP4 AND PUSH2 0x394 JUMPI PUSH1 0x40 MLOAD PUSH3 0x461BCD PUSH1 0xE5 SHL DUP2 MSTORE PUSH1 0x20 PUSH1 0x4 DUP3 ADD MSTORE PUSH1 0xD PUSH1 0x24 DUP3 ADD MSTORE PUSH13 0x24B73B30B634B2103A37B5B2B7 PUSH1 0x99 SHL PUSH1 0x44 DUP3 ADD MSTORE PUSH1 0x64 ADD PUSH2 0x312 JUMP JUMPDEST PUSH1 0x1 PUSH1 0x1 PUSH1 0xA0 SHL SUB DUP3 AND PUSH2 0x3E1 JUMPI PUSH1 0x40 MLOAD PUSH3 0x461BCD PUSH1 0xE5 SHL DUP2 MSTORE PUSH1 0x20 PUSH1 0x4 DUP3 ADD MSTORE PUSH1 0x14 PUSH1 0x24 DUP3 ADD MSTORE PUSH20 0x496E76616C696420484159512061646472657373 PUSH1 0x60 SHL PUSH1 0x44 DUP3 ADD MSTORE PUSH1 0x64 ADD PUSH2 0x312 JUMP JUMPDEST PUSH1 0x97 DUP1 SLOAD PUSH1 0x1 PUSH1 0x1 PUSH1 0xA0 SHL SUB DUP1 DUP7 AND PUSH1 0x1 PUSH1 0x1 PUSH1 0xA0 SHL SUB NOT SWAP3 DUP4 AND OR SWAP1 SWAP3 SSTORE PUSH1 0x98 DUP1 SLOAD SWAP3 DUP6 AND SWAP3 SWAP1 SWAP2 AND SWAP2 SWAP1 SWAP2 OR SWAP1 SSTORE DUP1 ISZERO PUSH2 0x457 JUMPI PUSH1 0x0 DUP1 SLOAD PUSH2 0xFF00 NOT AND SWAP1 SSTORE PUSH1 0x40 MLOAD PUSH1 0x1 DUP2 MSTORE PUSH32 0x7F26B83FF96E1F2B6A682F133852F6798A09C465DA95921460CEFB3847402498 SWAP1 PUSH1 0x20 ADD PUSH1 0x40 MLOAD DUP1 SWAP2 SUB SWAP1 LOG1 JUMPDEST POP POP POP JUMP JUMPDEST PUSH2 0x464 PUSH2 0xEF3 JUMP JUMPDEST PUSH1 0x1 PUSH1 0x1 PUSH1 0xA0 SHL SUB DUP3 AND PUSH1 0x0 DUP2 DUP2 MSTORE PUSH1 0x9A PUSH1 0x20 SWAP1 DUP2 MSTORE PUSH1 0x40 SWAP2 DUP3 SWAP1 KECCAK256 DUP1 SLOAD PUSH1 0xFF NOT AND DUP6 ISZERO ISZERO SWAP1 DUP2 OR SWAP1 SWAP2 SSTORE SWAP2 MLOAD SWAP2 DUP3 MSTORE PUSH32 0x4BAF71AC1B8B1858D7AB3D2F65ECEEDCE776AC368D0E05E8F9E9F0BF7EA64E4F SWAP2 ADD PUSH1 0x40 MLOAD DUP1 SWAP2 SUB SWAP1 LOG2 POP POP JUMP JUMPDEST PUSH2 0x4CB PUSH2 0xEF3 JUMP JUMPDEST PUSH2 0x4D5 PUSH1 0x0 PUSH2 0xF4D JUMP JUMPDEST JUMP JUMPDEST PUSH2 0x4DF PUSH2 0xF9F JUMP JUMPDEST CALLER PUSH1 0x0 SWAP1 DUP2 MSTORE PUSH1 0x99 PUSH1 0x20 MSTORE PUSH1 0x40 SWAP1 KECCAK256 DUP1 SLOAD PUSH2 0x529 JUMPI PUSH1 0x40 MLOAD PUSH3 0x461BCD PUSH1 0xE5 SHL DUP2 MSTORE PUSH1 0x20 PUSH1 0x4 DUP3 ADD MSTORE PUSH1 0xA PUSH1 0x24 DUP3 ADD MSTORE PUSH10 0x4E6F2076657374696E67 PUSH1 0xB0 SHL PUSH1 0x44 DUP3 ADD MSTORE PUSH1 0x64 ADD PUSH2 0x312 JUMP JUMPDEST PUSH1 0x40 DUP1 MLOAD PUSH1 0x80 DUP2 ADD DUP3 MSTORE DUP3 SLOAD DUP2 MSTORE PUSH1 0x1 DUP4 ADD SLOAD PUSH1 0x20 DUP3 ADD MSTORE PUSH1 0x2 DUP4 ADD SLOAD PUSH1 0x1 PUSH1 0x1 PUSH1 0x40 SHL SUB DUP1 DUP3 AND SWAP4 DUP4 ADD SWAP4 SWAP1 SWAP4 MSTORE PUSH1 0x1 PUSH1 0x40 SHL SWAP1 DIV SWAP1 SWAP2 AND PUSH1 0x60 DUP3 ADD MSTORE PUSH1 0x0 SWAP1 PUSH2 0x573 SWAP1 PUSH2 0xFF8 JUMP JUMPDEST SWAP1 POP PUSH1 0x0 DUP3 PUSH1 0x1 ADD SLOAD DUP3 PUSH2 0x587 SWAP2 SWAP1 PUSH2 0x12ED JUMP JUMPDEST SWAP1 POP PUSH1 0x0 DUP2 GT PUSH2 0x5CE JUMPI PUSH1 0x40 MLOAD PUSH3 0x461BCD PUSH1 0xE5 SHL DUP2 MSTORE PUSH1 0x20 PUSH1 0x4 DUP3 ADD MSTORE PUSH1 0x12 PUSH1 0x24 DUP3 ADD MSTORE PUSH18 0x4E6F7468696E6720746F2072656C65617365 PUSH1 0x70 SHL PUSH1 0x44 DUP3 ADD MSTORE PUSH1 0x64 ADD PUSH2 0x312 JUMP JUMPDEST DUP1 DUP4 PUSH1 0x1 ADD PUSH1 0x0 DUP3 DUP3 SLOAD PUSH2 0x5E2 SWAP2 SWAP1 PUSH2 0x1300 JUMP JUMPDEST SWAP1 SWAP2 SSTORE POP POP PUSH1 0x97 SLOAD PUSH1 0x40 MLOAD PUSH4 0xA9059CBB PUSH1 0xE0 SHL DUP2 MSTORE CALLER PUSH1 0x4 DUP3 ADD MSTORE PUSH1 0x24 DUP2 ADD DUP4 SWAP1 MSTORE PUSH1 0x1 PUSH1 0x1 PUSH1 0xA0 SHL SUB SWAP1 SWAP2 AND SWAP1 PUSH4 0xA9059CBB SWAP1 PUSH1 0x44 ADD PUSH1 0x20 PUSH1 0x40 MLOAD DUP1 DUP4 SUB DUP2 PUSH1 0x0 DUP8 GAS CALL ISZERO DUP1 ISZERO PUSH2 0x638 JUMPI RETURNDATASIZE PUSH1 0x0 DUP1 RETURNDATACOPY RETURNDATASIZE PUSH1 0x0 REVERT JUMPDEST POP POP POP POP PUSH1 0x40 MLOAD RETURNDATASIZE PUSH1 0x1F NOT PUSH1 0x1F DUP3 ADD AND DUP3 ADD DUP1 PUSH1 0x40 MSTORE POP DUP2 ADD SWAP1 PUSH2 0x65C SWAP2 SWAP1 PUSH2 0x1313 JUMP JUMPDEST PUSH2 0x6A0 JUMPI PUSH1 0x40 MLOAD PUSH3 0x461BCD PUSH1 0xE5 SHL DUP2 MSTORE PUSH1 0x20 PUSH1 0x4 DUP3 ADD MSTORE PUSH1 0x15 PUSH1 0x24 DUP3 ADD MSTORE PUSH21 0x151BDAD95B881D1C985B9CD9995C8819985A5B1959 PUSH1 0x5A SHL PUSH1 0x44 DUP3 ADD MSTORE PUSH1 0x64 ADD PUSH2 0x312 JUMP JUMPDEST PUSH1 0x40 MLOAD DUP2 DUP2 MSTORE CALLER SWAP1 PUSH32 0xC7798891864187665AC6DD119286E44EC13F014527AEEB2B8EB3FD413DF93179 SWAP1 PUSH1 0x20 ADD PUSH1 0x40 MLOAD DUP1 SWAP2 SUB SWAP1 LOG2 POP POP POP PUSH2 0x4D5 PUSH1 0x1 PUSH1 0x65 SSTORE JUMP JUMPDEST PUSH1 0x98 SLOAD PUSH1 0x1 PUSH1 0x1 PUSH1 0xA0 SHL SUB AND CALLER EQ DUP1 PUSH2 0x705 JUMPI POP PUSH1 0x33 SLOAD PUSH1 0x1 PUSH1 0x1 PUSH1 0xA0 SHL SUB AND CALLER EQ JUMPDEST DUP1 PUSH2 0x71F JUMPI POP CALLER PUSH1 0x0 SWAP1 DUP2 MSTORE PUSH1 0x9A PUSH1 0x20 MSTORE PUSH1 0x40 SWAP1 KECCAK256 SLOAD PUSH1 0xFF AND JUMPDEST PUSH2 0x75C JUMPI PUSH1 0x40 MLOAD PUSH3 0x461BCD PUSH1 0xE5 SHL DUP2 MSTORE PUSH1 0x20 PUSH1 0x4 DUP3 ADD MSTORE PUSH1 0xE PUSH1 0x24 DUP3 ADD MSTORE PUSH14 0x139BDD08185D5D1A1BDC9A5E9959 PUSH1 0x92 SHL PUSH1 0x44 DUP3 ADD MSTORE PUSH1 0x64 ADD PUSH2 0x312 JUMP JUMPDEST PUSH1 0x1 PUSH1 0x1 PUSH1 0xA0 SHL SUB DUP5 AND PUSH1 0x0 SWAP1 DUP2 MSTORE PUSH1 0x99 PUSH1 0x20 MSTORE PUSH1 0x40 SWAP1 KECCAK256 SLOAD ISZERO PUSH2 0x7B3 JUMPI PUSH1 0x40 MLOAD PUSH3 0x461BCD PUSH1 0xE5 SHL DUP2 MSTORE PUSH1 0x20 PUSH1 0x4 DUP3 ADD MSTORE PUSH1 0xE PUSH1 0x24 DUP3 ADD MSTORE PUSH14 0x105B1C9958591E481D995CDD1959 PUSH1 0x92 SHL PUSH1 0x44 DUP3 ADD MSTORE PUSH1 0x64 ADD PUSH2 0x312 JUMP JUMPDEST PUSH1 0x0 DUP2 PUSH1 0x1 PUSH1 0x1 PUSH1 0x40 SHL SUB AND GT PUSH2 0x803 JUMPI PUSH1 0x40 MLOAD PUSH3 0x461BCD PUSH1 0xE5 SHL DUP2 MSTORE PUSH1 0x20 PUSH1 0x4 DUP3 ADD MSTORE PUSH1 0x14 PUSH1 0x24 DUP3 ADD MSTORE PUSH20 0x4475726174696F6E206D757374206265203E203 PUSH1 0x64 SHL PUSH1 0x44 DUP3 ADD MSTORE PUSH1 0x64 ADD PUSH2 0x312 JUMP JUMPDEST PUSH1 0x40 DUP1 MLOAD PUSH1 0x80 DUP2 ADD DUP3 MSTORE DUP5 DUP2 MSTORE PUSH1 0x0 PUSH1 0x20 DUP1 DUP4 ADD DUP3 DUP2 MSTORE PUSH1 0x1 PUSH1 0x1 PUSH1 0x40 SHL SUB DUP8 DUP2 AND DUP6 DUP8 ADD SWAP1 DUP2 MSTORE DUP8 DUP3 AND PUSH1 0x60 DUP8 ADD SWAP1 DUP2 MSTORE PUSH1 0x1 PUSH1 0x1 PUSH1 0xA0 SHL SUB DUP13 DUP2 AND DUP8 MSTORE PUSH1 0x99 SWAP1 SWAP6 MSTORE SWAP5 DUP8 SWAP1 KECCAK256 SWAP6 MLOAD DUP7 SSTORE SWAP2 MLOAD PUSH1 0x1 DUP7 ADD SSTORE SWAP1 MLOAD PUSH1 0x2 SWAP1 SWAP5 ADD DUP1 SLOAD SWAP4 MLOAD DUP3 AND PUSH1 0x1 PUSH1 0x40 SHL MUL PUSH1 0x1 PUSH1 0x1 PUSH1 0x80 SHL SUB NOT SWAP1 SWAP5 AND SWAP5 SWAP1 SWAP2 AND SWAP4 SWAP1 SWAP4 OR SWAP2 SWAP1 SWAP2 OR SWAP1 SWAP2 SSTORE PUSH1 0x97 SLOAD SWAP2 MLOAD PUSH4 0x70A08231 PUSH1 0xE0 SHL DUP2 MSTORE ADDRESS PUSH1 0x4 DUP3 ADD MSTORE DUP6 SWAP3 SWAP1 SWAP2 AND SWAP1 PUSH4 0x70A08231 SWAP1 PUSH1 0x24 ADD PUSH1 0x20 PUSH1 0x40 MLOAD DUP1 DUP4 SUB DUP2 DUP7 GAS STATICCALL ISZERO DUP1 ISZERO PUSH2 0x8C5 JUMPI RETURNDATASIZE PUSH1 0x0 DUP1 RETURNDATACOPY RETURNDATASIZE PUSH1 0x0 REVERT JUMPDEST POP POP POP POP PUSH1 0x40 MLOAD RETURNDATASIZE PUSH1 0x1F NOT PUSH1 0x1F DUP3 ADD AND DUP3 ADD DUP1 PUSH1 0x40 MSTORE POP DUP2 ADD SWAP1 PUSH2 0x8E9 SWAP2 SWAP1 PUSH2 0x1330 JUMP JUMPDEST LT ISZERO PUSH2 0x943 JUMPI PUSH1 0x40 MLOAD PUSH3 0x461BCD PUSH1 0xE5 SHL DUP2 MSTORE PUSH1 0x20 PUSH1 0x4 DUP3 ADD MSTORE PUSH1 0x23 PUSH1 0x24 DUP3 ADD MSTORE PUSH32 0x496E73756666696369656E7420746F6B656E2062616C616E636520696E205661 PUSH1 0x44 DUP3 ADD MSTORE PUSH3 0x1D5B1D PUSH1 0xEA SHL PUSH1 0x64 DUP3 ADD MSTORE PUSH1 0x84 ADD PUSH2 0x312 JUMP JUMPDEST PUSH1 0x40 DUP1 MLOAD DUP5 DUP2 MSTORE PUSH1 0x1 PUSH1 0x1 PUSH1 0x40 SHL SUB DUP5 DUP2 AND PUSH1 0x20 DUP4 ADD MSTORE DUP4 AND DUP2 DUP4 ADD MSTORE SWAP1 MLOAD PUSH1 0x1 PUSH1 0x1 PUSH1 0xA0 SHL SUB DUP7 AND SWAP2 PUSH32 0x41CFD41BA70C64774E585019623AFC350E9F7407134786177B1EBC6918470B4A SWAP2 SWAP1 DUP2 SWAP1 SUB PUSH1 0x60 ADD SWAP1 LOG2 POP POP POP POP JUMP JUMPDEST PUSH1 0x98 SLOAD PUSH1 0x1 PUSH1 0x1 PUSH1 0xA0 SHL SUB AND CALLER EQ DUP1 PUSH2 0x9C1 JUMPI POP PUSH1 0x33 SLOAD PUSH1 0x1 PUSH1 0x1 PUSH1 0xA0 SHL SUB AND CALLER EQ JUMPDEST DUP1 PUSH2 0x9DB JUMPI POP CALLER PUSH1 0x0 SWAP1 DUP2 MSTORE PUSH1 0x9A PUSH1 0x20 MSTORE PUSH1 0x40 SWAP1 KECCAK256 SLOAD PUSH1 0xFF AND JUMPDEST PUSH2 0xA18 JUMPI PUSH1 0x40 MLOAD PUSH3 0x461BCD PUSH1 0xE5 SHL DUP2 MSTORE PUSH1 0x20 PUSH1 0x4 DUP3 ADD MSTORE PUSH1 0xE PUSH1 0x24 DUP3 ADD MSTORE PUSH14 0x139BDD08185D5D1A1BDC9A5E9959 PUSH1 0x92 SHL PUSH1 0x44 DUP3 ADD MSTORE PUSH1 0x64 ADD PUSH2 0x312 JUMP JUMPDEST DUP5 DUP4 EQ PUSH2 0xA5F JUMPI PUSH1 0x40 MLOAD PUSH3 0x461BCD PUSH1 0xE5 SHL DUP2 MSTORE PUSH1 0x20 PUSH1 0x4 DUP3 ADD MSTORE PUSH1 0x15 PUSH1 0x24 DUP3 ADD MSTORE PUSH21 0x82E4E4C2F240D8CADCCEE8D040DAD2E6DAC2E8C6D PUSH1 0x5B SHL PUSH1 0x44 DUP3 ADD MSTORE PUSH1 0x64 ADD PUSH2 0x312 JUMP JUMPDEST PUSH1 0x0 DUP2 PUSH1 0x1 PUSH1 0x1 PUSH1 0x40 SHL SUB AND GT PUSH2 0xAAF JUMPI PUSH1 0x40 MLOAD PUSH3 0x461BCD PUSH1 0xE5 SHL DUP2 MSTORE PUSH1 0x20 PUSH1 0x4 DUP3 ADD MSTORE PUSH1 0x14 PUSH1 0x24 DUP3 ADD MSTORE PUSH20 0x4475726174696F6E206D757374206265203E203 PUSH1 0x64 SHL PUSH1 0x44 DUP3 ADD MSTORE PUSH1 0x64 ADD PUSH2 0x312 JUMP JUMPDEST PUSH1 0x0 DUP1 JUMPDEST DUP7 DUP2 LT ISZERO PUSH2 0xCE2 JUMPI PUSH1 0x99 PUSH1 0x0 DUP10 DUP10 DUP5 DUP2 DUP2 LT PUSH2 0xAD1 JUMPI PUSH2 0xAD1 PUSH2 0x1349 JUMP JUMPDEST SWAP1 POP PUSH1 0x20 MUL ADD PUSH1 0x20 DUP2 ADD SWAP1 PUSH2 0xAE6 SWAP2 SWAP1 PUSH2 0x12B3 JUMP JUMPDEST PUSH1 0x1 PUSH1 0x1 PUSH1 0xA0 SHL SUB AND DUP2 MSTORE PUSH1 0x20 DUP2 ADD SWAP2 SWAP1 SWAP2 MSTORE PUSH1 0x40 ADD PUSH1 0x0 KECCAK256 SLOAD ISZERO PUSH2 0xB3E JUMPI PUSH1 0x40 MLOAD PUSH3 0x461BCD PUSH1 0xE5 SHL DUP2 MSTORE PUSH1 0x20 PUSH1 0x4 DUP3 ADD MSTORE PUSH1 0xE PUSH1 0x24 DUP3 ADD MSTORE PUSH14 0x105B1C9958591E481D995CDD1959 PUSH1 0x92 SHL PUSH1 0x44 DUP3 ADD MSTORE PUSH1 0x64 ADD PUSH2 0x312 JUMP JUMPDEST PUSH1 0x40 MLOAD DUP1 PUSH1 0x80 ADD PUSH1 0x40 MSTORE DUP1 DUP8 DUP8 DUP5 DUP2 DUP2 LT PUSH2 0xB5B JUMPI PUSH2 0xB5B PUSH2 0x1349 JUMP JUMPDEST SWAP1 POP PUSH1 0x20 MUL ADD CALLDATALOAD DUP2 MSTORE PUSH1 0x20 ADD PUSH1 0x0 DUP2 MSTORE PUSH1 0x20 ADD DUP6 PUSH1 0x1 PUSH1 0x1 PUSH1 0x40 SHL SUB AND DUP2 MSTORE PUSH1 0x20 ADD DUP5 PUSH1 0x1 PUSH1 0x1 PUSH1 0x40 SHL SUB AND DUP2 MSTORE POP PUSH1 0x99 PUSH1 0x0 DUP11 DUP11 DUP6 DUP2 DUP2 LT PUSH2 0xBA0 JUMPI PUSH2 0xBA0 PUSH2 0x1349 JUMP JUMPDEST SWAP1 POP PUSH1 0x20 MUL ADD PUSH1 0x20 DUP2 ADD SWAP1 PUSH2 0xBB5 SWAP2 SWAP1 PUSH2 0x12B3 JUMP JUMPDEST PUSH1 0x1 PUSH1 0x1 PUSH1 0xA0 SHL SUB AND DUP2 MSTORE PUSH1 0x20 DUP1 DUP3 ADD SWAP3 SWAP1 SWAP3 MSTORE PUSH1 0x40 SWAP1 DUP2 ADD PUSH1 0x0 KECCAK256 DUP4 MLOAD DUP2 SSTORE SWAP2 DUP4 ADD MLOAD PUSH1 0x1 DUP4 ADD SSTORE DUP3 ADD MLOAD PUSH1 0x2 SWAP1 SWAP2 ADD DUP1 SLOAD PUSH1 0x60 SWAP1 SWAP4 ADD MLOAD PUSH1 0x1 PUSH1 0x1 PUSH1 0x40 SHL SUB SWAP1 DUP2 AND PUSH1 0x1 PUSH1 0x40 SHL MUL PUSH1 0x1 PUSH1 0x1 PUSH1 0x80 SHL SUB NOT SWAP1 SWAP5 AND SWAP3 AND SWAP2 SWAP1 SWAP2 OR SWAP2 SWAP1 SWAP2 OR SWAP1 SSTORE DUP8 DUP8 DUP3 DUP2 DUP2 LT PUSH2 0xC29 JUMPI PUSH2 0xC29 PUSH2 0x1349 JUMP JUMPDEST SWAP1 POP PUSH1 0x20 MUL ADD PUSH1 0x20 DUP2 ADD SWAP1 PUSH2 0xC3E SWAP2 SWAP1 PUSH2 0x12B3 JUMP JUMPDEST PUSH1 0x1 PUSH1 0x1 PUSH1 0xA0 SHL SUB AND PUSH32 0x41CFD41BA70C64774E585019623AFC350E9F7407134786177B1EBC6918470B4A DUP8 DUP8 DUP5 DUP2 DUP2 LT PUSH2 0xC7A JUMPI PUSH2 0xC7A PUSH2 0x1349 JUMP JUMPDEST SWAP1 POP PUSH1 0x20 MUL ADD CALLDATALOAD DUP7 DUP7 PUSH1 0x40 MLOAD PUSH2 0xCAC SWAP4 SWAP3 SWAP2 SWAP1 SWAP3 DUP4 MSTORE PUSH1 0x1 PUSH1 0x1 PUSH1 0x40 SHL SUB SWAP2 DUP3 AND PUSH1 0x20 DUP5 ADD MSTORE AND PUSH1 0x40 DUP3 ADD MSTORE PUSH1 0x60 ADD SWAP1 JUMP JUMPDEST PUSH1 0x40 MLOAD DUP1 SWAP2 SUB SWAP1 LOG2 DUP6 DUP6 DUP3 DUP2 DUP2 LT PUSH2 0xCC6 JUMPI PUSH2 0xCC6 PUSH2 0x1349 JUMP JUMPDEST SWAP1 POP PUSH1 0x20 MUL ADD CALLDATALOAD DUP3 PUSH2 0xCD8 SWAP2 SWAP1 PUSH2 0x1300 JUMP JUMPDEST SWAP2 POP PUSH1 0x1 ADD PUSH2 0xAB3 JUMP JUMPDEST POP PUSH1 0x97 SLOAD PUSH1 0x40 MLOAD PUSH4 0x70A08231 PUSH1 0xE0 SHL DUP2 MSTORE ADDRESS PUSH1 0x4 DUP3 ADD MSTORE DUP3 SWAP2 PUSH1 0x1 PUSH1 0x1 PUSH1 0xA0 SHL SUB AND SWAP1 PUSH4 0x70A08231 SWAP1 PUSH1 0x24 ADD PUSH1 0x20 PUSH1 0x40 MLOAD DUP1 DUP4 SUB DUP2 DUP7 GAS STATICCALL ISZERO DUP1 ISZERO PUSH2 0xD2B JUMPI RETURNDATASIZE PUSH1 0x0 DUP1 RETURNDATACOPY RETURNDATASIZE PUSH1 0x0 REVERT JUMPDEST POP POP POP POP PUSH1 0x40 MLOAD RETURNDATASIZE PUSH1 0x1F NOT PUSH1 0x1F DUP3 ADD AND DUP3 ADD DUP1 PUSH1 0x40 MSTORE POP DUP2 ADD SWAP1 PUSH2 0xD4F SWAP2 SWAP1 PUSH2 0x1330 JUMP JUMPDEST LT ISZERO PUSH2 0xD9D JUMPI PUSH1 0x40 MLOAD PUSH3 0x461BCD PUSH1 0xE5 SHL DUP2 MSTORE PUSH1 0x20 PUSH1 0x4 DUP3 ADD MSTORE PUSH1 0x1A PUSH1 0x24 DUP3 ADD MSTORE PUSH32 0x496E73756666696369656E74205661756C742062616C616E6365000000000000 PUSH1 0x44 DUP3 ADD MSTORE PUSH1 0x64 ADD PUSH2 0x312 JUMP JUMPDEST POP POP POP POP POP POP POP JUMP JUMPDEST PUSH2 0xDAE PUSH2 0xEF3 JUMP JUMPDEST PUSH1 0x1 PUSH1 0x1 PUSH1 0xA0 SHL SUB DUP2 AND PUSH2 0xE13 JUMPI PUSH1 0x40 MLOAD PUSH3 0x461BCD PUSH1 0xE5 SHL DUP2 MSTORE PUSH1 0x20 PUSH1 0x4 DUP3 ADD MSTORE PUSH1 0x26 PUSH1 0x24 DUP3 ADD MSTORE PUSH32 0x4F776E61626C653A206E6577206F776E657220697320746865207A65726F2061 PUSH1 0x44 DUP3 ADD MSTORE PUSH6 0x646472657373 PUSH1 0xD0 SHL PUSH1 0x64 DUP3 ADD MSTORE PUSH1 0x84 ADD PUSH2 0x312 JUMP JUMPDEST PUSH2 0xE1C DUP2 PUSH2 0xF4D JUMP JUMPDEST POP JUMP JUMPDEST PUSH1 0x1 PUSH1 0x1 PUSH1 0xA0 SHL SUB DUP2 AND PUSH1 0x0 SWAP1 DUP2 MSTORE PUSH1 0x99 PUSH1 0x20 SWAP1 DUP2 MSTORE PUSH1 0x40 DUP1 DUP4 KECCAK256 DUP1 SLOAD PUSH1 0x1 DUP3 ADD SLOAD PUSH1 0x2 DUP4 ADD SLOAD DUP5 MLOAD PUSH1 0x80 DUP2 ADD DUP7 MSTORE DUP4 DUP2 MSTORE SWAP6 DUP7 ADD DUP3 SWAP1 MSTORE PUSH1 0x1 PUSH1 0x1 PUSH1 0x40 SHL SUB DUP1 DUP3 AND SWAP6 DUP8 ADD DUP7 SWAP1 MSTORE PUSH1 0x1 PUSH1 0x40 SHL SWAP1 SWAP2 DIV AND PUSH1 0x60 DUP7 ADD DUP2 SWAP1 MSTORE SWAP2 SWAP6 SWAP1 SWAP5 SWAP2 SWAP3 SWAP1 SWAP2 PUSH2 0xE89 SWAP1 PUSH2 0xFF8 JUMP JUMPDEST SWAP2 POP POP SWAP2 SWAP4 SWAP6 SWAP1 SWAP3 SWAP5 POP JUMP JUMPDEST PUSH1 0x0 SLOAD PUSH2 0x100 SWAP1 DIV PUSH1 0xFF AND PUSH2 0xEBC JUMPI PUSH1 0x40 MLOAD PUSH3 0x461BCD PUSH1 0xE5 SHL DUP2 MSTORE PUSH1 0x4 ADD PUSH2 0x312 SWAP1 PUSH2 0x135F JUMP JUMPDEST PUSH2 0x4D5 PUSH2 0x1089 JUMP JUMPDEST PUSH1 0x0 SLOAD PUSH2 0x100 SWAP1 DIV PUSH1 0xFF AND PUSH2 0xEEB JUMPI PUSH1 0x40 MLOAD PUSH3 0x461BCD PUSH1 0xE5 SHL DUP2 MSTORE PUSH1 0x4 ADD PUSH2 0x312 SWAP1 PUSH2 0x135F JUMP JUMPDEST PUSH2 0x4D5 PUSH2 0x10B9 JUMP JUMPDEST PUSH1 0x33 SLOAD PUSH1 0x1 PUSH1 0x1 PUSH1 0xA0 SHL SUB AND CALLER EQ PUSH2 0x4D5 JUMPI PUSH1 0x40 MLOAD PUSH3 0x461BCD PUSH1 0xE5 SHL DUP2 MSTORE PUSH1 0x20 PUSH1 0x4 DUP3 ADD DUP2 SWAP1 MSTORE PUSH1 0x24 DUP3 ADD MSTORE PUSH32 0x4F776E61626C653A2063616C6C6572206973206E6F7420746865206F776E6572 PUSH1 0x44 DUP3 ADD MSTORE PUSH1 0x64 ADD PUSH2 0x312 JUMP JUMPDEST PUSH1 0x33 DUP1 SLOAD PUSH1 0x1 PUSH1 0x1 PUSH1 0xA0 SHL SUB DUP4 DUP2 AND PUSH1 0x1 PUSH1 0x1 PUSH1 0xA0 SHL SUB NOT DUP4 AND DUP2 OR SWAP1 SWAP4 SSTORE PUSH1 0x40 MLOAD SWAP2 AND SWAP2 SWAP1 DUP3 SWAP1 PUSH32 0x8BE0079C531659141344CD1FD0A4F28419497F9722A3DAAFE3B4186F6B6457E0 SWAP1 PUSH1 0x0 SWAP1 LOG3 POP POP JUMP JUMPDEST PUSH1 0x2 PUSH1 0x65 SLOAD SUB PUSH2 0xFF1 JUMPI PUSH1 0x40 MLOAD PUSH3 0x461BCD PUSH1 0xE5 SHL DUP2 MSTORE PUSH1 0x20 PUSH1 0x4 DUP3 ADD MSTORE PUSH1 0x1F PUSH1 0x24 DUP3 ADD MSTORE PUSH32 0x5265656E7472616E637947756172643A207265656E7472616E742063616C6C00 PUSH1 0x44 DUP3 ADD MSTORE PUSH1 0x64 ADD PUSH2 0x312 JUMP JUMPDEST PUSH1 0x2 PUSH1 0x65 SSTORE JUMP JUMPDEST PUSH1 0x0 DUP2 PUSH1 0x40 ADD MLOAD PUSH1 0x1 PUSH1 0x1 PUSH1 0x40 SHL SUB AND TIMESTAMP LT ISZERO PUSH2 0x1017 JUMPI POP PUSH1 0x0 SWAP2 SWAP1 POP JUMP JUMPDEST DUP2 PUSH1 0x60 ADD MLOAD DUP3 PUSH1 0x40 ADD MLOAD PUSH2 0x102B SWAP2 SWAP1 PUSH2 0x13AA JUMP JUMPDEST PUSH1 0x1 PUSH1 0x1 PUSH1 0x40 SHL SUB AND TIMESTAMP LT PUSH2 0x103F JUMPI POP MLOAD SWAP1 JUMP JUMPDEST DUP2 PUSH1 0x60 ADD MLOAD PUSH1 0x1 PUSH1 0x1 PUSH1 0x40 SHL SUB AND DUP3 PUSH1 0x40 ADD MLOAD PUSH1 0x1 PUSH1 0x1 PUSH1 0x40 SHL SUB AND TIMESTAMP PUSH2 0x1066 SWAP2 SWAP1 PUSH2 0x12ED JUMP JUMPDEST DUP4 MLOAD PUSH2 0x1072 SWAP2 SWAP1 PUSH2 0x13C9 JUMP JUMPDEST PUSH2 0x107C SWAP2 SWAP1 PUSH2 0x13E0 JUMP JUMPDEST SWAP3 SWAP2 POP POP JUMP JUMPDEST PUSH1 0x1 PUSH1 0x65 SSTORE JUMP JUMPDEST PUSH1 0x0 SLOAD PUSH2 0x100 SWAP1 DIV PUSH1 0xFF AND PUSH2 0x10B0 JUMPI PUSH1 0x40 MLOAD PUSH3 0x461BCD PUSH1 0xE5 SHL DUP2 MSTORE PUSH1 0x4 ADD PUSH2 0x312 SWAP1 PUSH2 0x135F JUMP JUMPDEST PUSH2 0x4D5 CALLER PUSH2 0xF4D JUMP JUMPDEST PUSH1 0x0 SLOAD PUSH2 0x100 SWAP1 DIV PUSH1 0xFF AND PUSH2 0x1082 JUMPI PUSH1 0x40 MLOAD PUSH3 0x461BCD PUSH1 0xE5 SHL DUP2 MSTORE PUSH1 0x4 ADD PUSH2 0x312 SWAP1 PUSH2 0x135F JUMP JUMPDEST PUSH1 0x1 PUSH1 0x1 PUSH1 0xA0 SHL SUB DUP2 AND DUP2 EQ PUSH2 0xE1C JUMPI PUSH1 0x0 DUP1 REVERT JUMPDEST PUSH1 0x0 DUP1 PUSH1 0x40 DUP4 DUP6 SUB SLT ISZERO PUSH2 0x1108 JUMPI PUSH1 0x0 DUP1 REVERT JUMPDEST DUP3 CALLDATALOAD PUSH2 0x1113 DUP2 PUSH2 0x10E0 JUMP JUMPDEST SWAP2 POP PUSH1 0x20 DUP4 ADD CALLDATALOAD PUSH2 0x1123 DUP2 PUSH2 0x10E0 JUMP JUMPDEST DUP1 SWAP2 POP POP SWAP3 POP SWAP3 SWAP1 POP JUMP JUMPDEST DUP1 ISZERO ISZERO DUP2 EQ PUSH2 0xE1C JUMPI PUSH1 0x0 DUP1 REVERT JUMPDEST PUSH1 0x0 DUP1 PUSH1 0x40 DUP4 DUP6 SUB SLT ISZERO PUSH2 0x114F JUMPI PUSH1 0x0 DUP1 REVERT JUMPDEST DUP3 CALLDATALOAD PUSH2 0x115A DUP2 PUSH2 0x10E0 JUMP JUMPDEST SWAP2 POP PUSH1 0x20 DUP4 ADD CALLDATALOAD PUSH2 0x1123 DUP2 PUSH2 0x112E JUMP JUMPDEST DUP1 CALLDATALOAD PUSH1 0x1 PUSH1 0x1 PUSH1 0x40 SHL SUB DUP2 AND DUP2 EQ PUSH2 0x1181 JUMPI PUSH1 0x0 DUP1 REVERT JUMPDEST SWAP2 SWAP1 POP JUMP JUMPDEST PUSH1 0x0 DUP1 PUSH1 0x0 DUP1 PUSH1 0x80 DUP6 DUP8 SUB SLT ISZERO PUSH2 0x119C JUMPI PUSH1 0x0 DUP1 REVERT JUMPDEST DUP5 CALLDATALOAD PUSH2 0x11A7 DUP2 PUSH2 0x10E0 JUMP JUMPDEST SWAP4 POP PUSH1 0x20 DUP6 ADD CALLDATALOAD SWAP3 POP PUSH2 0x11BC PUSH1 0x40 DUP7 ADD PUSH2 0x116A JUMP JUMPDEST SWAP2 POP PUSH2 0x11CA PUSH1 0x60 DUP7 ADD PUSH2 0x116A JUMP JUMPDEST SWAP1 POP SWAP3 SWAP6 SWAP2 SWAP5 POP SWAP3 POP JUMP JUMPDEST PUSH1 0x0 DUP1 DUP4 PUSH1 0x1F DUP5 ADD SLT PUSH2 0x11E7 JUMPI PUSH1 0x0 DUP1 REVERT JUMPDEST POP DUP2 CALLDATALOAD PUSH1 0x1 PUSH1 0x1 PUSH1 0x40 SHL SUB DUP2 GT ISZERO PUSH2 0x11FE JUMPI PUSH1 0x0 DUP1 REVERT JUMPDEST PUSH1 0x20 DUP4 ADD SWAP2 POP DUP4 PUSH1 0x20 DUP3 PUSH1 0x5 SHL DUP6 ADD ADD GT ISZERO PUSH2 0x1219 JUMPI PUSH1 0x0 DUP1 REVERT JUMPDEST SWAP3 POP SWAP3 SWAP1 POP JUMP JUMPDEST PUSH1 0x0 DUP1 PUSH1 0x0 DUP1 PUSH1 0x0 DUP1 PUSH1 0x80 DUP8 DUP10 SUB SLT ISZERO PUSH2 0x1239 JUMPI PUSH1 0x0 DUP1 REVERT JUMPDEST DUP7 CALLDATALOAD PUSH1 0x1 PUSH1 0x1 PUSH1 0x40 SHL SUB DUP2 GT ISZERO PUSH2 0x124F JUMPI PUSH1 0x0 DUP1 REVERT JUMPDEST PUSH2 0x125B DUP10 DUP3 DUP11 ADD PUSH2 0x11D5 JUMP JUMPDEST SWAP1 SWAP8 POP SWAP6 POP POP PUSH1 0x20 DUP8 ADD CALLDATALOAD PUSH1 0x1 PUSH1 0x1 PUSH1 0x40 SHL SUB DUP2 GT ISZERO PUSH2 0x127A JUMPI PUSH1 0x0 DUP1 REVERT JUMPDEST PUSH2 0x1286 DUP10 DUP3 DUP11 ADD PUSH2 0x11D5 JUMP JUMPDEST SWAP1 SWAP6 POP SWAP4 POP PUSH2 0x1299 SWAP1 POP PUSH1 0x40 DUP9 ADD PUSH2 0x116A JUMP JUMPDEST SWAP2 POP PUSH2 0x12A7 PUSH1 0x60 DUP9 ADD PUSH2 0x116A JUMP JUMPDEST SWAP1 POP SWAP3 SWAP6 POP SWAP3 SWAP6 POP SWAP3 SWAP6 JUMP JUMPDEST PUSH1 0x0 PUSH1 0x20 DUP3 DUP5 SUB SLT ISZERO PUSH2 0x12C5 JUMPI PUSH1 0x0 DUP1 REVERT JUMPDEST DUP2 CALLDATALOAD PUSH2 0x12D0 DUP2 PUSH2 0x10E0 JUMP JUMPDEST SWAP4 SWAP3 POP POP POP JUMP JUMPDEST PUSH4 0x4E487B71 PUSH1 0xE0 SHL PUSH1 0x0 MSTORE PUSH1 0x11 PUSH1 0x4 MSTORE PUSH1 0x24 PUSH1 0x0 REVERT JUMPDEST DUP2 DUP2 SUB DUP2 DUP2 GT ISZERO PUSH2 0x107C JUMPI PUSH2 0x107C PUSH2 0x12D7 JUMP JUMPDEST DUP1 DUP3 ADD DUP1 DUP3 GT ISZERO PUSH2 0x107C JUMPI PUSH2 0x107C PUSH2 0x12D7 JUMP JUMPDEST PUSH1 0x0 PUSH1 0x20 DUP3 DUP5 SUB SLT ISZERO PUSH2 0x1325 JUMPI PUSH1 0x0 DUP1 REVERT JUMPDEST DUP2 MLOAD PUSH2 0x12D0 DUP2 PUSH2 0x112E JUMP JUMPDEST PUSH1 0x0 PUSH1 0x20 DUP3 DUP5 SUB SLT ISZERO PUSH2 0x1342 JUMPI PUSH1 0x0 DUP1 REVERT JUMPDEST POP MLOAD SWAP2 SWAP1 POP JUMP JUMPDEST PUSH4 0x4E487B71 PUSH1 0xE0 SHL PUSH1 0x0 MSTORE PUSH1 0x32 PUSH1 0x4 MSTORE PUSH1 0x24 PUSH1 0x0 REVERT JUMPDEST PUSH1 0x20 DUP1 DUP3 MSTORE PUSH1 0x2B SWAP1 DUP3 ADD MSTORE PUSH32 0x496E697469616C697A61626C653A20636F6E7472616374206973206E6F742069 PUSH1 0x40 DUP3 ADD MSTORE PUSH11 0x6E697469616C697A696E67 PUSH1 0xA8 SHL PUSH1 0x60 DUP3 ADD MSTORE PUSH1 0x80 ADD SWAP1 JUMP JUMPDEST PUSH1 0x1 PUSH1 0x1 PUSH1 0x40 SHL SUB DUP2 DUP2 AND DUP4 DUP3 AND ADD SWAP1 DUP2 GT ISZERO PUSH2 0x107C JUMPI PUSH2 0x107C PUSH2 0x12D7 JUMP JUMPDEST DUP1 DUP3 MUL DUP2 ISZERO DUP3 DUP3 DIV DUP5 EQ OR PUSH2 0x107C JUMPI PUSH2 0x107C PUSH2 0x12D7 JUMP JUMPDEST PUSH1 0x0 DUP3 PUSH2 0x13FD JUMPI PUSH4 0x4E487B71 PUSH1 0xE0 SHL PUSH1 0x0 MSTORE PUSH1 0x12 PUSH1 0x4 MSTORE PUSH1 0x24 PUSH1 0x0 REVERT JUMPDEST POP DIV SWAP1 JUMP INVALID LOG2 PUSH5 0x6970667358 0x22 SLT KECCAK256 0xDF LT 0x29 LOG4 PUSH26 0x85C43AFB55970DE10CEE433E3D032226A43DF4D5AB43612B03C7 SWAP16 PUSH5 0x736F6C6343 STOP ADDMOD SAR STOP CALLER "},"methodIdentifiers":{"HAYQ()":"1b554242","authorized(address)":"b9181611","batchCreateVesting(address[],uint256[],uint64,uint64)":"a66a1af5","createVesting(address,uint256,uint64,uint64)":"941e828e","getVestingInfo(address)":"fb897ce4","initialize(address,address)":"485cc955","owner()":"8da5cb5b","release()":"86d1a69f","renounceOwnership()":"715018a6","setAuthorized(address,bool)":"711bf9b2","token()":"fc0c546a","transferOwnership(address)":"f2fde38b","vestings(address)":"daf49863"}},"storageLayout":{"storage":[{"astId":139,"contract":"contracts/VestingVaultUpgradeable.sol:VestingVaultUpgradeable","label":"_initialized","offset":0,"slot":"0","type":"t_uint8"},{"astId":142,"contract":"contracts/VestingVaultUpgradeable.sol:VestingVaultUpgradeable","label":"_initializing","offset":1,"slot":"0","type":"t_bool"},{"astId":1987,"contract":"contracts/VestingVaultUpgradeable.sol:VestingVaultUpgradeable","label":"__gap","offset":0,"slot":"1","type":"t_array(t_uint256)50_storage"},{"astId":11,"contract":"contracts/VestingVaultUpgradeable.sol:VestingVaultUpgradeable","label":"_owner","offset":0,"slot":"51","type":"t_address"},{"astId":131,"contract":"contracts/VestingVaultUpgradeable.sol:VestingVaultUpgradeable","label":"__gap","offset":0,"slot":"52","type":"t_array(t_uint256)49_storage"},{"astId":316,"contract":"contracts/VestingVaultUpgradeable.sol:VestingVaultUpgradeable","label":"_status","offset":0,"slot":"101","type":"t_uint256"},{"astId":385,"contract":"contracts/VestingVaultUpgradeable.sol:VestingVaultUpgradeable","label":"__gap","offset":0,"slot":"102","type":"t_array(t_uint256)49_storage"},{"astId":6166,"contract":"contracts/VestingVaultUpgradeable.sol:VestingVaultUpgradeable","label":"token","offset":0,"slot":"151","type":"t_contract(IERC20Upgradeable)1077"},{"astId":6168,"contract":"contracts/VestingVaultUpgradeable.sol:VestingVaultUpgradeable","label":"HAYQ","offset":0,"slot":"152","type":"t_address"},{"astId":6182,"contract":"contracts/VestingVaultUpgradeable.sol:VestingVaultUpgradeable","label":"vestings","offset":0,"slot":"153","type":"t_mapping(t_address,t_struct(VestingSchedule)6177_storage)"},{"astId":6186,"contract":"contracts/VestingVaultUpgradeable.sol:VestingVaultUpgradeable","label":"authorized","offset":0,"slot":"154","type":"t_mapping(t_address,t_bool)"}],"types":{"t_address":{"encoding":"inplace","label":"address","numberOfBytes":"20"},"t_array(t_uint256)49_storage":{"base":"t_uint256","encoding":"inplace","label":"uint256[49]","numberOfBytes":"1568"},"t_array(t_uint256)50_storage":{"base":"t_uint256","encoding":"inplace","label":"uint256[50]","numberOfBytes":"1600"},"t_bool":{"encoding":"inplace","label":"bool","numberOfBytes":"1"},"t_contract(IERC20Upgradeable)1077":{"encoding":"inplace","label":"contract IERC20Upgradeable","numberOfBytes":"20"},"t_mapping(t_address,t_bool)":{"encoding":"mapping","key":"t_address","label":"mapping(address => bool)","numberOfBytes":"32","value":"t_bool"},"t_mapping(t_address,t_struct(VestingSchedule)6177_storage)":{"encoding":"mapping","key":"t_address","label":"mapping(address => struct VestingVaultUpgradeable.VestingSchedule)","numberOfBytes":"32","value":"t_struct(VestingSchedule)6177_storage"},"t_struct(VestingSchedule)6177_storage":{"encoding":"inplace","label":"struct VestingVaultUpgradeable.VestingSchedule","members":[{"astId":6170,"contract":"contracts/VestingVaultUpgradeable.sol:VestingVaultUpgradeable","label":"totalAmount","offset":0,"slot":"0","type":"t_uint256"},{"astId":6172,"contract":"contracts/VestingVaultUpgradeable.sol:VestingVaultUpgradeable","label":"released","offset":0,"slot":"1","type":"t_uint256"},{"astId":6174,"contract":"contracts/VestingVaultUpgradeable.sol:VestingVaultUpgradeable","label":"start","offset":0,"slot":"2","type":"t_uint64"},{"astId":6176,"contract":"contracts/VestingVaultUpgradeable.sol:VestingVaultUpgradeable","label":"duration","offset":8,"slot":"2","type":"t_uint64"}],"numberOfBytes":"96"},"t_uint256":{"encoding":"inplace","label":"uint256","numberOfBytes":"32"},"t_uint64":{"encoding":"inplace","label":"uint64","numberOfBytes":"8"},"t_uint8":{"encoding":"inplace","label":"uint8","numberOfBytes":"1"}}}}}}