{"contracts/HAYQMiniMVP.sol":{"HAYQMiniMVP":{"abi":[{"inputs":[],"stateMutability":"nonpayable","type":"constructor"},{"anonymous":false,"inputs":[{"indexed":true,"internalType":"address","name":"owner","type":"address"},{"indexed":true,"internalType":"address","name":"spender","type":"address"},{"indexed":false,"internalType":"uint256","name":"value","type":"uint256"}],"name":"Approval","type":"event"},{"anonymous":false,"inputs":[{"indexed":false,"internalType":"uint256","name":"tokens","type":"uint256"},{"indexed":false,"internalType":"uint256","name":"minOut","type":"uint256"}],"name":"Buyback","type":"event"},{"anonymous":false,"inputs":[{"indexed":false,"internalType":"uint8","name":"version","type":"uint8"}],"name":"Initialized","type":"event"},{"anonymous":false,"inputs":[{"indexed":true,"internalType":"address","name":"previousOwner","type":"address"},{"indexed":true,"internalType":"address","name":"newOwner","type":"address"}],"name":"OwnershipTransferred","type":"event"},{"anonymous":false,"inputs":[{"indexed":false,"internalType":"uint256","name":"id","type":"uint256"}],"name":"Snapshot","type":"event"},{"anonymous":false,"inputs":[{"indexed":true,"internalType":"address","name":"user","type":"address"},{"indexed":false,"internalType":"uint256","name":"amount","type":"uint256"}],"name":"Staked","type":"event"},{"anonymous":false,"inputs":[{"indexed":true,"internalType":"address","name":"beneficiary","type":"address"},{"indexed":false,"internalType":"uint256","name":"amount","type":"uint256"},{"indexed":false,"internalType":"uint64","name":"start","type":"uint64"},{"indexed":false,"internalType":"uint64","name":"duration","type":"uint64"}],"name":"TeamVestingCreated","type":"event"},{"anonymous":false,"inputs":[{"indexed":true,"internalType":"address","name":"from","type":"address"},{"indexed":true,"internalType":"address","name":"to","type":"address"},{"indexed":false,"internalType":"uint256","name":"value","type":"uint256"}],"name":"Transfer","type":"event"},{"anonymous":false,"inputs":[{"indexed":true,"internalType":"address","name":"user","type":"address"},{"indexed":false,"internalType":"uint256","name":"amount","type":"uint256"}],"name":"Unstaked","type":"event"},{"inputs":[{"internalType":"address","name":"owner","type":"address"},{"internalType":"address","name":"spender","type":"address"}],"name":"allowance","outputs":[{"internalType":"uint256","name":"","type":"uint256"}],"stateMutability":"view","type":"function"},{"inputs":[{"internalType":"address","name":"user","type":"address"}],"name":"allowanceToRouter","outputs":[{"internalType":"uint256","name":"","type":"uint256"}],"stateMutability":"view","type":"function"},{"inputs":[{"internalType":"address","name":"spender","type":"address"},{"internalType":"uint256","name":"amount","type":"uint256"}],"name":"approve","outputs":[{"internalType":"bool","name":"","type":"bool"}],"stateMutability":"nonpayable","type":"function"},{"inputs":[{"internalType":"address","name":"account","type":"address"}],"name":"balanceOf","outputs":[{"internalType":"uint256","name":"","type":"uint256"}],"stateMutability":"view","type":"function"},{"inputs":[{"internalType":"address","name":"account","type":"address"},{"internalType":"uint256","name":"snapshotId","type":"uint256"}],"name":"balanceOfAt","outputs":[{"internalType":"uint256","name":"","type":"uint256"}],"stateMutability":"view","type":"function"},{"inputs":[{"internalType":"uint256","name":"tokenAmount","type":"uint256"},{"internalType":"uint256","name":"minOut","type":"uint256"}],"name":"buyback","outputs":[],"stateMutability":"nonpayable","type":"function"},{"inputs":[{"internalType":"address","name":"beneficiary","type":"address"},{"internalType":"uint256","name":"amount","type":"uint256"},{"internalType":"uint64","name":"start","type":"uint64"},{"internalType":"uint64","name":"duration","type":"uint64"}],"name":"createTeamVesting","outputs":[],"stateMutability":"nonpayable","type":"function"},{"inputs":[],"name":"decimals","outputs":[{"internalType":"uint8","name":"","type":"uint8"}],"stateMutability":"view","type":"function"},{"inputs":[{"internalType":"address","name":"spender","type":"address"},{"internalType":"uint256","name":"subtractedValue","type":"uint256"}],"name":"decreaseAllowance","outputs":[{"internalType":"bool","name":"","type":"bool"}],"stateMutability":"nonpayable","type":"function"},{"inputs":[{"internalType":"address","name":"spender","type":"address"},{"internalType":"uint256","name":"addedValue","type":"uint256"}],"name":"increaseAllowance","outputs":[{"internalType":"bool","name":"","type":"bool"}],"stateMutability":"nonpayable","type":"function"},{"inputs":[{"internalType":"uint256","name":"initialSupply","type":"uint256"},{"internalType":"address","name":"_router","type":"address"}],"name":"initialize","outputs":[],"stateMutability":"nonpayable","type":"function"},{"inputs":[],"name":"miniMVP","outputs":[{"internalType":"contract IHAYQMiniMVP","name":"","type":"address"}],"stateMutability":"view","type":"function"},{"inputs":[{"internalType":"address","name":"to","type":"address"},{"internalType":"uint256","name":"amount","type":"uint256"}],"name":"mint","outputs":[],"stateMutability":"nonpayable","type":"function"},{"inputs":[],"name":"name","outputs":[{"internalType":"string","name":"","type":"string"}],"stateMutability":"view","type":"function"},{"inputs":[],"name":"owner","outputs":[{"internalType":"address","name":"","type":"address"}],"stateMutability":"view","type":"function"},{"inputs":[],"name":"renounceOwnership","outputs":[],"stateMutability":"nonpayable","type":"function"},{"inputs":[],"name":"router","outputs":[{"internalType":"contract IRouter","name":"","type":"address"}],"stateMutability":"view","type":"function"},{"inputs":[{"internalType":"address","name":"_mini","type":"address"}],"name":"setMiniMVP","outputs":[],"stateMutability":"nonpayable","type":"function"},{"inputs":[{"internalType":"address","name":"_router","type":"address"}],"name":"setRouter","outputs":[],"stateMutability":"nonpayable","type":"function"},{"inputs":[{"internalType":"address","name":"_vault","type":"address"}],"name":"setVestingVault","outputs":[],"stateMutability":"nonpayable","type":"function"},{"inputs":[{"internalType":"address","name":"_vault","type":"address"}],"name":"setVestingVaultReadable","outputs":[],"stateMutability":"nonpayable","type":"function"},{"inputs":[],"name":"snapshot","outputs":[],"stateMutability":"nonpayable","type":"function"},{"inputs":[{"internalType":"uint256","name":"amount","type":"uint256"}],"name":"stake","outputs":[],"stateMutability":"nonpayable","type":"function"},{"inputs":[{"internalType":"address","name":"","type":"address"}],"name":"staked","outputs":[{"internalType":"uint256","name":"","type":"uint256"}],"stateMutability":"view","type":"function"},{"inputs":[{"internalType":"address","name":"user","type":"address"}],"name":"stakedBalanceOf","outputs":[{"internalType":"uint256","name":"","type":"uint256"}],"stateMutability":"view","type":"function"},{"inputs":[],"name":"symbol","outputs":[{"internalType":"string","name":"","type":"string"}],"stateMutability":"view","type":"function"},{"inputs":[],"name":"totalSupply","outputs":[{"internalType":"uint256","name":"","type":"uint256"}],"stateMutability":"view","type":"function"},{"inputs":[{"internalType":"uint256","name":"snapshotId","type":"uint256"}],"name":"totalSupplyAt","outputs":[{"internalType":"uint256","name":"","type":"uint256"}],"stateMutability":"view","type":"function"},{"inputs":[{"internalType":"address","name":"to","type":"address"},{"internalType":"uint256","name":"amount","type":"uint256"}],"name":"transfer","outputs":[{"internalType":"bool","name":"","type":"bool"}],"stateMutability":"nonpayable","type":"function"},{"inputs":[{"internalType":"address","name":"from","type":"address"},{"internalType":"address","name":"to","type":"address"},{"internalType":"uint256","name":"amount","type":"uint256"}],"name":"transferFrom","outputs":[{"internalType":"bool","name":"","type":"bool"}],"stateMutability":"nonpayable","type":"function"},{"inputs":[{"internalType":"address","name":"newOwner","type":"address"}],"name":"transferOwnership","outputs":[],"stateMutability":"nonpayable","type":"function"},{"inputs":[{"internalType":"uint256","name":"amount","type":"uint256"}],"name":"unstake","outputs":[],"stateMutability":"nonpayable","type":"function"},{"inputs":[{"internalType":"address","name":"user","type":"address"}],"name":"vestingReleased","outputs":[{"internalType":"uint256","name":"","type":"uint256"}],"stateMutability":"view","type":"function"},{"inputs":[{"internalType":"address","name":"user","type":"address"}],"name":"vestingTotal","outputs":[{"internalType":"uint256","name":"","type":"uint256"}],"stateMutability":"view","type":"function"},{"inputs":[],"name":"vestingVault","outputs":[{"internalType":"address","name":"","type":"address"}],"stateMutability":"view","type":"function"},{"inputs":[],"name":"vestingVaultReadable","outputs":[{"internalType":"contract IVestingVaultReadable","name":"","type":"address"}],"stateMutability":"view","type":"function"}],"evm":{"bytecode":{"linkReferences":{},"object":"6080604052348015600f57600080fd5b506016601a565b60d7565b600054610100900460ff161560855760405162461bcd60e51b815260206004820152602760248201527f496e697469616c697a61626c653a20636f6e747261637420697320696e697469604482015266616c697a696e6760c81b606482015260840160405180910390fd5b60005460ff9081161460d5576000805460ff191660ff9081179091556040519081527f7f26b83ff96e1f2b6a682f133852f6798a09c465da95921460cefb38474024989060200160405180910390a15b565b61204f806100e66000396000f3fe608060405234801561001057600080fd5b506004361061021c5760003560e01c806389f7eb2811610125578063a9059cbb116100ad578063c12a93971161007c578063c12a9397146104b8578063da35a26f146104cb578063dd62ed3e146104de578063f2fde38b146104f1578063f887ea401461050457600080fd5b8063a9059cbb1461046c578063a91468ba1461047f578063b9020b7814610492578063c0d78655146104a557600080fd5b8063981b24d0116100f4578063981b24d01461040057806398807d8414610413578063a457c2d714610433578063a5917baf14610446578063a694fc3a1461045957600080fd5b806389f7eb28146103cc5780638da5cb5b146103df57806395d89b41146103f05780639711715a146103f857600080fd5b806339509351116101a85780636202bbfe116101775780636202bbfe146103625780636e3821841461037557806370a0823114610388578063715018a6146103b1578063881726a7146103b957600080fd5b8063395093511461031657806340c10f1914610329578063460ddf8d1461033c5780634ee2cd7e1461034f57600080fd5b806316e530b4116101ef57806316e530b4146102c457806318160ddd146102d757806323b872dd146102df5780632e17de78146102f2578063313ce5671461030757600080fd5b806306fdde0314610221578063095ea7b31461023f57806312fb2db014610262578063167653911461028d575b600080fd5b610229610517565b6040516102369190611bf0565b60405180910390f35b61025261024d366004611c55565b6105a9565b6040519015158152602001610236565b60fc54610275906001600160a01b031681565b6040516001600160a01b039091168152602001610236565b6102b661029b366004611c7f565b6001600160a01b0316600090815260fd602052604090205490565b604051908152602001610236565b6102b66102d2366004611c7f565b6105c3565b6035546102b6565b6102526102ed366004611c9a565b61064d565b610305610300366004611cd7565b610671565b005b60405160128152602001610236565b610252610324366004611c55565b610743565b610305610337366004611c55565b610765565b61030561034a366004611cf0565b61078c565b6102b661035d366004611c55565b610848565b610305610370366004611c7f565b6108a1565b6102b6610383366004611c7f565b6108cb565b6102b6610396366004611c7f565b6001600160a01b031660009081526033602052604090205490565b610305610918565b6103056103c7366004611d2a565b61092c565b6103056103da366004611c7f565b610b39565b6097546001600160a01b0316610275565b610229610ba9565b610305610bb8565b6102b661040e366004611cd7565b610bc8565b6102b6610421366004611c7f565b60fd6020526000908152604090205481565b610252610441366004611c55565b610bf3565b60fe54610275906001600160a01b031681565b610305610467366004611cd7565b610c6e565b61025261047a366004611c55565b610d2c565b61030561048d366004611c7f565b610d3a565b60ff54610275906001600160a01b031681565b6103056104b3366004611c7f565b610daa565b6102b66104c6366004611c7f565b610e1b565b6103056104d9366004611d77565b610e6e565b6102b66104ec366004611da3565b61103e565b6103056104ff366004611c7f565b611069565b60fb54610275906001600160a01b031681565b60606036805461052690611dcd565b80601f016020809104026020016040519081016040528092919081815260200182805461055290611dcd565b801561059f5780601f106105745761010080835404028352916020019161059f565b820191906000526020600020905b81548152906001019060200180831161058257829003601f168201915b5050505050905090565b6000336105b78185856110df565b60019150505b92915050565b60ff546000906001600160a01b03166105de57506000919050565b60ff54604051632614965760e21b81526001600160a01b03848116600483015290911690639852595c906024015b602060405180830381865afa158015610629573d6000803e3d6000fd5b505050506040513d601f19601f820116820180604052508101906105bd9190611e07565b60003361065b858285611203565b61066685858561127d565b506001949350505050565b610679611433565b33600090815260fd60205260409020548111156106d15760405162461bcd60e51b8152602060048201526011602482015270139bdd08195b9bdd59da081cdd185ad959607a1b60448201526064015b60405180910390fd5b33600090815260fd6020526040812080548392906106f0908490611e36565b909155506107009050338261148c565b60405181815233907f0f5bb82176feb1b5e747e28471aa92156a04d9f3ab9f45f28e2d704232b93f75906020015b60405180910390a2610740600160c955565b50565b6000336105b7818585610756838361103e565b6107609190611e49565b6110df565b61076d611560565b6107888261078383670de0b6b3a7640000611e5c565b61148c565b5050565b610794611560565b61079c611433565b306000908152603360205260409020548211156107fb5760405162461bcd60e51b815260206004820152601d60248201527f4e6f7420656e6f75676820746f6b656e7320696e20636f6e747261637400000060448201526064016106c8565b61080530836115ba565b60408051838152602081018390527f4e57162cf2059954fd33f1ecaaf1832e379957714070ad171bc5382b18c98d3c910160405180910390a1610788600160c955565b6001600160a01b03821660009081526065602052604081208190819061086f9085906116fa565b9150915081610896576001600160a01b038516600090815260336020526040902054610898565b805b95945050505050565b6108a9611560565b60fc80546001600160a01b0319166001600160a01b0392909216919091179055565b60ff546000906001600160a01b03166108e657506000919050565b60ff5460405163b13e4a9d60e01b81526001600160a01b0384811660048301529091169063b13e4a9d9060240161060c565b610920611560565b61092a60006117f0565b565b610934611560565b60fe546001600160a01b03166109845760405162461bcd60e51b815260206004820152601560248201527415995cdd1a5b99c81d985d5b1d081b9bdd081cd95d605a1b60448201526064016106c8565b6001600160a01b0384166109d05760405162461bcd60e51b8152602060048201526013602482015272496e76616c69642062656e656669636961727960681b60448201526064016106c8565b60006109e484670de0b6b3a7640000611e5c565b33600090815260336020526040902054909150811115610a465760405162461bcd60e51b815260206004820181905260248201527f496e73756666696369656e742062616c616e636520666f722076657374696e6760448201526064016106c8565b60fe54610a5e9033906001600160a01b03168361127d565b60fe54604051634a0f414760e11b81526001600160a01b0387811660048301526024820184905267ffffffffffffffff8087166044840152851660648301529091169063941e828e90608401600060405180830381600087803b158015610ac457600080fd5b505af1158015610ad8573d6000803e3d6000fd5b50506040805184815267ffffffffffffffff878116602083015286168183015290516001600160a01b03891693507f7968e3052deb7937b8347ef1b8c9fa0ea913942e6f846a1cb18e0b9b4ad1d27592509081900360600190a25050505050565b610b41611560565b6001600160a01b038116610b875760405162461bcd60e51b815260206004820152600d60248201526c125b9d985b1a59081d985d5b1d609a1b60448201526064016106c8565b60ff80546001600160a01b0319166001600160a01b0392909216919091179055565b60606037805461052690611dcd565b610bc0611560565b610740611842565b6000806000610bd88460666116fa565b9150915081610be957603554610beb565b805b949350505050565b60003381610c01828661103e565b905083811015610c615760405162461bcd60e51b815260206004820152602560248201527f45524332303a2064656372656173656420616c6c6f77616e63652062656c6f77604482015264207a65726f60d81b60648201526084016106c8565b61066682868684036110df565b610c76611433565b33600090815260336020526040902054811115610ccc5760405162461bcd60e51b8152602060048201526014602482015273496e73756666696369656e742062616c616e636560601b60448201526064016106c8565b610cd633826115ba565b33600090815260fd602052604081208054839290610cf5908490611e49565b909155505060405181815233907f9e71bc8eea02a63969f509818f2dafb9254532904319f9dbda79b67bd34a5f3d9060200161072e565b6000336105b781858561127d565b610d42611560565b6001600160a01b038116610d885760405162461bcd60e51b815260206004820152600d60248201526c125b9d985b1a59081d985d5b1d609a1b60448201526064016106c8565b60fe80546001600160a01b0319166001600160a01b0392909216919091179055565b610db2611560565b6001600160a01b038116610df95760405162461bcd60e51b815260206004820152600e60248201526d24b73b30b634b2103937baba32b960911b60448201526064016106c8565b60fb80546001600160a01b0319166001600160a01b0392909216919091179055565b60fb546000906001600160a01b0316610e3657506000919050565b60fb54604051636eb1769f60e11b81526001600160a01b0380851660048301529091166024820152309063dd62ed3e9060440161060c565b600054610100900460ff1615808015610e8e5750600054600160ff909116105b80610ea85750303b158015610ea8575060005460ff166001145b610f0b5760405162461bcd60e51b815260206004820152602e60248201527f496e697469616c697a61626c653a20636f6e747261637420697320616c72656160448201526d191e481a5b9a5d1a585b1a5e995960921b60648201526084016106c8565b6000805460ff191660011790558015610f2e576000805461ff0019166101001790555b610f766040518060400160405280600a8152602001692420aca8902a37b5b2b760b11b815250604051806040016040528060048152602001634841595160e01b81525061189c565b610f7e6118cd565b610f866118f4565b610f8e611923565b6001600160a01b03821615610fb95760fb80546001600160a01b0319166001600160a01b0384161790555b60fc80546001600160a01b031990811690915560fe80548216905560ff80549091169055610ff33361078385670de0b6b3a7640000611e5c565b8015611039576000805461ff0019169055604051600181527f7f26b83ff96e1f2b6a682f133852f6798a09c465da95921460cefb38474024989060200160405180910390a15b505050565b6001600160a01b03918216600090815260346020908152604080832093909416825291909152205490565b611071611560565b6001600160a01b0381166110d65760405162461bcd60e51b815260206004820152602660248201527f4f776e61626c653a206e6577206f776e657220697320746865207a65726f206160448201526564647265737360d01b60648201526084016106c8565b610740816117f0565b6001600160a01b0383166111415760405162461bcd60e51b8152602060048201526024808201527f45524332303a20617070726f76652066726f6d20746865207a65726f206164646044820152637265737360e01b60648201526084016106c8565b6001600160a01b0382166111a25760405162461bcd60e51b815260206004820152602260248201527f45524332303a20617070726f766520746f20746865207a65726f206164647265604482015261737360f01b60648201526084016106c8565b6001600160a01b0383811660008181526034602090815260408083209487168084529482529182902085905590518481527f8c5be1e5ebec7d5bd14f71427d1e84f3dd0314c0f7b2291e5b200ac8c7c3b925910160405180910390a3505050565b600061120f848461103e565b90506000198114611277578181101561126a5760405162461bcd60e51b815260206004820152601d60248201527f45524332303a20696e73756666696369656e7420616c6c6f77616e636500000060448201526064016106c8565b61127784848484036110df565b50505050565b6001600160a01b0383166112e15760405162461bcd60e51b815260206004820152602560248201527f45524332303a207472616e736665722066726f6d20746865207a65726f206164604482015264647265737360d81b60648201526084016106c8565b6001600160a01b0382166113435760405162461bcd60e51b815260206004820152602360248201527f45524332303a207472616e7366657220746f20746865207a65726f206164647260448201526265737360e81b60648201526084016106c8565b61134e838383611952565b6001600160a01b038316600090815260336020526040902054818110156113c65760405162461bcd60e51b815260206004820152602660248201527f45524332303a207472616e7366657220616d6f756e7420657863656564732062604482015265616c616e636560d01b60648201526084016106c8565b6001600160a01b0380851660008181526033602052604080822086860390559286168082529083902080548601905591517fddf252ad1be2c89b69c2b068fc378daa952ba7f163c4a11628f55a4df523b3ef906114269086815260200190565b60405180910390a3611277565b600260c954036114855760405162461bcd60e51b815260206004820152601f60248201527f5265656e7472616e637947756172643a207265656e7472616e742063616c6c0060448201526064016106c8565b600260c955565b6001600160a01b0382166114e25760405162461bcd60e51b815260206004820152601f60248201527f45524332303a206d696e7420746f20746865207a65726f20616464726573730060448201526064016106c8565b6114ee60008383611952565b80603560008282546115009190611e49565b90915550506001600160a01b0382166000818152603360209081526040808320805486019055518481527fddf252ad1be2c89b69c2b068fc378daa952ba7f163c4a11628f55a4df523b3ef910160405180910390a35050565b600160c955565b6097546001600160a01b0316331461092a5760405162461bcd60e51b815260206004820181905260248201527f4f776e61626c653a2063616c6c6572206973206e6f7420746865206f776e657260448201526064016106c8565b6001600160a01b03821661161a5760405162461bcd60e51b815260206004820152602160248201527f45524332303a206275726e2066726f6d20746865207a65726f206164647265736044820152607360f81b60648201526084016106c8565b61162682600083611952565b6001600160a01b0382166000908152603360205260409020548181101561169a5760405162461bcd60e51b815260206004820152602260248201527f45524332303a206275726e20616d6f756e7420657863656564732062616c616e604482015261636560f01b60648201526084016106c8565b6001600160a01b03831660008181526033602090815260408083208686039055603580548790039055518581529192917fddf252ad1be2c89b69c2b068fc378daa952ba7f163c4a11628f55a4df523b3ef910160405180910390a3505050565b600080600084116117465760405162461bcd60e51b815260206004820152601660248201527504552433230536e617073686f743a20696420697320360541b60448201526064016106c8565b61174e61195d565b84111561179d5760405162461bcd60e51b815260206004820152601d60248201527f4552433230536e617073686f743a206e6f6e6578697374656e7420696400000060448201526064016106c8565b60006117a9848661196d565b845490915081036117c15760008092509250506117e9565b60018460010182815481106117d8576117d8611e73565b906000526020600020015492509250505b9250929050565b609780546001600160a01b038381166001600160a01b0319831681179093556040519116919082907f8be0079c531659141344cd1fd0a4f28419497f9722a3daafe3b4186f6b6457e090600090a35050565b6000611852606880546001019055565b600061185c61195d565b90507f8030e83b04d87bef53480e26263266d6ca66863aa8506aca6f2559d18aa1cb678160405161188f91815260200190565b60405180910390a1919050565b600054610100900460ff166118c35760405162461bcd60e51b81526004016106c890611e89565b6107888282611a1a565b600054610100900460ff1661092a5760405162461bcd60e51b81526004016106c890611e89565b600054610100900460ff1661191b5760405162461bcd60e51b81526004016106c890611e89565b61092a611a5a565b600054610100900460ff1661194a5760405162461bcd60e51b81526004016106c890611e89565b61092a611a8a565b611039838383611ab1565b600061196860685490565b905090565b81546000908103611980575060006105bd565b82546000905b808210156119cd57600061199a8383611af9565b600087815260209020909150859082015411156119b9578091506119c7565b6119c4816001611e49565b92505b50611986565b6000821180156119f95750836119f6866119e8600186611e36565b600091825260209091200190565b54145b15611a1257611a09600183611e36565b925050506105bd565b5090506105bd565b600054610100900460ff16611a415760405162461bcd60e51b81526004016106c890611e89565b6036611a4d8382611f38565b5060376110398282611f38565b600054610100900460ff16611a815760405162461bcd60e51b81526004016106c890611e89565b61092a336117f0565b600054610100900460ff166115595760405162461bcd60e51b81526004016106c890611e89565b6001600160a01b038316611ad057611ac882611b1b565b611039611b4e565b6001600160a01b038216611ae757611ac883611b1b565b611af083611b1b565b61103982611b1b565b6000611b086002848418611ff7565b611b1490848416611e49565b9392505050565b6001600160a01b03811660009081526065602090815260408083206033909252909120546107409190611b5c565b611b5c565b61092a6066611b4960355490565b6000611b6661195d565b905080611b7284611ba6565b1015611039578254600180820185556000858152602080822090930193909355938401805494850181558252902090910155565b80546000908103611bb957506000919050565b81548290611bc990600190611e36565b81548110611bd957611bd9611e73565b90600052602060002001549050919050565b919050565b602081526000825180602084015260005b81811015611c1e5760208186018101516040868401015201611c01565b506000604082850101526040601f19601f83011684010191505092915050565b80356001600160a01b0381168114611beb57600080fd5b60008060408385031215611c6857600080fd5b611c7183611c3e565b946020939093013593505050565b600060208284031215611c9157600080fd5b611b1482611c3e565b600080600060608486031215611caf57600080fd5b611cb884611c3e565b9250611cc660208501611c3e565b929592945050506040919091013590565b600060208284031215611ce957600080fd5b5035919050565b60008060408385031215611d0357600080fd5b50508035926020909101359150565b803567ffffffffffffffff81168114611beb57600080fd5b60008060008060808587031215611d4057600080fd5b611d4985611c3e565b935060208501359250611d5e60408601611d12565b9150611d6c60608601611d12565b905092959194509250565b60008060408385031215611d8a57600080fd5b82359150611d9a60208401611c3e565b90509250929050565b60008060408385031215611db657600080fd5b611dbf83611c3e565b9150611d9a60208401611c3e565b600181811c90821680611de157607f821691505b602082108103611e0157634e487b7160e01b600052602260045260246000fd5b50919050565b600060208284031215611e1957600080fd5b5051919050565b634e487b7160e01b600052601160045260246000fd5b818103818111156105bd576105bd611e20565b808201808211156105bd576105bd611e20565b80820281158282048414176105bd576105bd611e20565b634e487b7160e01b600052603260045260246000fd5b6020808252602b908201527f496e697469616c697a61626c653a20636f6e7472616374206973206e6f74206960408201526a6e697469616c697a696e6760a81b606082015260800190565b634e487b7160e01b600052604160045260246000fd5b601f82111561103957806000526020600020601f840160051c81016020851015611f115750805b601f840160051c820191505b81811015611f315760008155600101611f1d565b5050505050565b815167ffffffffffffffff811115611f5257611f52611ed4565b611f6681611f608454611dcd565b84611eea565b6020601f821160018114611f9a5760008315611f825750848201515b600019600385901b1c1916600184901b178455611f31565b600084815260208120601f198516915b82811015611fca5787850151825560209485019460019092019101611faa565b5084821015611fe85786840151600019600387901b60f8161c191681555b50505050600190811b01905550565b60008261201457634e487b7160e01b600052601260045260246000fd5b50049056fea264697066735822122025308627652a7a215bd523a6f3eff4d2da8ab7f587b9cf1752c9f695c9de3abd64736f6c634300081d0033","opcodes":"PUSH1 0x80 PUSH1 0x40 MSTORE CALLVALUE DUP1 ISZERO PUSH1 0xF JUMPI PUSH1 0x0 DUP1 REVERT JUMPDEST POP PUSH1 0x16 PUSH1 0x1A JUMP JUMPDEST PUSH1 0xD7 JUMP JUMPDEST PUSH1 0x0 SLOAD PUSH2 0x100 SWAP1 DIV PUSH1 0xFF AND ISZERO PUSH1 0x85 JUMPI PUSH1 0x40 MLOAD PUSH3 0x461BCD PUSH1 0xE5 SHL DUP2 MSTORE PUSH1 0x20 PUSH1 0x4 DUP3 ADD MSTORE PUSH1 0x27 PUSH1 0x24 DUP3 ADD MSTORE PUSH32 0x496E697469616C697A61626C653A20636F6E747261637420697320696E697469 PUSH1 0x44 DUP3 ADD MSTORE PUSH7 0x616C697A696E67 PUSH1 0xC8 SHL PUSH1 0x64 DUP3 ADD MSTORE PUSH1 0x84 ADD PUSH1 0x40 MLOAD DUP1 SWAP2 SUB SWAP1 REVERT JUMPDEST PUSH1 0x0 SLOAD PUSH1 0xFF SWAP1 DUP2 AND EQ PUSH1 0xD5 JUMPI PUSH1 0x0 DUP1 SLOAD PUSH1 0xFF NOT AND PUSH1 0xFF SWAP1 DUP2 OR SWAP1 SWAP2 SSTORE PUSH1 0x40 MLOAD SWAP1 DUP2 MSTORE PUSH32 0x7F26B83FF96E1F2B6A682F133852F6798A09C465DA95921460CEFB3847402498 SWAP1 PUSH1 0x20 ADD PUSH1 0x40 MLOAD DUP1 SWAP2 SUB SWAP1 LOG1 JUMPDEST JUMP JUMPDEST PUSH2 0x204F DUP1 PUSH2 0xE6 PUSH1 0x0 CODECOPY PUSH1 0x0 RETURN INVALID PUSH1 0x80 PUSH1 0x40 MSTORE CALLVALUE DUP1 ISZERO PUSH2 0x10 JUMPI PUSH1 0x0 DUP1 REVERT JUMPDEST POP PUSH1 0x4 CALLDATASIZE LT PUSH2 0x21C JUMPI PUSH1 0x0 CALLDATALOAD PUSH1 0xE0 SHR DUP1 PUSH4 0x89F7EB28 GT PUSH2 0x125 JUMPI DUP1 PUSH4 0xA9059CBB GT PUSH2 0xAD JUMPI DUP1 PUSH4 0xC12A9397 GT PUSH2 0x7C JUMPI DUP1 PUSH4 0xC12A9397 EQ PUSH2 0x4B8 JUMPI DUP1 PUSH4 0xDA35A26F EQ PUSH2 0x4CB JUMPI DUP1 PUSH4 0xDD62ED3E EQ PUSH2 0x4DE JUMPI DUP1 PUSH4 0xF2FDE38B EQ PUSH2 0x4F1 JUMPI DUP1 PUSH4 0xF887EA40 EQ PUSH2 0x504 JUMPI PUSH1 0x0 DUP1 REVERT JUMPDEST DUP1 PUSH4 0xA9059CBB EQ PUSH2 0x46C JUMPI DUP1 PUSH4 0xA91468BA EQ PUSH2 0x47F JUMPI DUP1 PUSH4 0xB9020B78 EQ PUSH2 0x492 JUMPI DUP1 PUSH4 0xC0D78655 EQ PUSH2 0x4A5 JUMPI PUSH1 0x0 DUP1 REVERT JUMPDEST DUP1 PUSH4 0x981B24D0 GT PUSH2 0xF4 JUMPI DUP1 PUSH4 0x981B24D0 EQ PUSH2 0x400 JUMPI DUP1 PUSH4 0x98807D84 EQ PUSH2 0x413 JUMPI DUP1 PUSH4 0xA457C2D7 EQ PUSH2 0x433 JUMPI DUP1 PUSH4 0xA5917BAF EQ PUSH2 0x446 JUMPI DUP1 PUSH4 0xA694FC3A EQ PUSH2 0x459 JUMPI PUSH1 0x0 DUP1 REVERT JUMPDEST DUP1 PUSH4 0x89F7EB28 EQ PUSH2 0x3CC JUMPI DUP1 PUSH4 0x8DA5CB5B EQ PUSH2 0x3DF JUMPI DUP1 PUSH4 0x95D89B41 EQ PUSH2 0x3F0 JUMPI DUP1 PUSH4 0x9711715A EQ PUSH2 0x3F8 JUMPI PUSH1 0x0 DUP1 REVERT JUMPDEST DUP1 PUSH4 0x39509351 GT PUSH2 0x1A8 JUMPI DUP1 PUSH4 0x6202BBFE GT PUSH2 0x177 JUMPI DUP1 PUSH4 0x6202BBFE EQ PUSH2 0x362 JUMPI DUP1 PUSH4 0x6E382184 EQ PUSH2 0x375 JUMPI DUP1 PUSH4 0x70A08231 EQ PUSH2 0x388 JUMPI DUP1 PUSH4 0x715018A6 EQ PUSH2 0x3B1 JUMPI DUP1 PUSH4 0x881726A7 EQ PUSH2 0x3B9 JUMPI PUSH1 0x0 DUP1 REVERT JUMPDEST DUP1 PUSH4 0x39509351 EQ PUSH2 0x316 JUMPI DUP1 PUSH4 0x40C10F19 EQ PUSH2 0x329 JUMPI DUP1 PUSH4 0x460DDF8D EQ PUSH2 0x33C JUMPI DUP1 PUSH4 0x4EE2CD7E EQ PUSH2 0x34F JUMPI PUSH1 0x0 DUP1 REVERT JUMPDEST DUP1 PUSH4 0x16E530B4 GT PUSH2 0x1EF JUMPI DUP1 PUSH4 0x16E530B4 EQ PUSH2 0x2C4 JUMPI DUP1 PUSH4 0x18160DDD EQ PUSH2 0x2D7 JUMPI DUP1 PUSH4 0x23B872DD EQ PUSH2 0x2DF JUMPI DUP1 PUSH4 0x2E17DE78 EQ PUSH2 0x2F2 JUMPI DUP1 PUSH4 0x313CE567 EQ PUSH2 0x307 JUMPI PUSH1 0x0 DUP1 REVERT JUMPDEST DUP1 PUSH4 0x6FDDE03 EQ PUSH2 0x221 JUMPI DUP1 PUSH4 0x95EA7B3 EQ PUSH2 0x23F JUMPI DUP1 PUSH4 0x12FB2DB0 EQ PUSH2 0x262 JUMPI DUP1 PUSH4 0x16765391 EQ PUSH2 0x28D JUMPI JUMPDEST PUSH1 0x0 DUP1 REVERT JUMPDEST PUSH2 0x229 PUSH2 0x517 JUMP JUMPDEST PUSH1 0x40 MLOAD PUSH2 0x236 SWAP2 SWAP1 PUSH2 0x1BF0 JUMP JUMPDEST PUSH1 0x40 MLOAD DUP1 SWAP2 SUB SWAP1 RETURN JUMPDEST PUSH2 0x252 PUSH2 0x24D CALLDATASIZE PUSH1 0x4 PUSH2 0x1C55 JUMP JUMPDEST PUSH2 0x5A9 JUMP JUMPDEST PUSH1 0x40 MLOAD SWAP1 ISZERO ISZERO DUP2 MSTORE PUSH1 0x20 ADD PUSH2 0x236 JUMP JUMPDEST PUSH1 0xFC SLOAD PUSH2 0x275 SWAP1 PUSH1 0x1 PUSH1 0x1 PUSH1 0xA0 SHL SUB AND DUP2 JUMP JUMPDEST PUSH1 0x40 MLOAD PUSH1 0x1 PUSH1 0x1 PUSH1 0xA0 SHL SUB SWAP1 SWAP2 AND DUP2 MSTORE PUSH1 0x20 ADD PUSH2 0x236 JUMP JUMPDEST PUSH2 0x2B6 PUSH2 0x29B CALLDATASIZE PUSH1 0x4 PUSH2 0x1C7F JUMP JUMPDEST PUSH1 0x1 PUSH1 0x1 PUSH1 0xA0 SHL SUB AND PUSH1 0x0 SWAP1 DUP2 MSTORE PUSH1 0xFD PUSH1 0x20 MSTORE PUSH1 0x40 SWAP1 KECCAK256 SLOAD SWAP1 JUMP JUMPDEST PUSH1 0x40 MLOAD SWAP1 DUP2 MSTORE PUSH1 0x20 ADD PUSH2 0x236 JUMP JUMPDEST PUSH2 0x2B6 PUSH2 0x2D2 CALLDATASIZE PUSH1 0x4 PUSH2 0x1C7F JUMP JUMPDEST PUSH2 0x5C3 JUMP JUMPDEST PUSH1 0x35 SLOAD PUSH2 0x2B6 JUMP JUMPDEST PUSH2 0x252 PUSH2 0x2ED CALLDATASIZE PUSH1 0x4 PUSH2 0x1C9A JUMP JUMPDEST PUSH2 0x64D JUMP JUMPDEST PUSH2 0x305 PUSH2 0x300 CALLDATASIZE PUSH1 0x4 PUSH2 0x1CD7 JUMP JUMPDEST PUSH2 0x671 JUMP JUMPDEST STOP JUMPDEST PUSH1 0x40 MLOAD PUSH1 0x12 DUP2 MSTORE PUSH1 0x20 ADD PUSH2 0x236 JUMP JUMPDEST PUSH2 0x252 PUSH2 0x324 CALLDATASIZE PUSH1 0x4 PUSH2 0x1C55 JUMP JUMPDEST PUSH2 0x743 JUMP JUMPDEST PUSH2 0x305 PUSH2 0x337 CALLDATASIZE PUSH1 0x4 PUSH2 0x1C55 JUMP JUMPDEST PUSH2 0x765 JUMP JUMPDEST PUSH2 0x305 PUSH2 0x34A CALLDATASIZE PUSH1 0x4 PUSH2 0x1CF0 JUMP JUMPDEST PUSH2 0x78C JUMP JUMPDEST PUSH2 0x2B6 PUSH2 0x35D CALLDATASIZE PUSH1 0x4 PUSH2 0x1C55 JUMP JUMPDEST PUSH2 0x848 JUMP JUMPDEST PUSH2 0x305 PUSH2 0x370 CALLDATASIZE PUSH1 0x4 PUSH2 0x1C7F JUMP JUMPDEST PUSH2 0x8A1 JUMP JUMPDEST PUSH2 0x2B6 PUSH2 0x383 CALLDATASIZE PUSH1 0x4 PUSH2 0x1C7F JUMP JUMPDEST PUSH2 0x8CB JUMP JUMPDEST PUSH2 0x2B6 PUSH2 0x396 CALLDATASIZE PUSH1 0x4 PUSH2 0x1C7F JUMP JUMPDEST PUSH1 0x1 PUSH1 0x1 PUSH1 0xA0 SHL SUB AND PUSH1 0x0 SWAP1 DUP2 MSTORE PUSH1 0x33 PUSH1 0x20 MSTORE PUSH1 0x40 SWAP1 KECCAK256 SLOAD SWAP1 JUMP JUMPDEST PUSH2 0x305 PUSH2 0x918 JUMP JUMPDEST PUSH2 0x305 PUSH2 0x3C7 CALLDATASIZE PUSH1 0x4 PUSH2 0x1D2A JUMP JUMPDEST PUSH2 0x92C JUMP JUMPDEST PUSH2 0x305 PUSH2 0x3DA CALLDATASIZE PUSH1 0x4 PUSH2 0x1C7F JUMP JUMPDEST PUSH2 0xB39 JUMP JUMPDEST PUSH1 0x97 SLOAD PUSH1 0x1 PUSH1 0x1 PUSH1 0xA0 SHL SUB AND PUSH2 0x275 JUMP JUMPDEST PUSH2 0x229 PUSH2 0xBA9 JUMP JUMPDEST PUSH2 0x305 PUSH2 0xBB8 JUMP JUMPDEST PUSH2 0x2B6 PUSH2 0x40E CALLDATASIZE PUSH1 0x4 PUSH2 0x1CD7 JUMP JUMPDEST PUSH2 0xBC8 JUMP JUMPDEST PUSH2 0x2B6 PUSH2 0x421 CALLDATASIZE PUSH1 0x4 PUSH2 0x1C7F JUMP JUMPDEST PUSH1 0xFD PUSH1 0x20 MSTORE PUSH1 0x0 SWAP1 DUP2 MSTORE PUSH1 0x40 SWAP1 KECCAK256 SLOAD DUP2 JUMP JUMPDEST PUSH2 0x252 PUSH2 0x441 CALLDATASIZE PUSH1 0x4 PUSH2 0x1C55 JUMP JUMPDEST PUSH2 0xBF3 JUMP JUMPDEST PUSH1 0xFE SLOAD PUSH2 0x275 SWAP1 PUSH1 0x1 PUSH1 0x1 PUSH1 0xA0 SHL SUB AND DUP2 JUMP JUMPDEST PUSH2 0x305 PUSH2 0x467 CALLDATASIZE PUSH1 0x4 PUSH2 0x1CD7 JUMP JUMPDEST PUSH2 0xC6E JUMP JUMPDEST PUSH2 0x252 PUSH2 0x47A CALLDATASIZE PUSH1 0x4 PUSH2 0x1C55 JUMP JUMPDEST PUSH2 0xD2C JUMP JUMPDEST PUSH2 0x305 PUSH2 0x48D CALLDATASIZE PUSH1 0x4 PUSH2 0x1C7F JUMP JUMPDEST PUSH2 0xD3A JUMP JUMPDEST PUSH1 0xFF SLOAD PUSH2 0x275 SWAP1 PUSH1 0x1 PUSH1 0x1 PUSH1 0xA0 SHL SUB AND DUP2 JUMP JUMPDEST PUSH2 0x305 PUSH2 0x4B3 CALLDATASIZE PUSH1 0x4 PUSH2 0x1C7F JUMP JUMPDEST PUSH2 0xDAA JUMP JUMPDEST PUSH2 0x2B6 PUSH2 0x4C6 CALLDATASIZE PUSH1 0x4 PUSH2 0x1C7F JUMP JUMPDEST PUSH2 0xE1B JUMP JUMPDEST PUSH2 0x305 PUSH2 0x4D9 CALLDATASIZE PUSH1 0x4 PUSH2 0x1D77 JUMP JUMPDEST PUSH2 0xE6E JUMP JUMPDEST PUSH2 0x2B6 PUSH2 0x4EC CALLDATASIZE PUSH1 0x4 PUSH2 0x1DA3 JUMP JUMPDEST PUSH2 0x103E JUMP JUMPDEST PUSH2 0x305 PUSH2 0x4FF CALLDATASIZE PUSH1 0x4 PUSH2 0x1C7F JUMP JUMPDEST PUSH2 0x1069 JUMP JUMPDEST PUSH1 0xFB SLOAD PUSH2 0x275 SWAP1 PUSH1 0x1 PUSH1 0x1 PUSH1 0xA0 SHL SUB AND DUP2 JUMP JUMPDEST PUSH1 0x60 PUSH1 0x36 DUP1 SLOAD PUSH2 0x526 SWAP1 PUSH2 0x1DCD JUMP JUMPDEST DUP1 PUSH1 0x1F ADD PUSH1 0x20 DUP1 SWAP2 DIV MUL PUSH1 0x20 ADD PUSH1 0x40 MLOAD SWAP1 DUP2 ADD PUSH1 0x40 MSTORE DUP1 SWAP3 SWAP2 SWAP1 DUP2 DUP2 MSTORE PUSH1 0x20 ADD DUP3 DUP1 SLOAD PUSH2 0x552 SWAP1 PUSH2 0x1DCD JUMP JUMPDEST DUP1 ISZERO PUSH2 0x59F JUMPI DUP1 PUSH1 0x1F LT PUSH2 0x574 JUMPI PUSH2 0x100 DUP1 DUP4 SLOAD DIV MUL DUP4 MSTORE SWAP2 PUSH1 0x20 ADD SWAP2 PUSH2 0x59F JUMP JUMPDEST DUP3 ADD SWAP2 SWAP1 PUSH1 0x0 MSTORE PUSH1 0x20 PUSH1 0x0 KECCAK256 SWAP1 JUMPDEST DUP2 SLOAD DUP2 MSTORE SWAP1 PUSH1 0x1 ADD SWAP1 PUSH1 0x20 ADD DUP1 DUP4 GT PUSH2 0x582 JUMPI DUP3 SWAP1 SUB PUSH1 0x1F AND DUP3 ADD SWAP2 JUMPDEST POP POP POP POP POP SWAP1 POP SWAP1 JUMP JUMPDEST PUSH1 0x0 CALLER PUSH2 0x5B7 DUP2 DUP6 DUP6 PUSH2 0x10DF JUMP JUMPDEST PUSH1 0x1 SWAP2 POP POP JUMPDEST SWAP3 SWAP2 POP POP JUMP JUMPDEST PUSH1 0xFF SLOAD PUSH1 0x0 SWAP1 PUSH1 0x1 PUSH1 0x1 PUSH1 0xA0 SHL SUB AND PUSH2 0x5DE JUMPI POP PUSH1 0x0 SWAP2 SWAP1 POP JUMP JUMPDEST PUSH1 0xFF SLOAD PUSH1 0x40 MLOAD PUSH4 0x26149657 PUSH1 0xE2 SHL DUP2 MSTORE PUSH1 0x1 PUSH1 0x1 PUSH1 0xA0 SHL SUB DUP5 DUP2 AND PUSH1 0x4 DUP4 ADD MSTORE SWAP1 SWAP2 AND SWAP1 PUSH4 0x9852595C SWAP1 PUSH1 0x24 ADD JUMPDEST PUSH1 0x20 PUSH1 0x40 MLOAD DUP1 DUP4 SUB DUP2 DUP7 GAS STATICCALL ISZERO DUP1 ISZERO PUSH2 0x629 JUMPI RETURNDATASIZE PUSH1 0x0 DUP1 RETURNDATACOPY RETURNDATASIZE PUSH1 0x0 REVERT JUMPDEST POP POP POP POP PUSH1 0x40 MLOAD RETURNDATASIZE PUSH1 0x1F NOT PUSH1 0x1F DUP3 ADD AND DUP3 ADD DUP1 PUSH1 0x40 MSTORE POP DUP2 ADD SWAP1 PUSH2 0x5BD SWAP2 SWAP1 PUSH2 0x1E07 JUMP JUMPDEST PUSH1 0x0 CALLER PUSH2 0x65B DUP6 DUP3 DUP6 PUSH2 0x1203 JUMP JUMPDEST PUSH2 0x666 DUP6 DUP6 DUP6 PUSH2 0x127D JUMP JUMPDEST POP PUSH1 0x1 SWAP5 SWAP4 POP POP POP POP JUMP JUMPDEST PUSH2 0x679 PUSH2 0x1433 JUMP JUMPDEST CALLER PUSH1 0x0 SWAP1 DUP2 MSTORE PUSH1 0xFD PUSH1 0x20 MSTORE PUSH1 0x40 SWAP1 KECCAK256 SLOAD DUP2 GT ISZERO PUSH2 0x6D1 JUMPI PUSH1 0x40 MLOAD PUSH3 0x461BCD PUSH1 0xE5 SHL DUP2 MSTORE PUSH1 0x20 PUSH1 0x4 DUP3 ADD MSTORE PUSH1 0x11 PUSH1 0x24 DUP3 ADD MSTORE PUSH17 0x139BDD08195B9BDD59DA081CDD185AD959 PUSH1 0x7A SHL PUSH1 0x44 DUP3 ADD MSTORE PUSH1 0x64 ADD JUMPDEST PUSH1 0x40 MLOAD DUP1 SWAP2 SUB SWAP1 REVERT JUMPDEST CALLER PUSH1 0x0 SWAP1 DUP2 MSTORE PUSH1 0xFD PUSH1 0x20 MSTORE PUSH1 0x40 DUP2 KECCAK256 DUP1 SLOAD DUP4 SWAP3 SWAP1 PUSH2 0x6F0 SWAP1 DUP5 SWAP1 PUSH2 0x1E36 JUMP JUMPDEST SWAP1 SWAP2 SSTORE POP PUSH2 0x700 SWAP1 POP CALLER DUP3 PUSH2 0x148C JUMP JUMPDEST PUSH1 0x40 MLOAD DUP2 DUP2 MSTORE CALLER SWAP1 PUSH32 0xF5BB82176FEB1B5E747E28471AA92156A04D9F3AB9F45F28E2D704232B93F75 SWAP1 PUSH1 0x20 ADD JUMPDEST PUSH1 0x40 MLOAD DUP1 SWAP2 SUB SWAP1 LOG2 PUSH2 0x740 PUSH1 0x1 PUSH1 0xC9 SSTORE JUMP JUMPDEST POP JUMP JUMPDEST PUSH1 0x0 CALLER PUSH2 0x5B7 DUP2 DUP6 DUP6 PUSH2 0x756 DUP4 DUP4 PUSH2 0x103E JUMP JUMPDEST PUSH2 0x760 SWAP2 SWAP1 PUSH2 0x1E49 JUMP JUMPDEST PUSH2 0x10DF JUMP JUMPDEST PUSH2 0x76D PUSH2 0x1560 JUMP JUMPDEST PUSH2 0x788 DUP3 PUSH2 0x783 DUP4 PUSH8 0xDE0B6B3A7640000 PUSH2 0x1E5C JUMP JUMPDEST PUSH2 0x148C JUMP JUMPDEST POP POP JUMP JUMPDEST PUSH2 0x794 PUSH2 0x1560 JUMP JUMPDEST PUSH2 0x79C PUSH2 0x1433 JUMP JUMPDEST ADDRESS PUSH1 0x0 SWAP1 DUP2 MSTORE PUSH1 0x33 PUSH1 0x20 MSTORE PUSH1 0x40 SWAP1 KECCAK256 SLOAD DUP3 GT ISZERO PUSH2 0x7FB JUMPI PUSH1 0x40 MLOAD PUSH3 0x461BCD PUSH1 0xE5 SHL DUP2 MSTORE PUSH1 0x20 PUSH1 0x4 DUP3 ADD MSTORE PUSH1 0x1D PUSH1 0x24 DUP3 ADD MSTORE PUSH32 0x4E6F7420656E6F75676820746F6B656E7320696E20636F6E7472616374000000 PUSH1 0x44 DUP3 ADD MSTORE PUSH1 0x64 ADD PUSH2 0x6C8 JUMP JUMPDEST PUSH2 0x805 ADDRESS DUP4 PUSH2 0x15BA JUMP JUMPDEST PUSH1 0x40 DUP1 MLOAD DUP4 DUP2 MSTORE PUSH1 0x20 DUP2 ADD DUP4 SWAP1 MSTORE PUSH32 0x4E57162CF2059954FD33F1ECAAF1832E379957714070AD171BC5382B18C98D3C SWAP2 ADD PUSH1 0x40 MLOAD DUP1 SWAP2 SUB SWAP1 LOG1 PUSH2 0x788 PUSH1 0x1 PUSH1 0xC9 SSTORE JUMP JUMPDEST PUSH1 0x1 PUSH1 0x1 PUSH1 0xA0 SHL SUB DUP3 AND PUSH1 0x0 SWAP1 DUP2 MSTORE PUSH1 0x65 PUSH1 0x20 MSTORE PUSH1 0x40 DUP2 KECCAK256 DUP2 SWAP1 DUP2 SWAP1 PUSH2 0x86F SWAP1 DUP6 SWAP1 PUSH2 0x16FA JUMP JUMPDEST SWAP2 POP SWAP2 POP DUP2 PUSH2 0x896 JUMPI PUSH1 0x1 PUSH1 0x1 PUSH1 0xA0 SHL SUB DUP6 AND PUSH1 0x0 SWAP1 DUP2 MSTORE PUSH1 0x33 PUSH1 0x20 MSTORE PUSH1 0x40 SWAP1 KECCAK256 SLOAD PUSH2 0x898 JUMP JUMPDEST DUP1 JUMPDEST SWAP6 SWAP5 POP POP POP POP POP JUMP JUMPDEST PUSH2 0x8A9 PUSH2 0x1560 JUMP JUMPDEST PUSH1 0xFC DUP1 SLOAD PUSH1 0x1 PUSH1 0x1 PUSH1 0xA0 SHL SUB NOT AND PUSH1 0x1 PUSH1 0x1 PUSH1 0xA0 SHL SUB SWAP3 SWAP1 SWAP3 AND SWAP2 SWAP1 SWAP2 OR SWAP1 SSTORE JUMP JUMPDEST PUSH1 0xFF SLOAD PUSH1 0x0 SWAP1 PUSH1 0x1 PUSH1 0x1 PUSH1 0xA0 SHL SUB AND PUSH2 0x8E6 JUMPI POP PUSH1 0x0 SWAP2 SWAP1 POP JUMP JUMPDEST PUSH1 0xFF SLOAD PUSH1 0x40 MLOAD PUSH4 0xB13E4A9D PUSH1 0xE0 SHL DUP2 MSTORE PUSH1 0x1 PUSH1 0x1 PUSH1 0xA0 SHL SUB DUP5 DUP2 AND PUSH1 0x4 DUP4 ADD MSTORE SWAP1 SWAP2 AND SWAP1 PUSH4 0xB13E4A9D SWAP1 PUSH1 0x24 ADD PUSH2 0x60C JUMP JUMPDEST PUSH2 0x920 PUSH2 0x1560 JUMP JUMPDEST PUSH2 0x92A PUSH1 0x0 PUSH2 0x17F0 JUMP JUMPDEST JUMP JUMPDEST PUSH2 0x934 PUSH2 0x1560 JUMP JUMPDEST PUSH1 0xFE SLOAD PUSH1 0x1 PUSH1 0x1 PUSH1 0xA0 SHL SUB AND PUSH2 0x984 JUMPI PUSH1 0x40 MLOAD PUSH3 0x461BCD PUSH1 0xE5 SHL DUP2 MSTORE PUSH1 0x20 PUSH1 0x4 DUP3 ADD MSTORE PUSH1 0x15 PUSH1 0x24 DUP3 ADD MSTORE PUSH21 0x15995CDD1A5B99C81D985D5B1D081B9BDD081CD95D PUSH1 0x5A SHL PUSH1 0x44 DUP3 ADD MSTORE PUSH1 0x64 ADD PUSH2 0x6C8 JUMP JUMPDEST PUSH1 0x1 PUSH1 0x1 PUSH1 0xA0 SHL SUB DUP5 AND PUSH2 0x9D0 JUMPI PUSH1 0x40 MLOAD PUSH3 0x461BCD PUSH1 0xE5 SHL DUP2 MSTORE PUSH1 0x20 PUSH1 0x4 DUP3 ADD MSTORE PUSH1 0x13 PUSH1 0x24 DUP3 ADD MSTORE PUSH19 0x496E76616C69642062656E6566696369617279 PUSH1 0x68 SHL PUSH1 0x44 DUP3 ADD MSTORE PUSH1 0x64 ADD PUSH2 0x6C8 JUMP JUMPDEST PUSH1 0x0 PUSH2 0x9E4 DUP5 PUSH8 0xDE0B6B3A7640000 PUSH2 0x1E5C JUMP JUMPDEST CALLER PUSH1 0x0 SWAP1 DUP2 MSTORE PUSH1 0x33 PUSH1 0x20 MSTORE PUSH1 0x40 SWAP1 KECCAK256 SLOAD SWAP1 SWAP2 POP DUP2 GT ISZERO PUSH2 0xA46 JUMPI PUSH1 0x40 MLOAD PUSH3 0x461BCD PUSH1 0xE5 SHL DUP2 MSTORE PUSH1 0x20 PUSH1 0x4 DUP3 ADD DUP2 SWAP1 MSTORE PUSH1 0x24 DUP3 ADD MSTORE PUSH32 0x496E73756666696369656E742062616C616E636520666F722076657374696E67 PUSH1 0x44 DUP3 ADD MSTORE PUSH1 0x64 ADD PUSH2 0x6C8 JUMP JUMPDEST PUSH1 0xFE SLOAD PUSH2 0xA5E SWAP1 CALLER SWAP1 PUSH1 0x1 PUSH1 0x1 PUSH1 0xA0 SHL SUB AND DUP4 PUSH2 0x127D JUMP JUMPDEST PUSH1 0xFE SLOAD PUSH1 0x40 MLOAD PUSH4 0x4A0F4147 PUSH1 0xE1 SHL DUP2 MSTORE PUSH1 0x1 PUSH1 0x1 PUSH1 0xA0 SHL SUB DUP8 DUP2 AND PUSH1 0x4 DUP4 ADD MSTORE PUSH1 0x24 DUP3 ADD DUP5 SWAP1 MSTORE PUSH8 0xFFFFFFFFFFFFFFFF DUP1 DUP8 AND PUSH1 0x44 DUP5 ADD MSTORE DUP6 AND PUSH1 0x64 DUP4 ADD MSTORE SWAP1 SWAP2 AND SWAP1 PUSH4 0x941E828E SWAP1 PUSH1 0x84 ADD PUSH1 0x0 PUSH1 0x40 MLOAD DUP1 DUP4 SUB DUP2 PUSH1 0x0 DUP8 DUP1 EXTCODESIZE ISZERO DUP1 ISZERO PUSH2 0xAC4 JUMPI PUSH1 0x0 DUP1 REVERT JUMPDEST POP GAS CALL ISZERO DUP1 ISZERO PUSH2 0xAD8 JUMPI RETURNDATASIZE PUSH1 0x0 DUP1 RETURNDATACOPY RETURNDATASIZE PUSH1 0x0 REVERT JUMPDEST POP POP PUSH1 0x40 DUP1 MLOAD DUP5 DUP2 MSTORE PUSH8 0xFFFFFFFFFFFFFFFF DUP8 DUP2 AND PUSH1 0x20 DUP4 ADD MSTORE DUP7 AND DUP2 DUP4 ADD MSTORE SWAP1 MLOAD PUSH1 0x1 PUSH1 0x1 PUSH1 0xA0 SHL SUB DUP10 AND SWAP4 POP PUSH32 0x7968E3052DEB7937B8347EF1B8C9FA0EA913942E6F846A1CB18E0B9B4AD1D275 SWAP3 POP SWAP1 DUP2 SWAP1 SUB PUSH1 0x60 ADD SWAP1 LOG2 POP POP POP POP POP JUMP JUMPDEST PUSH2 0xB41 PUSH2 0x1560 JUMP JUMPDEST PUSH1 0x1 PUSH1 0x1 PUSH1 0xA0 SHL SUB DUP2 AND PUSH2 0xB87 JUMPI PUSH1 0x40 MLOAD PUSH3 0x461BCD PUSH1 0xE5 SHL DUP2 MSTORE PUSH1 0x20 PUSH1 0x4 DUP3 ADD MSTORE PUSH1 0xD PUSH1 0x24 DUP3 ADD MSTORE PUSH13 0x125B9D985B1A59081D985D5B1D PUSH1 0x9A SHL PUSH1 0x44 DUP3 ADD MSTORE PUSH1 0x64 ADD PUSH2 0x6C8 JUMP JUMPDEST PUSH1 0xFF DUP1 SLOAD PUSH1 0x1 PUSH1 0x1 PUSH1 0xA0 SHL SUB NOT AND PUSH1 0x1 PUSH1 0x1 PUSH1 0xA0 SHL SUB SWAP3 SWAP1 SWAP3 AND SWAP2 SWAP1 SWAP2 OR SWAP1 SSTORE JUMP JUMPDEST PUSH1 0x60 PUSH1 0x37 DUP1 SLOAD PUSH2 0x526 SWAP1 PUSH2 0x1DCD JUMP JUMPDEST PUSH2 0xBC0 PUSH2 0x1560 JUMP JUMPDEST PUSH2 0x740 PUSH2 0x1842 JUMP JUMPDEST PUSH1 0x0 DUP1 PUSH1 0x0 PUSH2 0xBD8 DUP5 PUSH1 0x66 PUSH2 0x16FA JUMP JUMPDEST SWAP2 POP SWAP2 POP DUP2 PUSH2 0xBE9 JUMPI PUSH1 0x35 SLOAD PUSH2 0xBEB JUMP JUMPDEST DUP1 JUMPDEST SWAP5 SWAP4 POP POP POP POP JUMP JUMPDEST PUSH1 0x0 CALLER DUP2 PUSH2 0xC01 DUP3 DUP7 PUSH2 0x103E JUMP JUMPDEST SWAP1 POP DUP4 DUP2 LT ISZERO PUSH2 0xC61 JUMPI PUSH1 0x40 MLOAD PUSH3 0x461BCD PUSH1 0xE5 SHL DUP2 MSTORE PUSH1 0x20 PUSH1 0x4 DUP3 ADD MSTORE PUSH1 0x25 PUSH1 0x24 DUP3 ADD MSTORE PUSH32 0x45524332303A2064656372656173656420616C6C6F77616E63652062656C6F77 PUSH1 0x44 DUP3 ADD MSTORE PUSH5 0x207A65726F PUSH1 0xD8 SHL PUSH1 0x64 DUP3 ADD MSTORE PUSH1 0x84 ADD PUSH2 0x6C8 JUMP JUMPDEST PUSH2 0x666 DUP3 DUP7 DUP7 DUP5 SUB PUSH2 0x10DF JUMP JUMPDEST PUSH2 0xC76 PUSH2 0x1433 JUMP JUMPDEST CALLER PUSH1 0x0 SWAP1 DUP2 MSTORE PUSH1 0x33 PUSH1 0x20 MSTORE PUSH1 0x40 SWAP1 KECCAK256 SLOAD DUP2 GT ISZERO PUSH2 0xCCC JUMPI PUSH1 0x40 MLOAD PUSH3 0x461BCD PUSH1 0xE5 SHL DUP2 MSTORE PUSH1 0x20 PUSH1 0x4 DUP3 ADD MSTORE PUSH1 0x14 PUSH1 0x24 DUP3 ADD MSTORE PUSH20 0x496E73756666696369656E742062616C616E6365 PUSH1 0x60 SHL PUSH1 0x44 DUP3 ADD MSTORE PUSH1 0x64 ADD PUSH2 0x6C8 JUMP JUMPDEST PUSH2 0xCD6 CALLER DUP3 PUSH2 0x15BA JUMP JUMPDEST CALLER PUSH1 0x0 SWAP1 DUP2 MSTORE PUSH1 0xFD PUSH1 0x20 MSTORE PUSH1 0x40 DUP2 KECCAK256 DUP1 SLOAD DUP4 SWAP3 SWAP1 PUSH2 0xCF5 SWAP1 DUP5 SWAP1 PUSH2 0x1E49 JUMP JUMPDEST SWAP1 SWAP2 SSTORE POP POP PUSH1 0x40 MLOAD DUP2 DUP2 MSTORE CALLER SWAP1 PUSH32 0x9E71BC8EEA02A63969F509818F2DAFB9254532904319F9DBDA79B67BD34A5F3D SWAP1 PUSH1 0x20 ADD PUSH2 0x72E JUMP JUMPDEST PUSH1 0x0 CALLER PUSH2 0x5B7 DUP2 DUP6 DUP6 PUSH2 0x127D JUMP JUMPDEST PUSH2 0xD42 PUSH2 0x1560 JUMP JUMPDEST PUSH1 0x1 PUSH1 0x1 PUSH1 0xA0 SHL SUB DUP2 AND PUSH2 0xD88 JUMPI PUSH1 0x40 MLOAD PUSH3 0x461BCD PUSH1 0xE5 SHL DUP2 MSTORE PUSH1 0x20 PUSH1 0x4 DUP3 ADD MSTORE PUSH1 0xD PUSH1 0x24 DUP3 ADD MSTORE PUSH13 0x125B9D985B1A59081D985D5B1D PUSH1 0x9A SHL PUSH1 0x44 DUP3 ADD MSTORE PUSH1 0x64 ADD PUSH2 0x6C8 JUMP JUMPDEST PUSH1 0xFE DUP1 SLOAD PUSH1 0x1 PUSH1 0x1 PUSH1 0xA0 SHL SUB NOT AND PUSH1 0x1 PUSH1 0x1 PUSH1 0xA0 SHL SUB SWAP3 SWAP1 SWAP3 AND SWAP2 SWAP1 SWAP2 OR SWAP1 SSTORE JUMP JUMPDEST PUSH2 0xDB2 PUSH2 0x1560 JUMP JUMPDEST PUSH1 0x1 PUSH1 0x1 PUSH1 0xA0 SHL SUB DUP2 AND PUSH2 0xDF9 JUMPI PUSH1 0x40 MLOAD PUSH3 0x461BCD PUSH1 0xE5 SHL DUP2 MSTORE PUSH1 0x20 PUSH1 0x4 DUP3 ADD MSTORE PUSH1 0xE PUSH1 0x24 DUP3 ADD MSTORE PUSH14 0x24B73B30B634B2103937BABA32B9 PUSH1 0x91 SHL PUSH1 0x44 DUP3 ADD MSTORE PUSH1 0x64 ADD PUSH2 0x6C8 JUMP JUMPDEST PUSH1 0xFB DUP1 SLOAD PUSH1 0x1 PUSH1 0x1 PUSH1 0xA0 SHL SUB NOT AND PUSH1 0x1 PUSH1 0x1 PUSH1 0xA0 SHL SUB SWAP3 SWAP1 SWAP3 AND SWAP2 SWAP1 SWAP2 OR SWAP1 SSTORE JUMP JUMPDEST PUSH1 0xFB SLOAD PUSH1 0x0 SWAP1 PUSH1 0x1 PUSH1 0x1 PUSH1 0xA0 SHL SUB AND PUSH2 0xE36 JUMPI POP PUSH1 0x0 SWAP2 SWAP1 POP JUMP JUMPDEST PUSH1 0xFB SLOAD PUSH1 0x40 MLOAD PUSH4 0x6EB1769F PUSH1 0xE1 SHL DUP2 MSTORE PUSH1 0x1 PUSH1 0x1 PUSH1 0xA0 SHL SUB DUP1 DUP6 AND PUSH1 0x4 DUP4 ADD MSTORE SWAP1 SWAP2 AND PUSH1 0x24 DUP3 ADD MSTORE ADDRESS SWAP1 PUSH4 0xDD62ED3E SWAP1 PUSH1 0x44 ADD PUSH2 0x60C JUMP JUMPDEST PUSH1 0x0 SLOAD PUSH2 0x100 SWAP1 DIV PUSH1 0xFF AND ISZERO DUP1 DUP1 ISZERO PUSH2 0xE8E JUMPI POP PUSH1 0x0 SLOAD PUSH1 0x1 PUSH1 0xFF SWAP1 SWAP2 AND LT JUMPDEST DUP1 PUSH2 0xEA8 JUMPI POP ADDRESS EXTCODESIZE ISZERO DUP1 ISZERO PUSH2 0xEA8 JUMPI POP PUSH1 0x0 SLOAD PUSH1 0xFF AND PUSH1 0x1 EQ JUMPDEST PUSH2 0xF0B JUMPI PUSH1 0x40 MLOAD PUSH3 0x461BCD PUSH1 0xE5 SHL DUP2 MSTORE PUSH1 0x20 PUSH1 0x4 DUP3 ADD MSTORE PUSH1 0x2E PUSH1 0x24 DUP3 ADD MSTORE PUSH32 0x496E697469616C697A61626C653A20636F6E747261637420697320616C726561 PUSH1 0x44 DUP3 ADD MSTORE PUSH14 0x191E481A5B9A5D1A585B1A5E9959 PUSH1 0x92 SHL PUSH1 0x64 DUP3 ADD MSTORE PUSH1 0x84 ADD PUSH2 0x6C8 JUMP JUMPDEST PUSH1 0x0 DUP1 SLOAD PUSH1 0xFF NOT AND PUSH1 0x1 OR SWAP1 SSTORE DUP1 ISZERO PUSH2 0xF2E JUMPI PUSH1 0x0 DUP1 SLOAD PUSH2 0xFF00 NOT AND PUSH2 0x100 OR SWAP1 SSTORE JUMPDEST PUSH2 0xF76 PUSH1 0x40 MLOAD DUP1 PUSH1 0x40 ADD PUSH1 0x40 MSTORE DUP1 PUSH1 0xA DUP2 MSTORE PUSH1 0x20 ADD PUSH10 0x2420ACA8902A37B5B2B7 PUSH1 0xB1 SHL DUP2 MSTORE POP PUSH1 0x40 MLOAD DUP1 PUSH1 0x40 ADD PUSH1 0x40 MSTORE DUP1 PUSH1 0x4 DUP2 MSTORE PUSH1 0x20 ADD PUSH4 0x48415951 PUSH1 0xE0 SHL DUP2 MSTORE POP PUSH2 0x189C JUMP JUMPDEST PUSH2 0xF7E PUSH2 0x18CD JUMP JUMPDEST PUSH2 0xF86 PUSH2 0x18F4 JUMP JUMPDEST PUSH2 0xF8E PUSH2 0x1923 JUMP JUMPDEST PUSH1 0x1 PUSH1 0x1 PUSH1 0xA0 SHL SUB DUP3 AND ISZERO PUSH2 0xFB9 JUMPI PUSH1 0xFB DUP1 SLOAD PUSH1 0x1 PUSH1 0x1 PUSH1 0xA0 SHL SUB NOT AND PUSH1 0x1 PUSH1 0x1 PUSH1 0xA0 SHL SUB DUP5 AND OR SWAP1 SSTORE JUMPDEST PUSH1 0xFC DUP1 SLOAD PUSH1 0x1 PUSH1 0x1 PUSH1 0xA0 SHL SUB NOT SWAP1 DUP2 AND SWAP1 SWAP2 SSTORE PUSH1 0xFE DUP1 SLOAD DUP3 AND SWAP1 SSTORE PUSH1 0xFF DUP1 SLOAD SWAP1 SWAP2 AND SWAP1 SSTORE PUSH2 0xFF3 CALLER PUSH2 0x783 DUP6 PUSH8 0xDE0B6B3A7640000 PUSH2 0x1E5C JUMP JUMPDEST DUP1 ISZERO PUSH2 0x1039 JUMPI PUSH1 0x0 DUP1 SLOAD PUSH2 0xFF00 NOT AND SWAP1 SSTORE PUSH1 0x40 MLOAD PUSH1 0x1 DUP2 MSTORE PUSH32 0x7F26B83FF96E1F2B6A682F133852F6798A09C465DA95921460CEFB3847402498 SWAP1 PUSH1 0x20 ADD PUSH1 0x40 MLOAD DUP1 SWAP2 SUB SWAP1 LOG1 JUMPDEST POP POP POP JUMP JUMPDEST PUSH1 0x1 PUSH1 0x1 PUSH1 0xA0 SHL SUB SWAP2 DUP3 AND PUSH1 0x0 SWAP1 DUP2 MSTORE PUSH1 0x34 PUSH1 0x20 SWAP1 DUP2 MSTORE PUSH1 0x40 DUP1 DUP4 KECCAK256 SWAP4 SWAP1 SWAP5 AND DUP3 MSTORE SWAP2 SWAP1 SWAP2 MSTORE KECCAK256 SLOAD SWAP1 JUMP JUMPDEST PUSH2 0x1071 PUSH2 0x1560 JUMP JUMPDEST PUSH1 0x1 PUSH1 0x1 PUSH1 0xA0 SHL SUB DUP2 AND PUSH2 0x10D6 JUMPI PUSH1 0x40 MLOAD PUSH3 0x461BCD PUSH1 0xE5 SHL DUP2 MSTORE PUSH1 0x20 PUSH1 0x4 DUP3 ADD MSTORE PUSH1 0x26 PUSH1 0x24 DUP3 ADD MSTORE PUSH32 0x4F776E61626C653A206E6577206F776E657220697320746865207A65726F2061 PUSH1 0x44 DUP3 ADD MSTORE PUSH6 0x646472657373 PUSH1 0xD0 SHL PUSH1 0x64 DUP3 ADD MSTORE PUSH1 0x84 ADD PUSH2 0x6C8 JUMP JUMPDEST PUSH2 0x740 DUP2 PUSH2 0x17F0 JUMP JUMPDEST PUSH1 0x1 PUSH1 0x1 PUSH1 0xA0 SHL SUB DUP4 AND PUSH2 0x1141 JUMPI PUSH1 0x40 MLOAD PUSH3 0x461BCD PUSH1 0xE5 SHL DUP2 MSTORE PUSH1 0x20 PUSH1 0x4 DUP3 ADD MSTORE PUSH1 0x24 DUP1 DUP3 ADD MSTORE PUSH32 0x45524332303A20617070726F76652066726F6D20746865207A65726F20616464 PUSH1 0x44 DUP3 ADD MSTORE PUSH4 0x72657373 PUSH1 0xE0 SHL PUSH1 0x64 DUP3 ADD MSTORE PUSH1 0x84 ADD PUSH2 0x6C8 JUMP JUMPDEST PUSH1 0x1 PUSH1 0x1 PUSH1 0xA0 SHL SUB DUP3 AND PUSH2 0x11A2 JUMPI PUSH1 0x40 MLOAD PUSH3 0x461BCD PUSH1 0xE5 SHL DUP2 MSTORE PUSH1 0x20 PUSH1 0x4 DUP3 ADD MSTORE PUSH1 0x22 PUSH1 0x24 DUP3 ADD MSTORE PUSH32 0x45524332303A20617070726F766520746F20746865207A65726F206164647265 PUSH1 0x44 DUP3 ADD MSTORE PUSH2 0x7373 PUSH1 0xF0 SHL PUSH1 0x64 DUP3 ADD MSTORE PUSH1 0x84 ADD PUSH2 0x6C8 JUMP JUMPDEST PUSH1 0x1 PUSH1 0x1 PUSH1 0xA0 SHL SUB DUP4 DUP2 AND PUSH1 0x0 DUP2 DUP2 MSTORE PUSH1 0x34 PUSH1 0x20 SWAP1 DUP2 MSTORE PUSH1 0x40 DUP1 DUP4 KECCAK256 SWAP5 DUP8 AND DUP1 DUP5 MSTORE SWAP5 DUP3 MSTORE SWAP2 DUP3 SWAP1 KECCAK256 DUP6 SWAP1 SSTORE SWAP1 MLOAD DUP5 DUP2 MSTORE PUSH32 0x8C5BE1E5EBEC7D5BD14F71427D1E84F3DD0314C0F7B2291E5B200AC8C7C3B925 SWAP2 ADD PUSH1 0x40 MLOAD DUP1 SWAP2 SUB SWAP1 LOG3 POP POP POP JUMP JUMPDEST PUSH1 0x0 PUSH2 0x120F DUP5 DUP5 PUSH2 0x103E JUMP JUMPDEST SWAP1 POP PUSH1 0x0 NOT DUP2 EQ PUSH2 0x1277 JUMPI DUP2 DUP2 LT ISZERO PUSH2 0x126A JUMPI PUSH1 0x40 MLOAD PUSH3 0x461BCD PUSH1 0xE5 SHL DUP2 MSTORE PUSH1 0x20 PUSH1 0x4 DUP3 ADD MSTORE PUSH1 0x1D PUSH1 0x24 DUP3 ADD MSTORE PUSH32 0x45524332303A20696E73756666696369656E7420616C6C6F77616E6365000000 PUSH1 0x44 DUP3 ADD MSTORE PUSH1 0x64 ADD PUSH2 0x6C8 JUMP JUMPDEST PUSH2 0x1277 DUP5 DUP5 DUP5 DUP5 SUB PUSH2 0x10DF JUMP JUMPDEST POP POP POP POP JUMP JUMPDEST PUSH1 0x1 PUSH1 0x1 PUSH1 0xA0 SHL SUB DUP4 AND PUSH2 0x12E1 JUMPI PUSH1 0x40 MLOAD PUSH3 0x461BCD PUSH1 0xE5 SHL DUP2 MSTORE PUSH1 0x20 PUSH1 0x4 DUP3 ADD MSTORE PUSH1 0x25 PUSH1 0x24 DUP3 ADD MSTORE PUSH32 0x45524332303A207472616E736665722066726F6D20746865207A65726F206164 PUSH1 0x44 DUP3 ADD MSTORE PUSH5 0x6472657373 PUSH1 0xD8 SHL PUSH1 0x64 DUP3 ADD MSTORE PUSH1 0x84 ADD PUSH2 0x6C8 JUMP JUMPDEST PUSH1 0x1 PUSH1 0x1 PUSH1 0xA0 SHL SUB DUP3 AND PUSH2 0x1343 JUMPI PUSH1 0x40 MLOAD PUSH3 0x461BCD PUSH1 0xE5 SHL DUP2 MSTORE PUSH1 0x20 PUSH1 0x4 DUP3 ADD MSTORE PUSH1 0x23 PUSH1 0x24 DUP3 ADD MSTORE PUSH32 0x45524332303A207472616E7366657220746F20746865207A65726F2061646472 PUSH1 0x44 DUP3 ADD MSTORE PUSH3 0x657373 PUSH1 0xE8 SHL PUSH1 0x64 DUP3 ADD MSTORE PUSH1 0x84 ADD PUSH2 0x6C8 JUMP JUMPDEST PUSH2 0x134E DUP4 DUP4 DUP4 PUSH2 0x1952 JUMP JUMPDEST PUSH1 0x1 PUSH1 0x1 PUSH1 0xA0 SHL SUB DUP4 AND PUSH1 0x0 SWAP1 DUP2 MSTORE PUSH1 0x33 PUSH1 0x20 MSTORE PUSH1 0x40 SWAP1 KECCAK256 SLOAD DUP2 DUP2 LT ISZERO PUSH2 0x13C6 JUMPI PUSH1 0x40 MLOAD PUSH3 0x461BCD PUSH1 0xE5 SHL DUP2 MSTORE PUSH1 0x20 PUSH1 0x4 DUP3 ADD MSTORE PUSH1 0x26 PUSH1 0x24 DUP3 ADD MSTORE PUSH32 0x45524332303A207472616E7366657220616D6F756E7420657863656564732062 PUSH1 0x44 DUP3 ADD MSTORE PUSH6 0x616C616E6365 PUSH1 0xD0 SHL PUSH1 0x64 DUP3 ADD MSTORE PUSH1 0x84 ADD PUSH2 0x6C8 JUMP JUMPDEST PUSH1 0x1 PUSH1 0x1 PUSH1 0xA0 SHL SUB DUP1 DUP6 AND PUSH1 0x0 DUP2 DUP2 MSTORE PUSH1 0x33 PUSH1 0x20 MSTORE PUSH1 0x40 DUP1 DUP3 KECCAK256 DUP7 DUP7 SUB SWAP1 SSTORE SWAP3 DUP7 AND DUP1 DUP3 MSTORE SWAP1 DUP4 SWAP1 KECCAK256 DUP1 SLOAD DUP7 ADD SWAP1 SSTORE SWAP2 MLOAD PUSH32 0xDDF252AD1BE2C89B69C2B068FC378DAA952BA7F163C4A11628F55A4DF523B3EF SWAP1 PUSH2 0x1426 SWAP1 DUP7 DUP2 MSTORE PUSH1 0x20 ADD SWAP1 JUMP JUMPDEST PUSH1 0x40 MLOAD DUP1 SWAP2 SUB SWAP1 LOG3 PUSH2 0x1277 JUMP JUMPDEST PUSH1 0x2 PUSH1 0xC9 SLOAD SUB PUSH2 0x1485 JUMPI PUSH1 0x40 MLOAD PUSH3 0x461BCD PUSH1 0xE5 SHL DUP2 MSTORE PUSH1 0x20 PUSH1 0x4 DUP3 ADD MSTORE PUSH1 0x1F PUSH1 0x24 DUP3 ADD MSTORE PUSH32 0x5265656E7472616E637947756172643A207265656E7472616E742063616C6C00 PUSH1 0x44 DUP3 ADD MSTORE PUSH1 0x64 ADD PUSH2 0x6C8 JUMP JUMPDEST PUSH1 0x2 PUSH1 0xC9 SSTORE JUMP JUMPDEST PUSH1 0x1 PUSH1 0x1 PUSH1 0xA0 SHL SUB DUP3 AND PUSH2 0x14E2 JUMPI PUSH1 0x40 MLOAD PUSH3 0x461BCD PUSH1 0xE5 SHL DUP2 MSTORE PUSH1 0x20 PUSH1 0x4 DUP3 ADD MSTORE PUSH1 0x1F PUSH1 0x24 DUP3 ADD MSTORE PUSH32 0x45524332303A206D696E7420746F20746865207A65726F206164647265737300 PUSH1 0x44 DUP3 ADD MSTORE PUSH1 0x64 ADD PUSH2 0x6C8 JUMP JUMPDEST PUSH2 0x14EE PUSH1 0x0 DUP4 DUP4 PUSH2 0x1952 JUMP JUMPDEST DUP1 PUSH1 0x35 PUSH1 0x0 DUP3 DUP3 SLOAD PUSH2 0x1500 SWAP2 SWAP1 PUSH2 0x1E49 JUMP JUMPDEST SWAP1 SWAP2 SSTORE POP POP PUSH1 0x1 PUSH1 0x1 PUSH1 0xA0 SHL SUB DUP3 AND PUSH1 0x0 DUP2 DUP2 MSTORE PUSH1 0x33 PUSH1 0x20 SWAP1 DUP2 MSTORE PUSH1 0x40 DUP1 DUP4 KECCAK256 DUP1 SLOAD DUP7 ADD SWAP1 SSTORE MLOAD DUP5 DUP2 MSTORE PUSH32 0xDDF252AD1BE2C89B69C2B068FC378DAA952BA7F163C4A11628F55A4DF523B3EF SWAP2 ADD PUSH1 0x40 MLOAD DUP1 SWAP2 SUB SWAP1 LOG3 POP POP JUMP JUMPDEST PUSH1 0x1 PUSH1 0xC9 SSTORE JUMP JUMPDEST PUSH1 0x97 SLOAD PUSH1 0x1 PUSH1 0x1 PUSH1 0xA0 SHL SUB AND CALLER EQ PUSH2 0x92A JUMPI PUSH1 0x40 MLOAD PUSH3 0x461BCD PUSH1 0xE5 SHL DUP2 MSTORE PUSH1 0x20 PUSH1 0x4 DUP3 ADD DUP2 SWAP1 MSTORE PUSH1 0x24 DUP3 ADD MSTORE PUSH32 0x4F776E61626C653A2063616C6C6572206973206E6F7420746865206F776E6572 PUSH1 0x44 DUP3 ADD MSTORE PUSH1 0x64 ADD PUSH2 0x6C8 JUMP JUMPDEST PUSH1 0x1 PUSH1 0x1 PUSH1 0xA0 SHL SUB DUP3 AND PUSH2 0x161A JUMPI PUSH1 0x40 MLOAD PUSH3 0x461BCD PUSH1 0xE5 SHL DUP2 MSTORE PUSH1 0x20 PUSH1 0x4 DUP3 ADD MSTORE PUSH1 0x21 PUSH1 0x24 DUP3 ADD MSTORE PUSH32 0x45524332303A206275726E2066726F6D20746865207A65726F20616464726573 PUSH1 0x44 DUP3 ADD MSTORE PUSH1 0x73 PUSH1 0xF8 SHL PUSH1 0x64 DUP3 ADD MSTORE PUSH1 0x84 ADD PUSH2 0x6C8 JUMP JUMPDEST PUSH2 0x1626 DUP3 PUSH1 0x0 DUP4 PUSH2 0x1952 JUMP JUMPDEST PUSH1 0x1 PUSH1 0x1 PUSH1 0xA0 SHL SUB DUP3 AND PUSH1 0x0 SWAP1 DUP2 MSTORE PUSH1 0x33 PUSH1 0x20 MSTORE PUSH1 0x40 SWAP1 KECCAK256 SLOAD DUP2 DUP2 LT ISZERO PUSH2 0x169A JUMPI PUSH1 0x40 MLOAD PUSH3 0x461BCD PUSH1 0xE5 SHL DUP2 MSTORE PUSH1 0x20 PUSH1 0x4 DUP3 ADD MSTORE PUSH1 0x22 PUSH1 0x24 DUP3 ADD MSTORE PUSH32 0x45524332303A206275726E20616D6F756E7420657863656564732062616C616E PUSH1 0x44 DUP3 ADD MSTORE PUSH2 0x6365 PUSH1 0xF0 SHL PUSH1 0x64 DUP3 ADD MSTORE PUSH1 0x84 ADD PUSH2 0x6C8 JUMP JUMPDEST PUSH1 0x1 PUSH1 0x1 PUSH1 0xA0 SHL SUB DUP4 AND PUSH1 0x0 DUP2 DUP2 MSTORE PUSH1 0x33 PUSH1 0x20 SWAP1 DUP2 MSTORE PUSH1 0x40 DUP1 DUP4 KECCAK256 DUP7 DUP7 SUB SWAP1 SSTORE PUSH1 0x35 DUP1 SLOAD DUP8 SWAP1 SUB SWAP1 SSTORE MLOAD DUP6 DUP2 MSTORE SWAP2 SWAP3 SWAP2 PUSH32 0xDDF252AD1BE2C89B69C2B068FC378DAA952BA7F163C4A11628F55A4DF523B3EF SWAP2 ADD PUSH1 0x40 MLOAD DUP1 SWAP2 SUB SWAP1 LOG3 POP POP POP JUMP JUMPDEST PUSH1 0x0 DUP1 PUSH1 0x0 DUP5 GT PUSH2 0x1746 JUMPI PUSH1 0x40 MLOAD PUSH3 0x461BCD PUSH1 0xE5 SHL DUP2 MSTORE PUSH1 0x20 PUSH1 0x4 DUP3 ADD MSTORE PUSH1 0x16 PUSH1 0x24 DUP3 ADD MSTORE PUSH22 0x4552433230536E617073686F743A206964206973203 PUSH1 0x54 SHL PUSH1 0x44 DUP3 ADD MSTORE PUSH1 0x64 ADD PUSH2 0x6C8 JUMP JUMPDEST PUSH2 0x174E PUSH2 0x195D JUMP JUMPDEST DUP5 GT ISZERO PUSH2 0x179D JUMPI PUSH1 0x40 MLOAD PUSH3 0x461BCD PUSH1 0xE5 SHL DUP2 MSTORE PUSH1 0x20 PUSH1 0x4 DUP3 ADD MSTORE PUSH1 0x1D PUSH1 0x24 DUP3 ADD MSTORE PUSH32 0x4552433230536E617073686F743A206E6F6E6578697374656E74206964000000 PUSH1 0x44 DUP3 ADD MSTORE PUSH1 0x64 ADD PUSH2 0x6C8 JUMP JUMPDEST PUSH1 0x0 PUSH2 0x17A9 DUP5 DUP7 PUSH2 0x196D JUMP JUMPDEST DUP5 SLOAD SWAP1 SWAP2 POP DUP2 SUB PUSH2 0x17C1 JUMPI PUSH1 0x0 DUP1 SWAP3 POP SWAP3 POP POP PUSH2 0x17E9 JUMP JUMPDEST PUSH1 0x1 DUP5 PUSH1 0x1 ADD DUP3 DUP2 SLOAD DUP2 LT PUSH2 0x17D8 JUMPI PUSH2 0x17D8 PUSH2 0x1E73 JUMP JUMPDEST SWAP1 PUSH1 0x0 MSTORE PUSH1 0x20 PUSH1 0x0 KECCAK256 ADD SLOAD SWAP3 POP SWAP3 POP POP JUMPDEST SWAP3 POP SWAP3 SWAP1 POP JUMP JUMPDEST PUSH1 0x97 DUP1 SLOAD PUSH1 0x1 PUSH1 0x1 PUSH1 0xA0 SHL SUB DUP4 DUP2 AND PUSH1 0x1 PUSH1 0x1 PUSH1 0xA0 SHL SUB NOT DUP4 AND DUP2 OR SWAP1 SWAP4 SSTORE PUSH1 0x40 MLOAD SWAP2 AND SWAP2 SWAP1 DUP3 SWAP1 PUSH32 0x8BE0079C531659141344CD1FD0A4F28419497F9722A3DAAFE3B4186F6B6457E0 SWAP1 PUSH1 0x0 SWAP1 LOG3 POP POP JUMP JUMPDEST PUSH1 0x0 PUSH2 0x1852 PUSH1 0x68 DUP1 SLOAD PUSH1 0x1 ADD SWAP1 SSTORE JUMP JUMPDEST PUSH1 0x0 PUSH2 0x185C PUSH2 0x195D JUMP JUMPDEST SWAP1 POP PUSH32 0x8030E83B04D87BEF53480E26263266D6CA66863AA8506ACA6F2559D18AA1CB67 DUP2 PUSH1 0x40 MLOAD PUSH2 0x188F SWAP2 DUP2 MSTORE PUSH1 0x20 ADD SWAP1 JUMP JUMPDEST PUSH1 0x40 MLOAD DUP1 SWAP2 SUB SWAP1 LOG1 SWAP2 SWAP1 POP JUMP JUMPDEST PUSH1 0x0 SLOAD PUSH2 0x100 SWAP1 DIV PUSH1 0xFF AND PUSH2 0x18C3 JUMPI PUSH1 0x40 MLOAD PUSH3 0x461BCD PUSH1 0xE5 SHL DUP2 MSTORE PUSH1 0x4 ADD PUSH2 0x6C8 SWAP1 PUSH2 0x1E89 JUMP JUMPDEST PUSH2 0x788 DUP3 DUP3 PUSH2 0x1A1A JUMP JUMPDEST PUSH1 0x0 SLOAD PUSH2 0x100 SWAP1 DIV PUSH1 0xFF AND PUSH2 0x92A JUMPI PUSH1 0x40 MLOAD PUSH3 0x461BCD PUSH1 0xE5 SHL DUP2 MSTORE PUSH1 0x4 ADD PUSH2 0x6C8 SWAP1 PUSH2 0x1E89 JUMP JUMPDEST PUSH1 0x0 SLOAD PUSH2 0x100 SWAP1 DIV PUSH1 0xFF AND PUSH2 0x191B JUMPI PUSH1 0x40 MLOAD PUSH3 0x461BCD PUSH1 0xE5 SHL DUP2 MSTORE PUSH1 0x4 ADD PUSH2 0x6C8 SWAP1 PUSH2 0x1E89 JUMP JUMPDEST PUSH2 0x92A PUSH2 0x1A5A JUMP JUMPDEST PUSH1 0x0 SLOAD PUSH2 0x100 SWAP1 DIV PUSH1 0xFF AND PUSH2 0x194A JUMPI PUSH1 0x40 MLOAD PUSH3 0x461BCD PUSH1 0xE5 SHL DUP2 MSTORE PUSH1 0x4 ADD PUSH2 0x6C8 SWAP1 PUSH2 0x1E89 JUMP JUMPDEST PUSH2 0x92A PUSH2 0x1A8A JUMP JUMPDEST PUSH2 0x1039 DUP4 DUP4 DUP4 PUSH2 0x1AB1 JUMP JUMPDEST PUSH1 0x0 PUSH2 0x1968 PUSH1 0x68 SLOAD SWAP1 JUMP JUMPDEST SWAP1 POP SWAP1 JUMP JUMPDEST DUP2 SLOAD PUSH1 0x0 SWAP1 DUP2 SUB PUSH2 0x1980 JUMPI POP PUSH1 0x0 PUSH2 0x5BD JUMP JUMPDEST DUP3 SLOAD PUSH1 0x0 SWAP1 JUMPDEST DUP1 DUP3 LT ISZERO PUSH2 0x19CD JUMPI PUSH1 0x0 PUSH2 0x199A DUP4 DUP4 PUSH2 0x1AF9 JUMP JUMPDEST PUSH1 0x0 DUP8 DUP2 MSTORE PUSH1 0x20 SWAP1 KECCAK256 SWAP1 SWAP2 POP DUP6 SWAP1 DUP3 ADD SLOAD GT ISZERO PUSH2 0x19B9 JUMPI DUP1 SWAP2 POP PUSH2 0x19C7 JUMP JUMPDEST PUSH2 0x19C4 DUP2 PUSH1 0x1 PUSH2 0x1E49 JUMP JUMPDEST SWAP3 POP JUMPDEST POP PUSH2 0x1986 JUMP JUMPDEST PUSH1 0x0 DUP3 GT DUP1 ISZERO PUSH2 0x19F9 JUMPI POP DUP4 PUSH2 0x19F6 DUP7 PUSH2 0x19E8 PUSH1 0x1 DUP7 PUSH2 0x1E36 JUMP JUMPDEST PUSH1 0x0 SWAP2 DUP3 MSTORE PUSH1 0x20 SWAP1 SWAP2 KECCAK256 ADD SWAP1 JUMP JUMPDEST SLOAD EQ JUMPDEST ISZERO PUSH2 0x1A12 JUMPI PUSH2 0x1A09 PUSH1 0x1 DUP4 PUSH2 0x1E36 JUMP JUMPDEST SWAP3 POP POP POP PUSH2 0x5BD JUMP JUMPDEST POP SWAP1 POP PUSH2 0x5BD JUMP JUMPDEST PUSH1 0x0 SLOAD PUSH2 0x100 SWAP1 DIV PUSH1 0xFF AND PUSH2 0x1A41 JUMPI PUSH1 0x40 MLOAD PUSH3 0x461BCD PUSH1 0xE5 SHL DUP2 MSTORE PUSH1 0x4 ADD PUSH2 0x6C8 SWAP1 PUSH2 0x1E89 JUMP JUMPDEST PUSH1 0x36 PUSH2 0x1A4D DUP4 DUP3 PUSH2 0x1F38 JUMP JUMPDEST POP PUSH1 0x37 PUSH2 0x1039 DUP3 DUP3 PUSH2 0x1F38 JUMP JUMPDEST PUSH1 0x0 SLOAD PUSH2 0x100 SWAP1 DIV PUSH1 0xFF AND PUSH2 0x1A81 JUMPI PUSH1 0x40 MLOAD PUSH3 0x461BCD PUSH1 0xE5 SHL DUP2 MSTORE PUSH1 0x4 ADD PUSH2 0x6C8 SWAP1 PUSH2 0x1E89 JUMP JUMPDEST PUSH2 0x92A CALLER PUSH2 0x17F0 JUMP JUMPDEST PUSH1 0x0 SLOAD PUSH2 0x100 SWAP1 DIV PUSH1 0xFF AND PUSH2 0x1559 JUMPI PUSH1 0x40 MLOAD PUSH3 0x461BCD PUSH1 0xE5 SHL DUP2 MSTORE PUSH1 0x4 ADD PUSH2 0x6C8 SWAP1 PUSH2 0x1E89 JUMP JUMPDEST PUSH1 0x1 PUSH1 0x1 PUSH1 0xA0 SHL SUB DUP4 AND PUSH2 0x1AD0 JUMPI PUSH2 0x1AC8 DUP3 PUSH2 0x1B1B JUMP JUMPDEST PUSH2 0x1039 PUSH2 0x1B4E JUMP JUMPDEST PUSH1 0x1 PUSH1 0x1 PUSH1 0xA0 SHL SUB DUP3 AND PUSH2 0x1AE7 JUMPI PUSH2 0x1AC8 DUP4 PUSH2 0x1B1B JUMP JUMPDEST PUSH2 0x1AF0 DUP4 PUSH2 0x1B1B JUMP JUMPDEST PUSH2 0x1039 DUP3 PUSH2 0x1B1B JUMP JUMPDEST PUSH1 0x0 PUSH2 0x1B08 PUSH1 0x2 DUP5 DUP5 XOR PUSH2 0x1FF7 JUMP JUMPDEST PUSH2 0x1B14 SWAP1 DUP5 DUP5 AND PUSH2 0x1E49 JUMP JUMPDEST SWAP4 SWAP3 POP POP POP JUMP JUMPDEST PUSH1 0x1 PUSH1 0x1 PUSH1 0xA0 SHL SUB DUP2 AND PUSH1 0x0 SWAP1 DUP2 MSTORE PUSH1 0x65 PUSH1 0x20 SWAP1 DUP2 MSTORE PUSH1 0x40 DUP1 DUP4 KECCAK256 PUSH1 0x33 SWAP1 SWAP3 MSTORE SWAP1 SWAP2 KECCAK256 SLOAD PUSH2 0x740 SWAP2 SWAP1 PUSH2 0x1B5C JUMP JUMPDEST PUSH2 0x1B5C JUMP JUMPDEST PUSH2 0x92A PUSH1 0x66 PUSH2 0x1B49 PUSH1 0x35 SLOAD SWAP1 JUMP JUMPDEST PUSH1 0x0 PUSH2 0x1B66 PUSH2 0x195D JUMP JUMPDEST SWAP1 POP DUP1 PUSH2 0x1B72 DUP5 PUSH2 0x1BA6 JUMP JUMPDEST LT ISZERO PUSH2 0x1039 JUMPI DUP3 SLOAD PUSH1 0x1 DUP1 DUP3 ADD DUP6 SSTORE PUSH1 0x0 DUP6 DUP2 MSTORE PUSH1 0x20 DUP1 DUP3 KECCAK256 SWAP1 SWAP4 ADD SWAP4 SWAP1 SWAP4 SSTORE SWAP4 DUP5 ADD DUP1 SLOAD SWAP5 DUP6 ADD DUP2 SSTORE DUP3 MSTORE SWAP1 KECCAK256 SWAP1 SWAP2 ADD SSTORE JUMP JUMPDEST DUP1 SLOAD PUSH1 0x0 SWAP1 DUP2 SUB PUSH2 0x1BB9 JUMPI POP PUSH1 0x0 SWAP2 SWAP1 POP JUMP JUMPDEST DUP2 SLOAD DUP3 SWAP1 PUSH2 0x1BC9 SWAP1 PUSH1 0x1 SWAP1 PUSH2 0x1E36 JUMP JUMPDEST DUP2 SLOAD DUP2 LT PUSH2 0x1BD9 JUMPI PUSH2 0x1BD9 PUSH2 0x1E73 JUMP JUMPDEST SWAP1 PUSH1 0x0 MSTORE PUSH1 0x20 PUSH1 0x0 KECCAK256 ADD SLOAD SWAP1 POP SWAP2 SWAP1 POP JUMP JUMPDEST SWAP2 SWAP1 POP JUMP JUMPDEST PUSH1 0x20 DUP2 MSTORE PUSH1 0x0 DUP3 MLOAD DUP1 PUSH1 0x20 DUP5 ADD MSTORE PUSH1 0x0 JUMPDEST DUP2 DUP2 LT ISZERO PUSH2 0x1C1E JUMPI PUSH1 0x20 DUP2 DUP7 ADD DUP2 ADD MLOAD PUSH1 0x40 DUP7 DUP5 ADD ADD MSTORE ADD PUSH2 0x1C01 JUMP JUMPDEST POP PUSH1 0x0 PUSH1 0x40 DUP3 DUP6 ADD ADD MSTORE PUSH1 0x40 PUSH1 0x1F NOT PUSH1 0x1F DUP4 ADD AND DUP5 ADD ADD SWAP2 POP POP SWAP3 SWAP2 POP POP JUMP JUMPDEST DUP1 CALLDATALOAD PUSH1 0x1 PUSH1 0x1 PUSH1 0xA0 SHL SUB DUP2 AND DUP2 EQ PUSH2 0x1BEB JUMPI PUSH1 0x0 DUP1 REVERT JUMPDEST PUSH1 0x0 DUP1 PUSH1 0x40 DUP4 DUP6 SUB SLT ISZERO PUSH2 0x1C68 JUMPI PUSH1 0x0 DUP1 REVERT JUMPDEST PUSH2 0x1C71 DUP4 PUSH2 0x1C3E JUMP JUMPDEST SWAP5 PUSH1 0x20 SWAP4 SWAP1 SWAP4 ADD CALLDATALOAD SWAP4 POP POP POP JUMP JUMPDEST PUSH1 0x0 PUSH1 0x20 DUP3 DUP5 SUB SLT ISZERO PUSH2 0x1C91 JUMPI PUSH1 0x0 DUP1 REVERT JUMPDEST PUSH2 0x1B14 DUP3 PUSH2 0x1C3E JUMP JUMPDEST PUSH1 0x0 DUP1 PUSH1 0x0 PUSH1 0x60 DUP5 DUP7 SUB SLT ISZERO PUSH2 0x1CAF JUMPI PUSH1 0x0 DUP1 REVERT JUMPDEST PUSH2 0x1CB8 DUP5 PUSH2 0x1C3E JUMP JUMPDEST SWAP3 POP PUSH2 0x1CC6 PUSH1 0x20 DUP6 ADD PUSH2 0x1C3E JUMP JUMPDEST SWAP3 SWAP6 SWAP3 SWAP5 POP POP POP PUSH1 0x40 SWAP2 SWAP1 SWAP2 ADD CALLDATALOAD SWAP1 JUMP JUMPDEST PUSH1 0x0 PUSH1 0x20 DUP3 DUP5 SUB SLT ISZERO PUSH2 0x1CE9 JUMPI PUSH1 0x0 DUP1 REVERT JUMPDEST POP CALLDATALOAD SWAP2 SWAP1 POP JUMP JUMPDEST PUSH1 0x0 DUP1 PUSH1 0x40 DUP4 DUP6 SUB SLT ISZERO PUSH2 0x1D03 JUMPI PUSH1 0x0 DUP1 REVERT JUMPDEST POP POP DUP1 CALLDATALOAD SWAP3 PUSH1 0x20 SWAP1 SWAP2 ADD CALLDATALOAD SWAP2 POP JUMP JUMPDEST DUP1 CALLDATALOAD PUSH8 0xFFFFFFFFFFFFFFFF DUP2 AND DUP2 EQ PUSH2 0x1BEB JUMPI PUSH1 0x0 DUP1 REVERT JUMPDEST PUSH1 0x0 DUP1 PUSH1 0x0 DUP1 PUSH1 0x80 DUP6 DUP8 SUB SLT ISZERO PUSH2 0x1D40 JUMPI PUSH1 0x0 DUP1 REVERT JUMPDEST PUSH2 0x1D49 DUP6 PUSH2 0x1C3E JUMP JUMPDEST SWAP4 POP PUSH1 0x20 DUP6 ADD CALLDATALOAD SWAP3 POP PUSH2 0x1D5E PUSH1 0x40 DUP7 ADD PUSH2 0x1D12 JUMP JUMPDEST SWAP2 POP PUSH2 0x1D6C PUSH1 0x60 DUP7 ADD PUSH2 0x1D12 JUMP JUMPDEST SWAP1 POP SWAP3 SWAP6 SWAP2 SWAP5 POP SWAP3 POP JUMP JUMPDEST PUSH1 0x0 DUP1 PUSH1 0x40 DUP4 DUP6 SUB SLT ISZERO PUSH2 0x1D8A JUMPI PUSH1 0x0 DUP1 REVERT JUMPDEST DUP3 CALLDATALOAD SWAP2 POP PUSH2 0x1D9A PUSH1 0x20 DUP5 ADD PUSH2 0x1C3E JUMP JUMPDEST SWAP1 POP SWAP3 POP SWAP3 SWAP1 POP JUMP JUMPDEST PUSH1 0x0 DUP1 PUSH1 0x40 DUP4 DUP6 SUB SLT ISZERO PUSH2 0x1DB6 JUMPI PUSH1 0x0 DUP1 REVERT JUMPDEST PUSH2 0x1DBF DUP4 PUSH2 0x1C3E JUMP JUMPDEST SWAP2 POP PUSH2 0x1D9A PUSH1 0x20 DUP5 ADD PUSH2 0x1C3E JUMP JUMPDEST PUSH1 0x1 DUP2 DUP2 SHR SWAP1 DUP3 AND DUP1 PUSH2 0x1DE1 JUMPI PUSH1 0x7F DUP3 AND SWAP2 POP JUMPDEST PUSH1 0x20 DUP3 LT DUP2 SUB PUSH2 0x1E01 JUMPI PUSH4 0x4E487B71 PUSH1 0xE0 SHL PUSH1 0x0 MSTORE PUSH1 0x22 PUSH1 0x4 MSTORE PUSH1 0x24 PUSH1 0x0 REVERT JUMPDEST POP SWAP2 SWAP1 POP JUMP JUMPDEST PUSH1 0x0 PUSH1 0x20 DUP3 DUP5 SUB SLT ISZERO PUSH2 0x1E19 JUMPI PUSH1 0x0 DUP1 REVERT JUMPDEST POP MLOAD SWAP2 SWAP1 POP JUMP JUMPDEST PUSH4 0x4E487B71 PUSH1 0xE0 SHL PUSH1 0x0 MSTORE PUSH1 0x11 PUSH1 0x4 MSTORE PUSH1 0x24 PUSH1 0x0 REVERT JUMPDEST DUP2 DUP2 SUB DUP2 DUP2 GT ISZERO PUSH2 0x5BD JUMPI PUSH2 0x5BD PUSH2 0x1E20 JUMP JUMPDEST DUP1 DUP3 ADD DUP1 DUP3 GT ISZERO PUSH2 0x5BD JUMPI PUSH2 0x5BD PUSH2 0x1E20 JUMP JUMPDEST DUP1 DUP3 MUL DUP2 ISZERO DUP3 DUP3 DIV DUP5 EQ OR PUSH2 0x5BD JUMPI PUSH2 0x5BD PUSH2 0x1E20 JUMP JUMPDEST PUSH4 0x4E487B71 PUSH1 0xE0 SHL PUSH1 0x0 MSTORE PUSH1 0x32 PUSH1 0x4 MSTORE PUSH1 0x24 PUSH1 0x0 REVERT JUMPDEST PUSH1 0x20 DUP1 DUP3 MSTORE PUSH1 0x2B SWAP1 DUP3 ADD MSTORE PUSH32 0x496E697469616C697A61626C653A20636F6E7472616374206973206E6F742069 PUSH1 0x40 DUP3 ADD MSTORE PUSH11 0x6E697469616C697A696E67 PUSH1 0xA8 SHL PUSH1 0x60 DUP3 ADD MSTORE PUSH1 0x80 ADD SWAP1 JUMP JUMPDEST PUSH4 0x4E487B71 PUSH1 0xE0 SHL PUSH1 0x0 MSTORE PUSH1 0x41 PUSH1 0x4 MSTORE PUSH1 0x24 PUSH1 0x0 REVERT JUMPDEST PUSH1 0x1F DUP3 GT ISZERO PUSH2 0x1039 JUMPI DUP1 PUSH1 0x0 MSTORE PUSH1 0x20 PUSH1 0x0 KECCAK256 PUSH1 0x1F DUP5 ADD PUSH1 0x5 SHR DUP2 ADD PUSH1 0x20 DUP6 LT ISZERO PUSH2 0x1F11 JUMPI POP DUP1 JUMPDEST PUSH1 0x1F DUP5 ADD PUSH1 0x5 SHR DUP3 ADD SWAP2 POP JUMPDEST DUP2 DUP2 LT ISZERO PUSH2 0x1F31 JUMPI PUSH1 0x0 DUP2 SSTORE PUSH1 0x1 ADD PUSH2 0x1F1D JUMP JUMPDEST POP POP POP POP POP JUMP JUMPDEST DUP2 MLOAD PUSH8 0xFFFFFFFFFFFFFFFF DUP2 GT ISZERO PUSH2 0x1F52 JUMPI PUSH2 0x1F52 PUSH2 0x1ED4 JUMP JUMPDEST PUSH2 0x1F66 DUP2 PUSH2 0x1F60 DUP5 SLOAD PUSH2 0x1DCD JUMP JUMPDEST DUP5 PUSH2 0x1EEA JUMP JUMPDEST PUSH1 0x20 PUSH1 0x1F DUP3 GT PUSH1 0x1 DUP2 EQ PUSH2 0x1F9A JUMPI PUSH1 0x0 DUP4 ISZERO PUSH2 0x1F82 JUMPI POP DUP5 DUP3 ADD MLOAD JUMPDEST PUSH1 0x0 NOT PUSH1 0x3 DUP6 SWAP1 SHL SHR NOT AND PUSH1 0x1 DUP5 SWAP1 SHL OR DUP5 SSTORE PUSH2 0x1F31 JUMP JUMPDEST PUSH1 0x0 DUP5 DUP2 MSTORE PUSH1 0x20 DUP2 KECCAK256 PUSH1 0x1F NOT DUP6 AND SWAP2 JUMPDEST DUP3 DUP2 LT ISZERO PUSH2 0x1FCA JUMPI DUP8 DUP6 ADD MLOAD DUP3 SSTORE PUSH1 0x20 SWAP5 DUP6 ADD SWAP5 PUSH1 0x1 SWAP1 SWAP3 ADD SWAP2 ADD PUSH2 0x1FAA JUMP JUMPDEST POP DUP5 DUP3 LT ISZERO PUSH2 0x1FE8 JUMPI DUP7 DUP5 ADD MLOAD PUSH1 0x0 NOT PUSH1 0x3 DUP8 SWAP1 SHL PUSH1 0xF8 AND SHR NOT AND DUP2 SSTORE JUMPDEST POP POP POP POP PUSH1 0x1 SWAP1 DUP2 SHL ADD SWAP1 SSTORE POP JUMP JUMPDEST PUSH1 0x0 DUP3 PUSH2 0x2014 JUMPI PUSH4 0x4E487B71 PUSH1 0xE0 SHL PUSH1 0x0 MSTORE PUSH1 0x12 PUSH1 0x4 MSTORE PUSH1 0x24 PUSH1 0x0 REVERT JUMPDEST POP DIV SWAP1 JUMP INVALID LOG2 PUSH5 0x6970667358 0x22 SLT KECCAK256 0x25 ADDRESS DUP7 0x27 PUSH6 0x2A7A215BD523 0xA6 RETURN 0xEF DELEGATECALL 0xD2 0xDA DUP11 0xB7 CREATE2 DUP8 0xB9 0xCF OR MSTORE 0xC9 0xF6 SWAP6 0xC9 0xDE GASPRICE 0xBD PUSH5 0x736F6C6343 STOP ADDMOD SAR STOP CALLER "},"methodIdentifiers":{"allowance(address,address)":"dd62ed3e","allowanceToRouter(address)":"c12a9397","approve(address,uint256)":"095ea7b3","balanceOf(address)":"70a08231","balanceOfAt(address,uint256)":"4ee2cd7e","buyback(uint256,uint256)":"460ddf8d","createTeamVesting(address,uint256,uint64,uint64)":"881726a7","decimals()":"313ce567","decreaseAllowance(address,uint256)":"a457c2d7","increaseAllowance(address,uint256)":"39509351","initialize(uint256,address)":"da35a26f","miniMVP()":"12fb2db0","mint(address,uint256)":"40c10f19","name()":"06fdde03","owner()":"8da5cb5b","renounceOwnership()":"715018a6","router()":"f887ea40","setMiniMVP(address)":"6202bbfe","setRouter(address)":"c0d78655","setVestingVault(address)":"a91468ba","setVestingVaultReadable(address)":"89f7eb28","snapshot()":"9711715a","stake(uint256)":"a694fc3a","staked(address)":"98807d84","stakedBalanceOf(address)":"16765391","symbol()":"95d89b41","totalSupply()":"18160ddd","totalSupplyAt(uint256)":"981b24d0","transfer(address,uint256)":"a9059cbb","transferFrom(address,address,uint256)":"23b872dd","transferOwnership(address)":"f2fde38b","unstake(uint256)":"2e17de78","vestingReleased(address)":"16e530b4","vestingTotal(address)":"6e382184","vestingVault()":"a5917baf","vestingVaultReadable()":"b9020b78"}},"storageLayout":{"storage":[{"astId":139,"contract":"contracts/HAYQMiniMVP.sol:HAYQMiniMVP","label":"_initialized","offset":0,"slot":"0","type":"t_uint8"},{"astId":142,"contract":"contracts/HAYQMiniMVP.sol:HAYQMiniMVP","label":"_initializing","offset":1,"slot":"0","type":"t_bool"},{"astId":1987,"contract":"contracts/HAYQMiniMVP.sol:HAYQMiniMVP","label":"__gap","offset":0,"slot":"1","type":"t_array(t_uint256)50_storage"},{"astId":406,"contract":"contracts/HAYQMiniMVP.sol:HAYQMiniMVP","label":"_balances","offset":0,"slot":"51","type":"t_mapping(t_address,t_uint256)"},{"astId":412,"contract":"contracts/HAYQMiniMVP.sol:HAYQMiniMVP","label":"_allowances","offset":0,"slot":"52","type":"t_mapping(t_address,t_mapping(t_address,t_uint256))"},{"astId":414,"contract":"contracts/HAYQMiniMVP.sol:HAYQMiniMVP","label":"_totalSupply","offset":0,"slot":"53","type":"t_uint256"},{"astId":416,"contract":"contracts/HAYQMiniMVP.sol:HAYQMiniMVP","label":"_name","offset":0,"slot":"54","type":"t_string_storage"},{"astId":418,"contract":"contracts/HAYQMiniMVP.sol:HAYQMiniMVP","label":"_symbol","offset":0,"slot":"55","type":"t_string_storage"},{"astId":998,"contract":"contracts/HAYQMiniMVP.sol:HAYQMiniMVP","label":"__gap","offset":0,"slot":"56","type":"t_array(t_uint256)45_storage"},{"astId":1109,"contract":"contracts/HAYQMiniMVP.sol:HAYQMiniMVP","label":"_accountBalanceSnapshots","offset":0,"slot":"101","type":"t_mapping(t_address,t_struct(Snapshots)1104_storage)"},{"astId":1112,"contract":"contracts/HAYQMiniMVP.sol:HAYQMiniMVP","label":"_totalSupplySnapshots","offset":0,"slot":"102","type":"t_struct(Snapshots)1104_storage"},{"astId":1115,"contract":"contracts/HAYQMiniMVP.sol:HAYQMiniMVP","label":"_currentSnapshotId","offset":0,"slot":"104","type":"t_struct(Counter)1994_storage"},{"astId":1425,"contract":"contracts/HAYQMiniMVP.sol:HAYQMiniMVP","label":"__gap","offset":0,"slot":"105","type":"t_array(t_uint256)46_storage"},{"astId":11,"contract":"contracts/HAYQMiniMVP.sol:HAYQMiniMVP","label":"_owner","offset":0,"slot":"151","type":"t_address"},{"astId":131,"contract":"contracts/HAYQMiniMVP.sol:HAYQMiniMVP","label":"__gap","offset":0,"slot":"152","type":"t_array(t_uint256)49_storage"},{"astId":316,"contract":"contracts/HAYQMiniMVP.sol:HAYQMiniMVP","label":"_status","offset":0,"slot":"201","type":"t_uint256"},{"astId":385,"contract":"contracts/HAYQMiniMVP.sol:HAYQMiniMVP","label":"__gap","offset":0,"slot":"202","type":"t_array(t_uint256)49_storage"},{"astId":3619,"contract":"contracts/HAYQMiniMVP.sol:HAYQMiniMVP","label":"router","offset":0,"slot":"251","type":"t_contract(IRouter)3593"},{"astId":3622,"contract":"contracts/HAYQMiniMVP.sol:HAYQMiniMVP","label":"miniMVP","offset":0,"slot":"252","type":"t_contract(IHAYQMiniMVP)3578"},{"astId":3626,"contract":"contracts/HAYQMiniMVP.sol:HAYQMiniMVP","label":"staked","offset":0,"slot":"253","type":"t_mapping(t_address,t_uint256)"},{"astId":3628,"contract":"contracts/HAYQMiniMVP.sol:HAYQMiniMVP","label":"vestingVault","offset":0,"slot":"254","type":"t_address"},{"astId":3631,"contract":"contracts/HAYQMiniMVP.sol:HAYQMiniMVP","label":"vestingVaultReadable","offset":0,"slot":"255","type":"t_contract(IVestingVaultReadable)3570"},{"astId":4154,"contract":"contracts/HAYQMiniMVP.sol:HAYQMiniMVP","label":"__gap","offset":0,"slot":"256","type":"t_array(t_uint256)50_storage"}],"types":{"t_address":{"encoding":"inplace","label":"address","numberOfBytes":"20"},"t_array(t_uint256)45_storage":{"base":"t_uint256","encoding":"inplace","label":"uint256[45]","numberOfBytes":"1440"},"t_array(t_uint256)46_storage":{"base":"t_uint256","encoding":"inplace","label":"uint256[46]","numberOfBytes":"1472"},"t_array(t_uint256)49_storage":{"base":"t_uint256","encoding":"inplace","label":"uint256[49]","numberOfBytes":"1568"},"t_array(t_uint256)50_storage":{"base":"t_uint256","encoding":"inplace","label":"uint256[50]","numberOfBytes":"1600"},"t_array(t_uint256)dyn_storage":{"base":"t_uint256","encoding":"dynamic_array","label":"uint256[]","numberOfBytes":"32"},"t_bool":{"encoding":"inplace","label":"bool","numberOfBytes":"1"},"t_contract(IHAYQMiniMVP)3578":{"encoding":"inplace","label":"contract IHAYQMiniMVP","numberOfBytes":"20"},"t_contract(IRouter)3593":{"encoding":"inplace","label":"contract IRouter","numberOfBytes":"20"},"t_contract(IVestingVaultReadable)3570":{"encoding":"inplace","label":"contract IVestingVaultReadable","numberOfBytes":"20"},"t_mapping(t_address,t_mapping(t_address,t_uint256))":{"encoding":"mapping","key":"t_address","label":"mapping(address => mapping(address => uint256))","numberOfBytes":"32","value":"t_mapping(t_address,t_uint256)"},"t_mapping(t_address,t_struct(Snapshots)1104_storage)":{"encoding":"mapping","key":"t_address","label":"mapping(address => struct ERC20SnapshotUpgradeable.Snapshots)","numberOfBytes":"32","value":"t_struct(Snapshots)1104_storage"},"t_mapping(t_address,t_uint256)":{"encoding":"mapping","key":"t_address","label":"mapping(address => uint256)","numberOfBytes":"32","value":"t_uint256"},"t_string_storage":{"encoding":"bytes","label":"string","numberOfBytes":"32"},"t_struct(Counter)1994_storage":{"encoding":"inplace","label":"struct CountersUpgradeable.Counter","members":[{"astId":1993,"contract":"contracts/HAYQMiniMVP.sol:HAYQMiniMVP","label":"_value","offset":0,"slot":"0","type":"t_uint256"}],"numberOfBytes":"32"},"t_struct(Snapshots)1104_storage":{"encoding":"inplace","label":"struct ERC20SnapshotUpgradeable.Snapshots","members":[{"astId":1100,"contract":"contracts/HAYQMiniMVP.sol:HAYQMiniMVP","label":"ids","offset":0,"slot":"0","type":"t_array(t_uint256)dyn_storage"},{"astId":1103,"contract":"contracts/HAYQMiniMVP.sol:HAYQMiniMVP","label":"values","offset":0,"slot":"1","type":"t_array(t_uint256)dyn_storage"}],"numberOfBytes":"64"},"t_uint256":{"encoding":"inplace","label":"uint256","numberOfBytes":"32"},"t_uint8":{"encoding":"inplace","label":"uint8","numberOfBytes":"1"}}}}}}